:100000000C94CE0D0C94EF0D0C94EF0D0C94EF0DA1
:100010000C94EF0D0C94EF0D0C94EF0D0C94EF0D70
:100020000C94EF0D0C94EF0D0C94EF0D0C94EF0D60
:100030000C94EF0D0C94EF0D0C945C190C94EF0DD7
:100040000C94EF0D0C94EF0D0C94EF0D0C94EF0D40
:100050000C94EF0D0C94EF0D0C94EF0D0C94EF0D30
:100060000C94EF0D0C94EF0D0C94EF0D0C94EF0D20
:100070000C94EF0D0C94EF0D0C94EF0D0C94EF0D10
:100080000C94EF0D0C94EF0D0C94EF0D0C94EF0D00
:100090000C94EF0D0C94EF0D0C94EF0D0C94EF0DF0
:1000A0000C94EF0D0C94EF0D0C94EF0D0C94EF0DE0
:1000B0000C94EF0D0C94EF0D0C9489390C94EF0D0A
:1000C0000C94EF0D0C94EF0D0C94EF0D0C94EF0DC0
:1000D0000C94EF0D0C94EF0D0C94EF0D0C94EF0DB0
:1000E0000C94EF0D0C94EF0D0C94EF0D0C94EF0DA0
:1000F0000C94EF0D0C94A31B0C94EF0D0C94EF0DCE
:100100000C94EF0D0C94EF0D0C94EF0D0C94EF0D7F
:100110000C94EF0D0C94EF0D0C94EF0D0C94EF0D6F
:100120000C94EF0D0C94EF0D0C94EF0D0C94EF0D5F
:100130000C94EF0D0C94EF0D0C94EF0D0C94EF0D4F
:100140000C94EF0D0C94EF0D0C94EF0D0C94EF0D3F
:100150000C94EF0D0C94EF0D0C94EF0D0C94EF0D2F
:100160000C94EF0D0C94EF0D0C94EF0D0C94EF0D1F
:100170000C94EF0D0C94EF0D0C94EF0D0C94EF0D0F
:100180000C94EF0D0C94EF0D0C94EF0D0C94EF0DFF
:100190000C94EF0D0C94EF0D0C94EF0D0C94EF0DEF
:1001A0000C9492190C94A5190C94EF0D0C94EF0D6E
:1001B0000C94EF0D0C94EF0D0C94EF0D0C94EF0DCF
:1001C0000C94EF0D0C94EF0D0C94EF0D0C94EF0DBF
:1001D0000C94EF0D0C94EF0D0C94EF0D0C94C61BCA
:1001E0000C94EF0D0C94EF0D0D0A3E0057726974DC
:1001F0006520626F6F746C6F6164657220656E61FB
:10020000626C65206279746520746F204545505298
:100210004F4D00726573657474696E672041565264
:100220000D0A003C1C00003B044B1C01003604601E
:100230003201003004421C00002B04391900002652
:10024000045219000020041B3101001A046D310111
:10025000001404B73101000D04013201000704DE6F
:1002600026000002048C260100FD0368260000F829
:100270000399250000F303A7250100EE03F02501F3
:1002800000E80339260100E303844A0000DD037F10
:10029000250000D70374250000CF038A300000C971
:1002A00003DC3A0000C203173A0000BD03123B0012
:1002B000009F030A230100B103E8220100B70328CD
:1002C000250100A5035E250000AC03152500009A5A
:1002D00003033D00009503463000008F03C4220154
:1002E000008903A222010083033E3C00007D03BA83
:1002F0002E01006F03542E010069033128010062B2
:1003000003D22701005D036527010058036F220116
:100310000079038B2F010075037A1C01003703E17C
:100320002401004D03AD24010048030027010041D2
:10033000037E2401005303777332383131726762D0
:1003400000736473707377007673746400767374EB
:100350006F70007366796400736C7063007362720F
:100360006900736E6372676200736F726762007315
:100370006D72676200676173007361730061647618
:1003800076650067616476720073616476720067F7
:1003900061647673006961647600726164760074EA
:1003A00076706E6900747670707772007274767011
:1003B0000073747670720067747670720069747678
:1003C000700067747670727600677476707300667A
:1003D000706761636473006670676172007366744E
:1003E0006663007366776500736665747300736691
:1003F0007365007366626500736667730073667386
:100400006100736667690064747769640067747774
:100410006972720067747769720073747769720029
:10042000726176726200726176720068656C70004B
:100430007474796C6C0074747965007474796200FA
:100440003078253278004465763A2030782530328D
:100450007820416464723A20307825303278204226
:100460007974653A203078253032780D0A00496E6B
:1004700076616C696420706172616D657465722E5D
:100480000D0A0030782532782030782532780072D5
:100490006567697374657220307825303278203D45
:1004A000203078253032782028616464723A203018
:1004B0007825303278290D0A0030782532782030BE
:1004C00078253278007265676973746572203078B8
:1004D00025303278203D2030782530327820286150
:1004E0006464723A20307825303278290D0A003061
:1004F0007825327820307825327820307825327887
:100500000073656E64696E6720307825303278201C
:10051000746F207265676973746572203078253056
:1005200032782028616464723A203078253032783D
:10053000290D0A00726573657474696E67204650F0
:1005400047410D0A004650474120636F6E66696758
:1005500020697320646F6E650D0A00465047412084
:10056000636F6E666967206973206E6F7420646FB5
:100570006E650D0A00726561642066726F6D20738E
:100580007461747573207265676973746572203164
:100590000D0A0073746174757320726567697374F2
:1005A00065722031203D203078253032780D0A00E8
:1005B000726561642066726F6D2073746174757307
:1005C00020726567697374657220320D0A00737456
:1005D0006174757320726567697374657220322067
:1005E0003D203078253032780D0A00726561642034
:1005F00066726F6D20766964656F207374616E64D6
:100600006172642072656769737465720D0A0076A1
:100610006964656F207374616E64617264207265D1
:10062000676973746572203D203078253032780D0B
:100630000A003078253278203078253278003078FA
:10064000253278007265736574696E672054565060
:100650000D0A0025640073657474696E6720545632
:1006600050206F6E0D0A0073657474696E672054B4
:100670005650206F66660D0A007265736574696E68
:1006800067204144560D0A00414456373631312027
:100690007265766973696F6E20683A3078253032FA
:1006A00078206C3A3078253032780D0A0048444D75
:1006B00049206361626C6520646574656374656478
:1006C0002073746174653A203078253032780D0AD1
:1006D000003078253278203078253278003078253F
:1006E00032780025640064697361626C696E67200A
:1006F000465047410D0A00656E61626C696E672065
:10070000465047410D0A0025640073657474696E94
:1007100067204E54534320617320766964656F20CF
:100720007374616E646172640073657474696E677A
:100730002050414C20617320766964656F2073748A
:10074000616E6461726400256400436F6C6F722097
:100750006368616E6E656C20636F6E766572736937
:100760006F6E2061637469766974793A2025640D2F
:100770000A005369676E616C207374617475733A13
:100780002025640D0A004272696768746E65737390
:100790002076616C75653A2030782532780D0A0034
:1007A0004D6178696D756D2052474220636F6D70A1
:1007B0006F6E656E742076616C7565733A20307863
:1007C0002530327820307825303278203078253046
:1007D00032780D0A00524742206F666673657420B6
:1007E00076616C7565733A20307825303278203028
:1007F0007825303278203078253032780D0A005252
:1008000047422076616C756573206F6E206C6F7344
:1008100074207369676E616C3A20307825303278C5
:1008200020307825303278203078253032780D0A23
:10083000004C6F775061737320432076616C75654F
:100840003A20307825303278203078253032780DD3
:100850000A00465047412059436243722073696D34
:10086000756C6174696F6E3A2025640A00307825D2
:100870003278203078253278203078253278004D53
:100880006178696D756D2052474220636F6D706F9E
:100890006E656E742076616C7565733A20307825CC
:1008A0003032782030782530327820307825303258
:1008B000780D0A003078253278203078253278207B
:1008C000307825327800524742206F66667365742F
:1008D0002076616C7565733A203078253032782047
:1008E000307825303278203078253032780D0A0083
:1008F00030782532782030782532782030782532CB
:1009000078005247422076616C756573206F6E20C7
:100910006C6F7374207369676E616C3A2030782550
:1009200030327820307825303278203078253032D7
:10093000780D0A003078253278004E657720627293
:10094000696768746E6573732069733A203078251F
:100950003032780D0A003078253278203078253210
:1009600078004E6577206C6F772070617373206616
:10097000696C74657220432069733A2030782530A1
:100980003278203078253032780D0A002564005303
:1009900074617274696E67206C6F6F7020746F2061
:1009A000656E61626C652F64697361626C65204479
:1009B00053505F494E5F5357207369676E616C0DEA
:1009C0000A00536574204453505F494E5F535720CB
:1009D000686967680D0A00536574204453505F4985
:1009E0004E5F5357206C6F770D0A003078253278B0
:1009F00020307825327820307825327820307825DC
:100A000032780025640046504741205943624372C2
:100A10002073696D756C6174696F6E20656E6162BB
:100A20006C65640A00465047412059436243722076
:100A300073696D756C6174696F6E2064697361624E
:100A40006C65640A0053504920666C6173682049E4
:100A5000443A20307825303278203078253032788A
:100A6000203078253032780D0A0025640041565236
:100A700020746F204650474120636F6E666967207F
:100A8000666C6173682061636365737320285350DB
:100A90004929207374617475733A2025640D0A0026
:100AA00041565220746F204650474120636F6E6656
:100AB000696720666C617368206163636573732086
:100AC0002853504929207374617475733A20256442
:100AD0000D0A0053657269616C20465047412066DB
:100AE0006C617368207374617475733A2030782573
:100AF000303278203078253032780D0A00256400B5
:100B000030782532782530327825303278003078C8
:100B10002532782530327825303278002563000878
:100B20002008000D0A3E000D0A00455252000D0A31
:100B3000003E0046494E4553543A200046494E4532
:100B4000523A200046494E453A2000494E464F3A17
:100B500020005741524E494E473A20004552524FCD
:100B6000523A20000046494E4553543A20007375CE
:100B7000636365656465640D0A006661696C65643C
:100B8000212054574920726573756C74203D2025CF
:100B9000640D0A0025640025640075736167653A79
:100BA0000D0A0D0A2D2D2D2041565220584D6567F6
:100BB00061202D2D2D0D0A09726176723A20526541
:100BC000736574207468652041565220584D6567DE
:100BD00061206D6963726F636F6E74726F6C6C65A8
:100BE000722E0D0A0972617672623A20526573653F
:100BF00074207468652041565220584D6567612005
:100C00006D6963726F636F6E74726F6C6C65722066
:100C1000616E64206A756D7020696E746F207468EF
:100C20006520626F6F746C6F616465722E0D0A0DC2
:100C30000A2D2D2D20436F6C6F722070726F6365CB
:100C40007373696E67202D2D2D0D0A097361733A38
:100C5000205365742074686520636F6C6F72206325
:100C600068616E6E656C2067656E65726174696F30
:100C70006E207374617475733A2031203D20616376
:100C8000746976653B2030203D20696E616374692C
:100C900076650D0A096761733A2047657420416DD6
:100CA00062696C69676874207374617475732E0D62
:100CB0000A0D0A2D2D2D2046504741202D2D2D0D9A
:100CC0000A0966706761723A205265736574207410
:100CD0006865204650474120286E436F6E666967FD
:100CE00020706F776572206379636C65290D0A093E
:100CF000667067616364733A204765742074686541
:100D000020434F4E465F444F4E45207369676E61E6
:100D10006C207374617475732E0D0A0D0A2D2D2DC0
:100D20002054565035313436202D2D2D0D0A09749E
:100D300076707077723A20526571756972657320AA
:100D40006120706172616D657465723A20303D7426
:100D500075726E20545650206F66662C20313D749B
:100D600075726E206974206F6E2E0D0A097274768A
:100D7000703A20526573657420746865205456502B
:100D80002E0D0A09697476703A20496E697469619A
:100D90006C697A6520746865205456502E0D0A09D6
:100DA00067747670733A20476574205456502073E8
:100DB00074617475732E205072696E7473206F7530
:100DC0007420746865205456502073746174757370
:100DD00020746F20746865207474792E0D0A09746C
:100DE00076706E693A2053776974636820746F2057
:100DF0006E6578742054565020696E7075742E207C
:100E0000537769746368657320746F206E657874B6
:100E1000207369676E616C20696E707574206368F9
:100E2000616E6E656C2E0D0A096774767072763A83
:100E3000205072696E7473206F7574207468652019
:100E400054565020524F4D2076657273696F6E2054
:100E50006E756D6265722E0D0A0967747670723A4E
:100E60002047657420545650207265676973746515
:100E7000722E2052657175697265732061207265EA
:100E8000676973746572206164647265737320614D
:100E900073206120706172616D6574657220616E8E
:100EA00064207072696E7473206F75742074686545
:100EB000207265676973746572732076616C7565FD
:100EC000206173206865782E0D0A0973747670723C
:100ED0003A205365742054565020726567697374C4
:100EE00065722E205265717569726573206120727A
:100EF00065676973746572206164647265737320D9
:100F0000616E64207468652076616C756520746F0D
:100F1000207361766520696E746F20746865206740
:100F20006976656E20726567697374657220617396
:100F3000206865782E0D0A0D0A2D2D2D204144566E
:100F400037363131202D2D2D0D0A09726164763A24
:100F500020526573657420746865204144563736A5
:100F600031310D0A09696164763A20496E6974204D
:100F700074686520414456373631310D0A0967617E
:100F80006476733A2047657420746865204144563E
:100F900037363131207374617475730D0A096761D6
:100FA0006476723A20476574204144562072656722
:100FB00069737465722076616C75652E2052656761
:100FC0006973746572206164647265737320617300
:100FD0002030784E4E206973207265717569726594
:100FE000642E0D0A0973616476723A205365742089
:100FF000612073706563696669632041445620729D
:10100000656769737465722E2052656769737465CC
:101010007220616464726573732061732030784E4E
:101020004E20616E642076616C756520617320309E
:10103000784E4E2069732072657175697265642EF1
:101040000D0A0D0A2D2D2D20436F6C6F72207072CA
:101050006F63657373696E672073657474696E6717
:1010600073202D2D2D0D0A09736D7267623A20537E
:101070006574206D6178696D756D205247422076E8
:10108000616C75657320666F722074686520726587
:10109000636F676E697A656420636F6C6F7220633B
:1010A0006F6D706F6E656E74732E20526571756909
:1010B000726573207468726565206865786164651F
:1010C00063696D616C20706172616D657465722E0B
:1010D0000D0A09736F7267623A20536574206120AC
:1010E0006F66667365742076616C756573207768CA
:1010F0006963682077696C6C20626520616464654F
:101100006420746F20746865207265636F676E6910
:101110007A656420636F6C6F722076616C7565739D
:101120002E205265717569726573207468726565E9
:101130002068657861646563696D616C20706172B7
:10114000616D657465722E0D0A09736E6372676254
:101150003A205365742052474220636F6C6F7220AF
:1011600077686963682069732073686F776E206998
:1011700066206E6F20696E707574207369676E618A
:101180006C20697320636F6E6E65637465642E20D6
:10119000526571756972657320746872656520683F
:1011A000657861646563696D616C20706172616D01
:1011B000657465722E0D0A09736272693A2053656F
:1011C0007420746865206F7574707574206272691C
:1011D0006768746E6573732E2052657175697265E8
:1011E00073207468726565206865786164656369F9
:1011F0006D616C20706172616D657465722E0D0A8F
:1012000009736C70633A2053657420746865204CD0
:101210006F77506173732066696C74657220632DFB
:1012200076616C75652E0D0A0D0A2D2D2D205350FB
:101230004920465047412073657269616C20666C95
:1012400061736820616363657373202D2D2D0D0A12
:1012500009736673613A20456E61626C652F64693B
:101260007361626C652041565220666C6173682020
:101270006163636573732028313D656E61626C65DF
:10128000642F303D64697361626C6564292E0D0AB8
:1012900009736667693A204765742074686520732E
:1012A000657269616C20666C6173682049442069CD
:1012B0006E666F726D6174696F6E2E0D0A097366CA
:1012C00067733A2047657420746865207365726996
:1012D000616C20666C61736820737461747573202F
:1012E000696E666F726D6174696F6E2E0D0A097397
:1012F0006662653A2053504920666C6173682062CB
:10130000756C6B2065726173652E0D0A09736673C7
:10131000653A2053504920666C6173682073656399
:10132000746F7220657261736520666F72206F6ED4
:101330006520736563746F722028616464726573DD
:1013400073206C696B652030783031303230332057
:101350007265717569726564292E0D0A0973666577
:1013600074733A2053504920666C6173682073652A
:1013700063746F7220657261736520666F72206D91
:10138000756C7469706C6520736563746F7273201B
:101390002861646472657373206F66206C61737476
:1013A00020736563746F72206C696B6520307830D0
:1013B0003730303030207265717569726564292E5E
:1013C0000D0A09736677653A2053504920666C61AF
:1013D000736820777269746520656E61626C652040
:1013E00028313D656E61626C65642F303D646973C0
:1013F00061626C6564292E0D0A0973667466633A2E
:1014000020456E61626C65204650474120666C61E4
:10141000736820636F6E74656E74207472616E738E
:10142000666572206D6F64652028465047412063D1
:101430006F6E66696720666C6173682061636365BF
:101440007373290D0A0D0A2D2D2D20545459206631
:10145000756E6374696F6E616C697479202D2D2DC2
:101460000D0A09747479653A2044697361626C6588
:10147000732F456E61626C657320746865207474A7
:1014800079206563686F2E0D0A097474796C6C3A63
:101490002052657175697265732061207061726197
:1014A0006D657465722028302E2E323535292077EF
:1014B0006869636820726570726573656E74732005
:1014C0007468652074747920766572626F736974CC
:1014D000792E0D0A0909202030202D2046494E453D
:1014E00053540D0A0909202031202D2046494E452C
:1014F000520D0A0909202032202D2046494E450D63
:101500000A0909202033202D20494E464F0D0A0993
:1015100009202034202D205741524E494E470D0AB4
:101520000909202035202D204552524F520D0A091D
:1015300009323535202D204E4F4E452F4D6F6E69A7
:10154000746F72206D6F64650D0A0D0A2D2D2D20AC
:101550004932432074657374696E67202D2D2D0DFB
:101560000A0967747769723A20416464726573731B
:101570002061732030784E4E20616E642072656762
:1015800069737465722061732030784E4E0D0A09BC
:1015900073747769723A2041646472657373206171
:1015A000732030784E4E20616E64207265676973D7
:1015B0007465722061732030784E4E20616E642015
:1015C00076616C75652061732030784E4E0D0A0D82
:1015D0000A2D2D2D204F7468657220746573747206
:1015E0006F7574696E6573202D2D2D0D0A09736654
:1015F00079643A20456E61626C652F64697361623B
:101600006C652073696D756C6174696F6E206F66AF
:1016100020465047412059436243722064617461FF
:101620000D0A097673746F703A205265717569728C
:1016300065732061206C6F676963616C2076616CF3
:1016400075653A20313D766964656F207363616C1E
:10165000696E672064697361626C65643B20303D2C
:10166000766964656F7363616C696E6720656E612E
:10167000626C65640D0A09767374643A2052657170
:1016800075697265732061206C6F676963616C2096
:1016900076616C75653A20313D766964656F2073BB
:1016A0007464206973204E5453433B20303D766967
:1016B00064656F207374642069732050414C0D0A77
:1016C000097773323831317267623A2053656E643C
:1016D000206120636F6C6F7220746F206F6E6520C5
:1016E0006F7220616C6C20777332383131204C4539
:1016F00044732E2052657175697265732074686534
:101700002077733238313120616464726573732CD1
:1017100020746865207265642C20677265656E2090
:10172000616E6420626C75652077616C75657320ED
:10173000617320686578202830784E4E292E0D0A76
:10174000097364737073773A20536574204453505F
:101750005F494E5F5357207369676E616C207374E5
:101760006174652028313D6F6E3B323D6F66663B8C
:101770003235353D6D756C7469706C65206C6F6FBA
:1017800070290D0A0D0A0073656E64696E6720305A
:10179000782530327820746F2072656769737465BC
:1017A00072203078253032780D0A007265676973CF
:1017B00074657220307825303278203D20307825CD
:1017C0003032780D0A00726561642066726F6D2098
:1017D000524F4D2076657273696F6E20726567692E
:1017E000737465720D0A00524F4D207665727369ED
:1017F0006F6E206973203078253032780D0A0073BF
:10180000656E64696E672030782530327820746F99
:10181000207265676973746572203078253032787C
:101820000D0A00726567697374657220307825301F
:101830003278203D203078253032780D0A0044651A
:10184000763A2030782530327820416464723A202C
:1018500030782530327820427974653A2030782506
:101860003032780D0A004465763A203078253032DF
:101870007820416464723A203078253032782042F2
:101880007974653A2030782530327820213D203037
:1018900078253032780D0A0000FFFFFFFFFFFF00C0
:1018A000068F07110100000017110103800C097851
:1018B0000A1EAC985956852829525700000001018C
:1018C00001010101010101010101010101018C0A74
:1018D000D08A20E02D10103E960081600000001894
:1018E000011D8018711C1620582C2500814900000C
:1018F000009E000000FC0056412D31383039410A6D
:1019000020202020000000FD00173D0D2E11000AB0
:10191000202020202020011C020334714D82050468
:1019200001101114131F06150312350F7F07171F1F
:10193000381F07302F07723F7F72577F00377F7243
:10194000834F000067030C001000882D000000FF8B
:10195000000A2020202020202020202020200000FD
:1019600000FF000A202020202020202020202020EE
:10197000000000FF000A202020202020202020201E
:101980002020000000000000000000000000000017
:1019900000000000000000DA4465763A2030782527
:1019A00030327820416464723A20307825303278C1
:1019B00020427974653A203078253032780D0A005B
:1019C0004465763A2030782530327820416464725C
:1019D0003A2030782530327820427974653A2030C8
:1019E000782530327820213D203078253032780D2E
:1019F0000A004465763A20307825303278204164F8
:101A000064723A2030782530327820427974653A11
:101A1000203078253032780D0A004465763A20303F
:101A2000782530327820416464723A20307825304D
:101A3000327820427974653A203078253032782027
:101A4000213D203078253032780D0A0053656E64D0
:101A500020707265204544494420636F6E66696753
:101A600075726174696F6E20746F207468652041AF
:101A70004456373631310D0A0098F48098F57C9839
:101A8000F84C98F96498FA6C98FB6898FD44980BA8
:101A900044980C42446C00689B03686F0868851F7B
:101AA0006887706857DA685801680398684C44641E
:101AB00077009801069802F5980340980528980B3E
:101AC00044980C4298147F9815809819839820F8B0
:101AD00098334044BA01644081689B0368C101683F
:101AE000C20168C30168C40168C50168C60168C74E
:101AF0000168C80168C90168CA0168CB0168CC01E6
:101B00006800006883FE686F0C68851F68877068CE
:101B10008D04688E1E681A8A6857DA68580168034F
:101B20009868751064770064522064530064709E56
:101B300000000053656E64204544494420636F6E85
:101B400066696775726174696F6E20746F2074685E
:101B50006520414456373631310D0A0053656E64B5
:101B600020706F7374204544494420636F6E66692A
:101B70006775726174696F6E20746F207468652078
:101B8000414456373631310D0A00647701000000B8
:101B90006364696E6F70737578585B0011241FBEA3
:101BA000CFEFDFE5DEBFCDBF00E00CBF12E2A0E06B
:101BB000B0E2ECE1FBEA00E00BBF02C007900D923F
:101BC000AE36B107D9F71DE3AEE6B2E201C01D9211
:101BD000A139B107E1F70E9456180C94784E0C9485
:101BE00000000F931F93E091882EDC01EC9380910D
:101BF000892EFB01808380917B22DA018C93809176
:101C0000B828F901808380917A22D8018C931F91A2
:101C10000F9108954091882E6AE080E00E942E1A6C
:101C200040917B226CE080E00E942E1A4091892E28
:101C30006BE080E00E942E1A4091B8286DE080E0B1
:101C40000E942E1A40917A226EE080E00E942E1AA5
:101C50000C94171AA1E0B0E0E0E3FEE00C946355A9
:101C60000E94171A8091CC01877F8093CC0166E097
:101C700080E00E94EA198093BA2867E080E00E9421
:101C8000EA198093402968E080E00E94EA19809375
:101C90008B2E60E080E00E94EA1980931E3461E0A0
:101CA00080E00E94EA1980938C2E62E080E00E941E
:101CB000EA198093B92863E080E00E94EA198093D2
:101CC000822E64E080E00E94EA198093BB2865E0E0
:101CD00080E00E94EA198093BE2869E080E00E94BB
:101CE000EA1980931C2F6AE080E00E94EA19809331
:101CF000882E6BE080E00E94EA198093892E6CE0C8
:101D000080E00E94EA1980937B226DE080E00E94CF
:101D1000EA198093B8286EE080E00E94EA19809367
:101D20007A225091882E8091892E40917B22309189
:101D3000B82820917A2290E0850F911D840F911D83
:101D4000830F911D820F911D809341299093422909
:101D50008091882E813408F03FC18091892E813690
:101D600008F03AC180917B22813408F035C180911E
:101D7000B828813308F030C180917A228133C0F1D4
:101D80002BC1AD2CB12CCE2CC394C3946F2D8C2DB4
:101D90000E94EA19082F10E0AA0CBB1C80EC98E204
:101DA000A80EB91EF501008311836F2D6F5F8C2D76
:101DB0000E94EA19282F30E0322F2227200F311FEE
:101DC0002039F1E03F0720F4F5012083318305C07D
:101DD0008BEB90E0F50180839183D394F394F3949B
:101DE000F0E2FF12CECFE39484E0E81203C03CC0DF
:101DF000E12CD12CF12CC5CFAE2CB12CB6E0DB2ED2
:101E0000D40E6F2D8D2D49830E94EA19082F10E002
:101E1000AA0CBB1CE3EEF2E2AE0EBF1EF50100837E
:101E200011836F2D6F5F8D2D0E94EA19282F30E0EE
:101E3000322F2227200F311F49812039F1E03F073F
:101E400020F4F5012083318305C08BEB90E0F50190
:101E500080839183E394F394F394F0E2FF12CCCF68
:101E60004F5F463019F43CC040E0E12CF12CC4CF68
:101E7000AE2CB12CECE0DE2ED40E6F2D8D2D4983CF
:101E80000E94EA19082F10E0AA0CBB1C8DE89EE204
:101E9000A80EB91EF501008311836F2D6F5F8D2D84
:101EA0000E94EA19282F30E0322F2227200F311FFD
:101EB00049812039F1E03F0720F4F5012083318387
:101EC00005C08BEB90E0F50180839183E394F3945C
:101ED000F394F0E2FF12CCCF4F5F443019F43CC0D2
:101EE00040E0E12CF12CC4CFAE2CB12C50E1D52E2A
:101EF000D40E6F2D8D2D49830E94EA19082F10E012
:101F0000AA0CBB1C88E09EE2A80EB91EF501008356
:101F100011836F2D6F5F8D2D0E94EA19282F30E0FD
:101F2000322F2227200F311F49812039F1E03F074E
:101F300020F4F5012083318305C08BEB90E0F5019F
:101F400080839183E394F394F394F0E2FF12CCCF77
:101F50004F5F423019F43CC040E0E12CF12CC4CF7B
:101F6000AE2CB12C23E1D22ED40E6F2D8D2D4983B2
:101F70000E94EA19082F10E0AA0CBB1C8DE792E220
:101F8000A80EB91EF501008311836F2D6F5F8D2D93
:101F90000E94EA19282F30E0322F2227200F311F0C
:101FA00049812039F1E03F0720F4F5012083318396
:101FB00005C08BEB90E0F50180839183E394F3946B
:101FC000F394F0E2FF12CCCF4F5F423019F414C00B
:101FD00040E0E12CF12CC4CF81E08093882E8093E7
:101FE000892E80937B228093B82880937A2201E007
:101FF00021E041E061E00EDE6FE080E00E94EA193E
:10200000082F10E00093BC281093BD2860E180E009
:102010000E94EA19282F30E0322F2227200F311F8B
:102020002093BC283093BD2861E180E00E94EA192A
:102030008093BF2862E180E00E94EA19082F10E037
:102040000093DD221093DE2263E180E00E94EA1912
:10205000282F30E0322F2227200F311F2093DD223E
:102060003093DE226091BA2870E080E090E00E9418
:10207000214D20E030E048EC52E40E94154E20E073
:1020800030E04FE753E40E94864C20E030E048EC1B
:1020900052E40E94864C6093B3237093B4238093E0
:1020A000B5239093B6236091402970E080E090E0E2
:1020B0000E94214D20E030E048EC52E40E94154E91
:1020C00020E030E04FE753E40E94864C20E030E00F
:1020D00048EC52E40E94864C6093DF227093E02229
:1020E0008093E1229093E22260918B2E70E080E059
:1020F00090E00E94214D20E030E048EC52E40E9444
:10210000154E20E030E04FE753E40E94864C20E07B
:1021100030E048EC52E40E94864C60930D2F70939F
:102120000E2F80930F2F9093102F60911C2F70E033
:1021300080E090E00E94214D20E030E040E850E453
:102140000E94154E20E030E04FE753E40E94864C99
:102150006093842E7093852E8093862E9093872E85
:102160006091BC287091BD2880E090E00E941F4DD6
:1021700020E03FEF4FE757E40E94864C6093182F12
:102180007093192F80931A2F90931B2F2196EAE0BA
:102190000C947C551F93CF93DF930E946C397894F5
:1021A0000E942E230E9466370E9467380E94F939E8
:1021B000C0E8D6E08C818F7E8C838C818F7D8C8370
:1021C0000E94591B2FEF81EE94E0215080409040F7
:1021D000E1F700C0000010E21F830E94D3381F8384
:1021E0000E94173A1F831F830E9446391F830E9453
:1021F0005A391F8381E08093112F1092122F8C8106
:1022000080628C83DF91CF911F910895E7C5F9011A
:10221000EE0FFF1FEE0FFF1FDF01A35EB04D139601
:102220009C911397981718F49F5F13969C93DF0166
:10223000A35EB04D13969C911397891718F4915093
:1022400013969C93DF01A15EBB4C13969C91139750
:10225000961718F49F5F13969C93DF01A15EBB4C09
:1022600013969C911397691718F4915013969C93A9
:10227000DF01A854BC4D13969C911397941718F442
:102280009F5F13969C93E854FC4D9381491710F47B
:10229000915093832F5F3F4F02C020E030E0E091E8
:1022A0004129F09142292E173F0708F4B0CF9091B1
:1022B00004069E7F90930406E7E9F1E03197F1F779
:1022C00000C0000090E075C5220F331F220F331F9E
:1022D000F901E15EFB4C538157FF18C05091040691
:1022E00051605093040600140014001400140014EC
:1022F000001400140014001400140014001400143E
:10230000509104065E7F5093040617C05091040656
:1023100051605093040600140014001400140014BB
:10232000509104065E7F50930406001400140014BC
:1023300000140014001400140014001400140014FD
:1023400000140014F901E15EFB4C538156FF18C0E4
:1023500050910406516050930406001400140014B8
:1023600000140014001400140014001400140014CD
:1023700000140014509104065E7F5093040617C0A9
:102380005091040651605093040600140014001488
:1023900000140014509104065E7F5093040600144C
:1023A000001400140014001400140014001400148D
:1023B0000014001400140014F901E15EFB4C538179
:1023C00055FF18C050910406516050930406001444
:1023D000001400140014001400140014001400145D
:1023E0000014001400140014509104065E7F5093F2
:1023F000040617C05091040651605093040600145F
:102400000014001400140014509104065E7F5093D1
:102410000406001400140014001400140014001426
:10242000001400140014001400140014F901E15EFB
:10243000FB4C538154FF18C05091040651605093D7
:1024400004060014001400140014001400140014F6
:102450000014001400140014001400145091040619
:102460005E7F5093040617C050910406516050934C
:102470000406001400140014001400145091040603
:102480005E7F50930406001400140014001400141E
:10249000001400140014001400140014001400149C
:1024A000F901E15EFB4C538153FF18C050910406C3
:1024B000516050930406001400140014001400141A
:1024C000001400140014001400140014001400146C
:1024D000509104065E7F5093040617C05091040685
:1024E00051605093040600140014001400140014EA
:1024F000509104065E7F50930406001400140014EB
:10250000001400140014001400140014001400142B
:1025100000140014F901E15EFB4C538152FF18C016
:1025200050910406516050930406001400140014E6
:1025300000140014001400140014001400140014FB
:1025400000140014509104065E7F5093040617C0D7
:1025500050910406516050930406001400140014B6
:1025600000140014509104065E7F5093040600147A
:1025700000140014001400140014001400140014BB
:102580000014001400140014F901E15EFB4C5381A7
:1025900051FF18C050910406516050930406001476
:1025A000001400140014001400140014001400148B
:1025B0000014001400140014509104065E7F509320
:1025C000040617C05091040651605093040600148D
:1025D0000014001400140014509104065E7F509300
:1025E0000406001400140014001400140014001455
:1025F000001400140014001400140014F901E15E2A
:10260000FB4C538150FF18C0509104065160509309
:102610000406001400140014001400140014001424
:102620000014001400140014001400145091040647
:102630005E7F5093040617C050910406516050937A
:102640000406001400140014001400145091040631
:102650005E7F50930406001400140014001400144C
:1026600000140014001400140014001400140014CA
:10267000F901E35EF04D538157FF18C050910406F5
:102680005160509304060014001400140014001448
:10269000001400140014001400140014001400149A
:1026A000509104065E7F5093040617C050910406B3
:1026B0005160509304060014001400140014001418
:1026C000509104065E7F5093040600140014001419
:1026D000001400140014001400140014001400145A
:1026E00000140014F901E35EF04D538156FF18C049
:1026F0005091040651605093040600140014001415
:102700000014001400140014001400140014001429
:1027100000140014509104065E7F5093040617C005
:1027200050910406516050930406001400140014E4
:1027300000140014509104065E7F509304060014A8
:1027400000140014001400140014001400140014E9
:102750000014001400140014F901E35EF04D5381DD
:1027600055FF18C0509104065160509304060014A0
:1027700000140014001400140014001400140014B9
:102780000014001400140014509104065E7F50934E
:10279000040617C0509104065160509304060014BB
:1027A0000014001400140014509104065E7F50932E
:1027B0000406001400140014001400140014001483
:1027C000001400140014001400140014F901E35E56
:1027D000F04D538154FF18C050910406516050933E
:1027E0000406001400140014001400140014001453
:1027F0000014001400140014001400145091040676
:102800005E7F5093040617C05091040651605093A8
:10281000040600140014001400140014509104065F
:102820005E7F50930406001400140014001400147A
:1028300000140014001400140014001400140014F8
:10284000F901E35EF04D538153FF18C05091040627
:102850005160509304060014001400140014001476
:1028600000140014001400140014001400140014C8
:10287000509104065E7F5093040617C050910406E1
:102880005160509304060014001400140014001446
:10289000509104065E7F5093040600140014001447
:1028A0000014001400140014001400140014001488
:1028B00000140014F901E35EF04D538152FF18C07B
:1028C0005091040651605093040600140014001443
:1028D0000014001400140014001400140014001458
:1028E00000140014509104065E7F5093040617C034
:1028F0005091040651605093040600140014001413
:1029000000140014509104065E7F509304060014D6
:102910000014001400140014001400140014001417
:102920000014001400140014F901E35EF04D53810B
:1029300051FF18C0509104065160509304060014D2
:1029400000140014001400140014001400140014E7
:102950000014001400140014509104065E7F50937C
:10296000040617C0509104065160509304060014E9
:102970000014001400140014509104065E7F50935C
:1029800004060014001400140014001400140014B1
:10299000001400140014001400140014F901E35E84
:1029A000F04D538150FF18C0509104065160509370
:1029B0000406001400140014001400140014001481
:1029C00000140014001400140014001450910406A4
:1029D0005E7F5093040617C05091040651605093D7
:1029E000040600140014001400140014509104068E
:1029F0005E7F5093040600140014001400140014A9
:102A00000014001400140014001400140014001426
:102A1000F901E854FC4D538157FF18C0509104064A
:102A200051605093040600140014001400140014A4
:102A300000140014001400140014001400140014F6
:102A4000509104065E7F5093040617C0509104060F
:102A50005160509304060014001400140014001474
:102A6000509104065E7F5093040600140014001475
:102A700000140014001400140014001400140014B6
:102A800000140014F901E854FC4D538156FF18C09E
:102A90005091040651605093040600140014001471
:102AA0000014001400140014001400140014001486
:102AB00000140014509104065E7F5093040617C062
:102AC0005091040651605093040600140014001441
:102AD00000140014509104065E7F50930406001405
:102AE0000014001400140014001400140014001446
:102AF0000014001400140014F901E854FC4D538133
:102B000055FF18C0509104065160509304060014FC
:102B10000014001400140014001400140014001415
:102B20000014001400140014509104065E7F5093AA
:102B3000040617C050910406516050930406001417
:102B40000014001400140014509104065E7F50938A
:102B500004060014001400140014001400140014DF
:102B6000001400140014001400140014F901E854B7
:102B7000FC4D538154FF18C050910406516050938E
:102B800004060014001400140014001400140014AF
:102B900000140014001400140014001450910406D2
:102BA0005E7F5093040617C0509104065160509305
:102BB00004060014001400140014001450910406BC
:102BC0005E7F5093040600140014001400140014D7
:102BD0000014001400140014001400140014001455
:102BE000F901E854FC4D538153FF18C0509104067D
:102BF00051605093040600140014001400140014D3
:102C00000014001400140014001400140014001424
:102C1000509104065E7F5093040617C0509104063D
:102C200051605093040600140014001400140014A2
:102C3000509104065E7F50930406001400140014A3
:102C400000140014001400140014001400140014E4
:102C500000140014F901E854FC4D538152FF18C0D0
:102C6000509104065160509304060014001400149F
:102C700000140014001400140014001400140014B4
:102C800000140014509104065E7F5093040617C090
:102C9000509104065160509304060014001400146F
:102CA00000140014509104065E7F50930406001433
:102CB0000014001400140014001400140014001474
:102CC0000014001400140014F901E854FC4D538161
:102CD00051FF18C05091040651605093040600142F
:102CE0000014001400140014001400140014001444
:102CF0000014001400140014509104065E7F5093D9
:102D0000040617C050910406516050930406001445
:102D10000014001400140014509104065E7F5093B8
:102D2000040600140014001400140014001400140D
:102D3000001400140014001400140014F901E854E5
:102D4000FC4D238120FF18C02091040621602093B0
:102D500004060014001400140014001400140014DD
:102D60000014001400140014001400142091040630
:102D70002E7F2093040617C0209104062160209323
:102D8000040600140014001400140014209104061A
:102D90002E7F209304060014001400140014001465
:102DA0000014001400140014001400140014001483
:102DB0009F5F292F30E0E0914129F09142292E17A1
:102DC0003F0708F481CA909104069160909304062D
:102DD000EFEBFDE53197F1F700C000009091202F57
:102DE00098135BCA90912234961357CA9091BB23D3
:102DF000941353CA08954091BE286091BB288091D6
:102E0000822E04CA40E060E080E000CACF93DF93E6
:102E10000E9483328D3F19F4C0E0D0E009C00E94C7
:102E200083328F3FC9F30E9483328C3FC9F415C0AF
:102E3000FE01ED59F34D2081FE01ED52F54D40812B
:102E4000FE01ED5BF64D6081CE010E9408372196B0
:102E5000C03981E0D80761F7E6CFC0E0D0E01BC001
:102E60000E9483328D3FF1F4F8CFCE01880F991F75
:102E7000880F991FDC01A15EBB4CFC01E854FC4D9E
:102E8000835E904D13962C914381FC016381CE01AA
:102E90000E94373721968091412990914229C81785
:102EA000D90718F3DF91CF9108950F931F93CF9314
:102EB000DF9380917C22811103C081E080937C228A
:102EC00080917C22813009F0A4C0809100209091F3
:102ED000012001968093002090930120883E93402A
:102EE00009F097C080917322833061F4809174223D
:102EF0008F5F833019F08093742202C01092742285
:102F00001092732210917322012FC0E0D0E0CE0105
:102F100064E170E00E94475580E090E00E941F4D00
:102F20000E946F4C0E94F34C4C2F84E1689F401923
:102F30001124842F837049F4442339F08091742242
:102F4000823018F41F5F133079F0FE01ED5BF64D0F
:102F5000CE0180579E4F1130C1F030F09E01205EAF
:102F60003C4F123059F51DC0FE01ED5BF64D81E579
:102F70008083FE01ED52F54D8AE58083FE01ED5917
:102F8000F34D80EF808310E024C021E92083FC0111
:102F9000ED5BF64D26E32083FE01ED59F34D82E211
:102FA0000BC059E25083FC01ED5BF64D50EF5083AE
:102FB000F901ED5BF64D8EE680830BC05DE9508331
:102FC000FC01ED5BF64D50E85083F901ED5BF64DE9
:102FD0005083433181F4862F837049F4662339F09E
:102FE00080917422882319F00F5F033011F0102FA5
:102FF00002C000E010E02196C03921E0D20709F0BC
:1030000086CF809173228F5F8093732282E08093BA
:103010007C22DF91CF911F910F91089580917C22A6
:10302000813009F042C020E030E080E090E0409143
:10303000A40640644093A4064091A4064F7B4093AD
:10304000A40640916806509148064370413021F033
:103050005B5F423059F405C05F5FFC01ED5BF64DEC
:1030600003C0FC01ED52F54D508305C0FC01ED5944
:10307000F34D508301962F5F3F4F203B44E03407D0
:10308000B1F68091A4068F7B8093A4068091BD2A1F
:103090008093BE2A80914D2C80934E2C8091DD2D03
:1030A0008093DE2D82E080937C2208951092B223DB
:1030B00081E08093832E6ED80E942A0E0E94833274
:1030C0008E3F30F468EE71E08FEF0E946A2405C0F5
:1030D0008091A40680618093A4068091112F823094
:1030E00018F081E08093112F8091112F813009F029
:1030F0005AC080917022811114C08091240680FDF5
:1031000012C00E94FB39811102C00E94173A0E942E
:10311000073A0E94443B91E0811190E09093832E06
:1031200002C01092832E8091B223C091832E8130F1
:1031300061F4C1111AC01092B2238091A4068F7E4F
:103140008093A40610927C2210C081110EC0C13061
:1031500061F451DEC093B2238091A4068061809314
:10316000A4061092142F1092152F8091832E813077
:1031700089F480917122909172220196809371223C
:1031800090937222883E934070F0109271221092B8
:10319000722209C080917022811102C03FDF01C0FC
:1031A00084DE0E94DC3E8091122F823010F010925B
:1031B000122F8091122F8823C9F01092122F809124
:1031C000A40680618093A4060E94BC39811102C0CC
:1031D0000E94F93981E08093112F0E94FB398111FF
:1031E00003C00E94173A02C00E94123B8091112F27
:1031F0008130A9F48091832E813089F48091BF2899
:10320000882369F08091132F8C3348F01092132F8C
:103210000E94483B8091A40680618093A40680911F
:10322000112F882321F08091832E8130E9F42091A1
:10323000142F3091152F8091DD229091DE222817D6
:10324000390790F0DFDD1092142F1092152F809126
:10325000A40680618093A4068091BF28882321F072
:103260000E94013A0E94643B0E947E230E946937BB
:1032700034CF63E172E083E00E946A24C3DDD7D0DB
:103280002FEF83ED90E3215080409040E1F700C0A4
:103290000000E8E7F0E08FEF808388ED84BF81E0F5
:1032A000818308956CEE71E083E00E946A244AEA0B
:1032B00061E081E0D3D0DDCF1F920F920FB60F9265
:1032C00011248F939F939091BF288091112F992360
:1032D00041F0813031F48091132F8F5F8093132F51
:1032E00002C0882321F08091832E813081F4809167
:1032F000DD229091DE22892B51F08091142F909144
:10330000152F01968093142F9093152F04C01092BF
:10331000142F1092152F9F918F910F900FBE0F9029
:103320001F9018951F920F920FB60F9211248F9332
:1033300080917C22811103C081E080937C228F9157
:103340000F900FBE0F901F9018951F920F920FB6FF
:103350000F9211248F9381E08093122F8F910F9001
:103360000FBE0F901F9018950F93CF93DF931F926E
:10337000CDB7DEB72FB72983F8941BBEFC0108ED4B
:1033800004BF608389818FBF0F90DF91CF910F9130
:1033900008956F71682BE0E5F0E065830895682B70
:1033A00081E490E0E1CF1F93CF93DF93182FC0E427
:1033B000D0E06881687F682B80E490E0D5DF888169
:1033C0008123DF91CF911F9108958091CF0187FDD7
:1033D000FCCF0895A2E0B0E0E0EFF9E10C946B556A
:1033E0006A838983F2DF6A816F71898120E2829F1B
:1033F000C0011124862BE0ECF1E08083892F99270E
:103400008183128286E08287EF93FF930F932F933D
:10341000EBECF1E008ED21E004BF20832F910F9148
:10342000FF91EF9184812296E2E00C948455CDDFE8
:103430008091CF0181FF11C086E38093CA01EF9391
:10344000FF930F932F93EBECF1E008ED21E004BF25
:1034500020832F910F91FF91EF910895A3E0B0E0A9
:10346000E4E3FAE10C946B554B836A838983DFDFD5
:10347000E0ECF1E093E392876A816F71898120E249
:10348000829FC0011124862B8083892F99278183F5
:1034900012824B81448385E38287EF93FF930F93DE
:1034A0002F93EBECF1E008ED21E004BF20832F9196
:1034B0000F91FF91EF912396E2E00C948455FC016B
:1034C00081858C7F682B618742870895FC01818507
:1034D000837F682B618743870895EF920F93E02ADB
:1034E000442311F030E801C030E0E32A222311F038
:1034F00020E401C020E02E294FB7F8946093B0007B
:10350000FC01208B4FBF0F91EF900895FC01608369
:1035100071834863DB0111964C93A081B1811596AC
:103520002C930190F081E02D81E0848308950F9326
:10353000FC01293068F5093058F58789811128C0C8
:1035400081E0878B108E628330E00CC0832F90E087
:10355000DA01A80FB91F6C91DF01A80FB91F1396EC
:103560006C933F5F321790F3238B048B158A168A76
:103570008389882319F082818E7F05C084898823FE
:1035800049F0828181600190F081E02D868302C044
:1035900080E001C081E00F9108950F93042F20E097
:1035A00040E050E0C4DF0F9108950F9300E0BFDFCB
:1035B0000F910895FC01A081B18114968C9114970C
:1035C00082FF02C094E001C093E0908F886014965F
:1035D0008C93178A0895FC01608F178A0895CF9302
:1035E000DF93EC018E89E881F981883050F487817E
:1035F0009E89FE01E90FF11D83878E898F5F8E8B77
:1036000005C083E0838362E0CE01E5DF8C899E897B
:10361000E881F981981718F482E0838305C087E078
:10362000838361E0CE01D7DFDF91CF910895CF93FF
:10363000DF93FC0193898489A081B18114962C9138
:10364000149724FF07C083E013968C9385E0808F46
:10365000178A1CC02589291758F48589EF01C80FDE
:10366000D11D8B8117968C9385898F5F858B0EC0BA
:103670009689981728F48281816016968C9306C0EB
:1036800083E013968C9361E0CF01A5DFDF91CF91AA
:103690000895DC01ED91FC912481322F3C7009F0FA
:1036A00089CF26FF01C0C3CF27FF01C098CF66E0B6
:1036B00092CF1092213B1092223B10921F39109210
:1036C0002039E0EAFBE023E0258386EF868390EB58
:1036D00097838381806183838481886084838481EC
:1036E00080618483848184608483E0EBFAE02583B5
:1036F0008BE686839783838180618383848188605E
:103700008483848180618483848184608483E0EA0B
:10371000F0E082818160828308959091B10A95FFE3
:10372000FCCF8093B00A0895F8CF0895F6DF80E0CB
:1037300090E008959091A10B95FFFCCF8093A00B92
:103740000895F8CF08951F920F920FB60F9211248B
:103750000BB60F928F93EF93FF93E0912039EF5FB9
:1037600080911F39E81741F0E09320398091B00A29
:10377000F0E0E15EF64C8283FF91EF918F910F9024
:103780000BBE0F900FBE0F901F9018951F920F92B7
:103790000FB60F9211240BB60F928F93EF93FF93F6
:1037A000E091223BEF5F8091213BE81741F0E093ED
:1037B000223B8091A00BF0E0EF5DF44C8283FF91FF
:1037C000EF918F910F900BBE0F900FBE0F901F9037
:1037D0001895EF920F93CF93DF9382E0E82E00E0ED
:1037E00020E040E060EB80E696E077DEC0E6D6E0E1
:1037F00080EB8983E12C08E320E040E060E480E690
:1038000096E06BDE80E48A83DF91CF910F91EF9099
:103810000895EF920F93E12C08E220E040E060EF82
:1038200080E696E05ADE80EFE0E6F6E082830F91D4
:10383000EF90089590E820E820936606292F28232A
:1038400021F020E22093650603C020E22093660663
:1038500020E820936506969571F7089590E880E03A
:1038600020E820936606209365062091680626FDD1
:10387000892B9695A9F708958091553D886080938E
:10388000553D08958AE99BE09F938F930E94CD4E0A
:103890000F900F900895A2E0B0E0E1E5FCE10C94F8
:1038A0006B5519821A829E012F5F3F4F3F932F93D2
:1038B00027E93BE03F932F939F938F930E946C4F98
:1038C0000F900F900F900F900F900F90892B71F029
:1038D00089819A812091553D892B21F02460209384
:1038E000553D04C0822F8B7F8093553D2296E2E0A8
:1038F0000C948455A8E0B0E0E0E8FCE10C946B5532
:103900009E012F5F3F4F3F932F939E012D5F3F4FAF
:103910003F932F939E012B5F3F4F3F932F939E0129
:10392000295F3F4F3F932F932BEE39E03F932F9327
:103930009F938F930E946C4FCDBFDEBF892B09F4FC
:10394000CAC58F8198858F3F910509F515C0880FED
:10395000991F880F991FFC01E35EF04D2D81238391
:10396000FC01E15EFB4C2B812383FC01E854FC4D00
:10397000298123834F5F01C040E0842F90E0209194
:103980004129309142298217930708F313C0880F09
:10399000991F880F991FFC01E35EF04D2D81238351
:1039A000FC01E15EFB4C2B812383FC01E854FC4DC0
:1039B00029812383809104068E7F8093040687E902
:1039C00091E00197F1F700C0000040E075C5880F55
:1039D000991F880F991FFC01E15EFB4C238127FF93
:1039E00018C02091040621602093040600140014DE
:1039F0000014001400140014001400140014001427
:103A0000001400140014209104062E7F2093040655
:103A100017C02091040621602093040600140014AE
:103A2000001400140014209104062E7F2093040635
:103A300000140014001400140014001400140014E6
:103A400000140014001400140014FC01E15EFB4C8F
:103A5000238126FF18C020910406216020930406CC
:103A600000140014001400140014001400140014B6
:103A700000140014001400140014209104062E7F7A
:103A80002093040617C020910406216020930406A9
:103A900000140014001400140014209104062E7F5A
:103AA00020930406001400140014001400140014E1
:103AB0000014001400140014001400140014FC017D
:103AC000E15EFB4C238125FF18C020910406216094
:103AD00020930406001400140014001400140014B1
:103AE0000014001400140014001400140014209199
:103AF00004062E7F2093040617C02091040621603F
:103B000020930406001400140014001400142091E3
:103B100004062E7F209304060014001400140014E1
:103B200000140014001400140014001400140014F5
:103B30000014FC01E15EFB4C238124FF18C020919E
:103B400004062160209304060014001400140014DD
:103B500000140014001400140014001400140014C5
:103B60000014209104062E7F2093040617C0209194
:103B700004062160209304060014001400140014AD
:103B80000014209104062E7F2093040600140014D4
:103B90000014001400140014001400140014001485
:103BA000001400140014FC01E15EFB4C238123FF90
:103BB00018C020910406216020930406001400140C
:103BC0000014001400140014001400140014001455
:103BD000001400140014209104062E7F2093040684
:103BE00017C02091040621602093040600140014DD
:103BF000001400140014209104062E7F2093040664
:103C00000014001400140014001400140014001414
:103C100000140014001400140014FC01E15EFB4CBD
:103C2000238122FF18C020910406216020930406FE
:103C300000140014001400140014001400140014E4
:103C400000140014001400140014209104062E7FA8
:103C50002093040617C020910406216020930406D7
:103C600000140014001400140014209104062E7F88
:103C7000209304060014001400140014001400140F
:103C80000014001400140014001400140014FC01AB
:103C9000E15EFB4C238121FF18C0209104062160C6
:103CA00020930406001400140014001400140014DF
:103CB00000140014001400140014001400142091C7
:103CC00004062E7F2093040617C02091040621606D
:103CD0002093040600140014001400140014209112
:103CE00004062E7F20930406001400140014001410
:103CF0000014001400140014001400140014001424
:103D00000014FC01E15EFB4C238120FF18C02091D0
:103D1000040621602093040600140014001400140B
:103D200000140014001400140014001400140014F3
:103D30000014209104062E7F2093040617C02091C2
:103D400004062160209304060014001400140014DB
:103D50000014209104062E7F209304060014001402
:103D600000140014001400140014001400140014B3
:103D7000001400140014FC01E35EF04D238127FFC2
:103D800018C020910406216020930406001400143A
:103D90000014001400140014001400140014001483
:103DA000001400140014209104062E7F20930406B2
:103DB00017C020910406216020930406001400140B
:103DC000001400140014209104062E7F2093040692
:103DD0000014001400140014001400140014001443
:103DE00000140014001400140014FC01E35EF04DF4
:103DF000238126FF18C02091040621602093040629
:103E00000014001400140014001400140014001412
:103E100000140014001400140014209104062E7FD6
:103E20002093040617C02091040621602093040605
:103E300000140014001400140014209104062E7FB6
:103E4000209304060014001400140014001400143D
:103E50000014001400140014001400140014FC01D9
:103E6000E35EF04D238125FF18C0209104062160F8
:103E7000209304060014001400140014001400140D
:103E800000140014001400140014001400142091F5
:103E900004062E7F2093040617C02091040621609B
:103EA0002093040600140014001400140014209140
:103EB00004062E7F2093040600140014001400143E
:103EC0000014001400140014001400140014001452
:103ED0000014FC01E35EF04D238124FF18C0209103
:103EE000040621602093040600140014001400143A
:103EF0000014001400140014001400140014001422
:103F00000014209104062E7F2093040617C02091F0
:103F10000406216020930406001400140014001409
:103F20000014209104062E7F209304060014001430
:103F300000140014001400140014001400140014E1
:103F4000001400140014FC01E35EF04D238123FFF4
:103F500018C0209104062160209304060014001468
:103F600000140014001400140014001400140014B1
:103F7000001400140014209104062E7F20930406E0
:103F800017C0209104062160209304060014001439
:103F9000001400140014209104062E7F20930406C0
:103FA0000014001400140014001400140014001471
:103FB00000140014001400140014FC01E35EF04D22
:103FC000238122FF18C0209104062160209304065B
:103FD0000014001400140014001400140014001441
:103FE00000140014001400140014209104062E7F05
:103FF0002093040617C02091040621602093040634
:1040000000140014001400140014209104062E7FE4
:10401000209304060014001400140014001400146B
:104020000014001400140014001400140014FC0107
:10403000E35EF04D238121FF18C02091040621602A
:10404000209304060014001400140014001400143B
:104050000014001400140014001400140014209123
:1040600004062E7F2093040617C0209104062160C9
:10407000209304060014001400140014001420916E
:1040800004062E7F2093040600140014001400146C
:104090000014001400140014001400140014001480
:1040A0000014FC01E35EF04D238120FF18C0209135
:1040B0000406216020930406001400140014001468
:1040C0000014001400140014001400140014001450
:1040D0000014209104062E7F2093040617C020911F
:1040E0000406216020930406001400140014001438
:1040F0000014209104062E7F20930406001400145F
:10410000001400140014001400140014001400140F
:10411000001400140014FC01E854FC4D238127FF17
:1041200018C0209104062160209304060014001496
:1041300000140014001400140014001400140014DF
:10414000001400140014209104062E7F209304060E
:1041500017C0209104062160209304060014001467
:10416000001400140014209104062E7F20930406EE
:10417000001400140014001400140014001400149F
:1041800000140014001400140014FC01E854FC4D49
:10419000238126FF18C02091040621602093040685
:1041A000001400140014001400140014001400146F
:1041B00000140014001400140014209104062E7F33
:1041C0002093040617C02091040621602093040662
:1041D00000140014001400140014209104062E7F13
:1041E000209304060014001400140014001400149A
:1041F0000014001400140014001400140014FC0136
:10420000E854FC4D238125FF18C02091040621604D
:104210002093040600140014001400140014001469
:104220000014001400140014001400140014209151
:1042300004062E7F2093040617C0209104062160F7
:10424000209304060014001400140014001420919C
:1042500004062E7F2093040600140014001400149A
:1042600000140014001400140014001400140014AE
:104270000014FC01E854FC4D238124FF18C0209158
:104280000406216020930406001400140014001496
:10429000001400140014001400140014001400147E
:1042A0000014209104062E7F2093040617C020914D
:1042B0000406216020930406001400140014001466
:1042C0000014209104062E7F20930406001400148D
:1042D000001400140014001400140014001400143E
:1042E000001400140014FC01E854FC4D238123FF4A
:1042F00018C02091040621602093040600140014C5
:10430000001400140014001400140014001400140D
:10431000001400140014209104062E7F209304063C
:1043200017C0209104062160209304060014001495
:10433000001400140014209104062E7F209304061C
:1043400000140014001400140014001400140014CD
:1043500000140014001400140014FC01E854FC4D77
:10436000238122FF18C020910406216020930406B7
:10437000001400140014001400140014001400149D
:1043800000140014001400140014209104062E7F61
:104390002093040617C02091040621602093040690
:1043A00000140014001400140014209104062E7F41
:1043B00020930406001400140014001400140014C8
:1043C0000014001400140014001400140014FC0164
:1043D000E854FC4D238121FF18C020910406216080
:1043E0002093040600140014001400140014001498
:1043F0000014001400140014001400140014209180
:1044000004062E7F2093040617C020910406216025
:1044100020930406001400140014001400142091CA
:1044200004062E7F209304060014001400140014C8
:1044300000140014001400140014001400140014DC
:104440000014FC01E854FC4D838180FF18C080916A
:104450000406816080930406001400140014001404
:1044600000140014001400140014001400140014AC
:104470000014809104068E7F8093040617C08091FB
:1044800004068160809304060014001400140014D4
:104490000014809104068E7F80930406001400149B
:1044A000001400140014001400140014001400146C
:1044B0000014001400144F5F842F90E020914129D4
:1044C000309142298217930708F481CA809104062B
:1044D0008160809304062896E2E00C948455A2E063
:1044E000B0E0E5E7F2E20C946B559E012F5F3F4F81
:1044F0003F932F9327E437E03F932F939F938F931E
:104500000E946C4F0F900F900F900F900F900F9094
:10451000892BA1F089819A81892B39F081E08093E0
:10452000112F8091A4068F7E07C01092112F0E9438
:10453000FB168091A40680618093A4062296E2E097
:104540000C948455A2E0B0E0E8EAF2E20C946B55DA
:104550009E012F5F3F4F3F932F932DED36E03F930A
:104560002F939F938F930E946C4F0F900F900F90FB
:104570000F900F900F90892B19F089810E94B53B05
:104580002296E2E00C948455A4E0B0E0EAECF2E27A
:104590000C946B559E012F5F3F4F3F932F939E01CD
:1045A0002D5F3F4F3F932F9321ED36E03F932F93A5
:1045B0009F938F930E946C4FCDBFDEBF892B21F05C
:1045C00069818B810E94833B2496E2E00C948455A0
:1045D000A2E0B0E0EEEEF2E20C946B559E012F5F8C
:1045E0003F4F3F932F932EE336E03F932F939F93BC
:1045F0008F930E946C4F0F900F900F900F900F9021
:104600000F90892B19F089810E94AC3A2296E2E042
:104610000C948455A4E0B0E0E0E1F3E20C946B5517
:104620009E012F5F3F4F3F932F939E012D5F3F4F82
:104630003F932F9322E336E03F932F939F938F93E3
:104640000E946C4FCDBFDEBF892B21F069818B8129
:104650000E947A3A2496E2E00C9484558091553D6C
:10466000877F8B7F8093553D8EEF8093573D82E00F
:1046700090E280938D3D90938E3D0895A0E0B0E050
:10468000E4E4F3E20C9464558C0168E170E20E946A
:104690008C4E7C01C3E2D2E0B12CFE013496C59071
:1046A000D490B601C7010E947A4E892B31F026962C
:1046B000B3948EE2B812F1CF1AC0FE01E590F490E7
:1046C0002296FE01859194918130910539F4C601BD
:1046D0000E94834E0196800F911F04C0892B39F4EC
:1046E00080E090E0F701199581E090E002C080E061
:1046F00090E0CDB7DEB7E9E00C947D55CF93E09123
:104700001F3980912039E81709F4B3C0EF5FE093B7
:104710001F39F0E0E15EF64CC281CC2309F4A9C058
:10472000CD3009F460C08091563D823308F0A1C0BD
:10473000CF3740F4C03250F4C93001F1CB3109F029
:104740004AC03DC0CF3709F046C022C08091553DD8
:1047500082FF0CC01F92CF938CE19BE09F938F93BD
:104760000E94CD4E0F900F900F900F908091563D6C
:10477000E82FF0E0ED5DF24CC08306C0E82FF0E0DA
:10478000ED5DF24C90E290838F5F8093563D23C0A5
:10479000882309F18091553D82FF1DC08FE19BE088
:1047A0009F938F930E94CD4E8091563DE82FF0E06D
:1047B000ED5DF24C108281508093563D0AC08823F3
:1047C00051F083E29BE09F938F930E94CD4E109215
:1047D000563D0F900F908091563D833308F449C0A9
:1047E0001092563D46C08091553D982F937009F028
:1047F00040C0E091563DF0E0ED5DF24C1082109229
:10480000563D82FF08C087E29BE09F938F930E94F2
:10481000CD4E0F900F9083E29DE330DF892B29F07E
:104820008091553D837029F50CC08091233D8823EC
:1048300041F08AE29BE09F938F930E94CD4E0F90B0
:104840000F908091553D82FF14C08091573D863076
:1048500080F48EE29BE09F938F930E94CD4E81E384
:104860009BE09F938F930E94CD4E0F900F900F90DF
:104870000F90CF9108959091573D891750F1833053
:1048800089F020F48130E9F050F406C0853081F0E1
:1048900060F08F3F99F40FC083E39BE014C084E481
:1048A0009BE011C08BE49BE00EC082E59BE00BC057
:1048B0008CE59BE008C084E69BE005C085E69BE0B4
:1048C00002C08CE39BE09F938F930E94CD4E0F908C
:1048D0000F9008951F93CF93DF93182FEB01CBDF39
:1048E0008091573D181730F0DF93CF930E94CD4E43
:1048F0000F900F90DF91CF911F910895A2E0B0E04B
:10490000E4E8F4E20C946B559E012F5F3F4F3F9318
:104910002F9323E03AE03F932F939F938F930E942E
:104920006C4F0F900F900F900F900F900F90892B5E
:1049300081F089819A818230910558F480937022A8
:10494000892B19F066E07AE002C065E27AE083E044
:10495000C1DF2296E2E00C948455A2E0B0E0E3EBE4
:10496000F4E20C946B559E012F5F3F4F3F932F93C2
:1049700027E037E03F932F939F938F930E946C4FD4
:104980000F900F900F900F900F900F90892BA9F020
:1049900089819A81892B41F08091A406806280935D
:1049A000A4066AE077E007C08091A4068F7D80931B
:1049B000A40669E277E083E08DDF2296E2E00C94C2
:1049C0008455A2E0B0E0E7EEF4E20C946B559E0152
:1049D0002F5F3F4F3F932F9323EE36E03F932F936C
:1049E0009F938F930E946C4F0F900F900F900F909A
:1049F0000F900F90892BA9F089819A81892B41F022
:104A00008091A40680618093A40666EE76E007C0DC
:104A10008091A4068F7E8093A40667EF76E083E002
:104A200059DF2296E2E00C94845569E776E083E052
:104A300051DFE0E2F6E084818B7F84838FE39CE9A1
:104A40000197F1F700C00000848184608483089599
:104A5000A2E0B0E0EEE2F5E20C946B559E012F5F10
:104A60003F4F3F932F9323E536E03F932F939F9340
:104A70008F930E946C4F0F900F900F900F900F909C
:104A80000F90892B71F089819A81019751F480915F
:104A900024068E7F8093240666E576E083E01ADFA5
:104AA00009C067E676E083E015DF80912406816027
:104AB000809324062296E2E00C94845564E476E028
:104AC00083E008DFE0E2F6E084818E7F84838481E6
:104AD0008D7F84838FE39FE10197F1F700C0000091
:104AE00084818260848308950E94BC39882319F0F0
:104AF00065E475E002C06BE575E083E0EBCE64E34E
:104B000075E083E0E7DE0C94C2391F93CF93DF9307
:104B1000182FEB01B0DE8091573D181730F0DF936E
:104B2000CF930E94B64E0F900F90DF91CF911F91BF
:104B300008956AE170E283E0E8DF0E94BF490E94C5
:104B4000FC4980FDFCCF60E370E28FEFDECFCF92B7
:104B5000DF92EF92FF92CF93DF9300D000D0CDB7DA
:104B6000DEB79E012F5F3F4F3F932F939E012D5F36
:104B70003F4F3F932F939E012B5F3F4F3F932F93C8
:104B80002EE03BE03F932F939F938F930E944F4FD4
:104B9000CDBFDEBF892BD1F0CB80DC80DC2CCC24D8
:104BA00089819A81C80ED91EE12CF12C6AE870E245
:104BB00082E0ABDFC701B6010E94CF490E94FC49E9
:104BC00080FDFCCF62EA70E28FEF9FDF2696CDBFBB
:104BD000DEBFDF91CF91FF90EF90DF90CF900895EF
:104BE000CF92DF92EF92FF92CF93DF9300D000D06D
:104BF000CDB7DEB79E012F5F3F4F3F932F939E01AE
:104C00002D5F3F4F3F932F939E012B5F3F4F3F936D
:104C10002F9320E03BE03F932F939F938F930E942D
:104C20006C4FCDBFDEBF892BD1F0CB80DC80DC2C7C
:104C3000CC2489819A81C80ED91EE12CF12C66E022
:104C400071E282E062DFC701B6010E944A4A0E9417
:104C5000FC4980FDFCCF62EA70E28FEF56DF2696BA
:104C6000CDBFDEBFDF91CF91FF90EF90DF90CF906F
:104C70000895A2E0B0E0EFE3F6E20C946B551982E0
:104C80001A829E012F5F3F4F3F932F932DEF3AE003
:104C90003F932F939F938F930E946C4F0F900F9091
:104CA0000F900F900F900F90892B71F089819A814E
:104CB000892B19F467E271E202C062E471E283E0D9
:104CC00024DF89810E94384A2296E2E00C948455C0
:104CD000A2E3B0E0EEE6F6E20C9469550E94FC49CE
:104CE0009C0133273F932F93892F99279F938F936D
:104CF00083ED9AE09F938F938E010F5F1F4F1F9359
:104D00000F930E94254FB80183E0FFDECDBFDEBFC9
:104D1000E296E4E00C948255A4E3B0E0E2E9F6E226
:104D20000C9469559E012D5C3F4F3F932F932AE6CB
:104D30003AE03F932F939F938F930E946C4F0F9075
:104D40000F900F900F900F900F90892B99F18BA9D6
:104D50009CA981309105A1F41F9281E08F938DE68B
:104D60009AE09F938F938E010F5F1F4F1F930F93B6
:104D70000E94254FB80183E0C8DE0E94DB4814C0C2
:104D8000892BC1F41F921F9280EA9AE09F938F9320
:104D90008E010F5F1F4F1F930F930E94254FB80185
:104DA00083E0B3DE0E94E9480F900F900F900F90C0
:104DB0000F900F90E496E4E00C948255A2E3B0E0EB
:104DC000E4EEF6E20C9469550E94F8481F928F9326
:104DD0001F927F931F926F9385E49AE09F938F9326
:104DE0008E010F5F1F4F1F930F930E94254FB80135
:104DF00083E08BDECDBFDEBFE296E4E00C9482550B
:104E0000A2E0B0E0E6E0F7E20C946A5519821A825B
:104E10009E012F5F3F4F3F932F932CE839E03F9344
:104E20002F939F938F930E946C4F0F900F900F9032
:104E30000F900F900F90892B09F443C089819A81BC
:104E40008F3F910549F56FE879E080E043DD10E0A0
:104E50002FEF89E698E1215080409040E1F700C0B3
:104E600000008091A40681608093A4062FEF89E65C
:104E700098E1215080409040E1F700C0000080910F
:104E8000A4068E7F8093A4066EE270E28FEF3DDE73
:104E90001F5F1233E9F615C001978E3F910540F46C
:104EA00062EC79E080E016DD8091A406816007C0A5
:104EB00067ED79E080E00EDD8091A4068E7F80931F
:104EC000A4062296E3E00C948355A4E5B0E0EBE65B
:104ED000F7E20C9465557E0121E5E20EF11CFF928C
:104EE000EF928E010D5A1F4F1F930F9326E539E065
:104EF0003F932F939F938F930E946C4FCDBFDEBF44
:104F0000892B09F44AC0F70181818F9380818F93A7
:104F1000F80181818F9380818F9382E699E09F933E
:104F20008F93CC24C394D12CCC0EDD1EDF92CF9274
:104F30000E94254FB60183E0E8DDF70140815181F1
:104F4000F80180819181982F8827840F951F809385
:104F5000BC289093BD286FE080E00E942E1AF801D3
:104F6000408160E180E00E942E1A6091BC2870911F
:104F7000BD2880E090E00E941F4D20E03FEF4FE70A
:104F800057E40E94864C6093182F7093192F8093DA
:104F90001A2F90931B2FCDBFDEBFCC5ADF4FE8E016
:104FA0000C947E55A2E5B0E0E8EDF7E20C9467556D
:104FB0008E010F5A1F4F1F930F9324E339E03F9345
:104FC0002F939F938F930E946C4F0F900F900F9091
:104FD0000F900F900F90892B09F43EC0F80181814A
:104FE0008F9380818F938AE399E09F938F93EE2430
:104FF000E394F12CEC0EFD1EFF92EF920E94254FE0
:10500000B70183E082DDF801408140931C2F69E005
:1050100080E00E942E1A60911C2F70E080E090E0EA
:105020000E94214D20E030E040E850E40E94154EFF
:1050300020E030E04FE753E40E94864C6093842EDA
:105040007093852E8093862E9093872E0F900F90CD
:105050000F900F900F900F90CE5ADF4FE6E00C9418
:105060008055A6E5B0E0E7E3F8E20C9463558E01C5
:105070000F5A1F4F1F930F937E0123E5E20EF11C81
:10508000FF92EF926E0135E5C30ED11CDF92CF92F5
:1050900020EF38E03F932F939F938F930E946C4FA4
:1050A000CDBFDEBF892B09F4FAC5F80181818F934A
:1050B00080818F93F70181818F9380818F93F60197
:1050C00081818F9380818F9382E099E09F938F936A
:1050D000AA24A394B12CAC0EBD1EBF92AF920E9425
:1050E000254FB50183E011DDF60140814093822E0A
:1050F000F70180818093BB28F80180818093BE28CE
:1051000063E080E00E942E1AF701408164E080E0B5
:105110000E942E1AF801408165E080E00E942E1A5C
:10512000CDBFDEBF8091112F8823F1F08091832EB7
:10513000813009F0B4C518C0880F991F880F991FD6
:10514000FC01E35EF04D2091822E2383FC01E15EA1
:10515000FB4C2091BB282383FC01E854FC4D20919B
:10516000BE2823834F5F01C040E0842F90E0209150
:1051700041293091422982179307F0F28091040669
:105180008E7F8093040687E991E00197F1F700C0D4
:10519000000040E075C5880F991F880F991FFC011A
:1051A000E15EFB4C238127FF18C02091040621609B
:1051B00020930406001400140014001400140014BA
:1051C00000140014001400140014001400142091A2
:1051D00004062E7F2093040617C020910406216048
:1051E00020930406001400140014001400142091ED
:1051F00004062E7F209304060014001400140014EB
:1052000000140014001400140014001400140014FE
:105210000014FC01E15EFB4C238126FF18C02091A5
:1052200004062160209304060014001400140014E6
:1052300000140014001400140014001400140014CE
:105240000014209104062E7F2093040617C020919D
:1052500004062160209304060014001400140014B6
:105260000014209104062E7F2093040600140014DD
:10527000001400140014001400140014001400148E
:10528000001400140014FC01E15EFB4C238125FF97
:1052900018C0209104062160209304060014001415
:1052A000001400140014001400140014001400145E
:1052B000001400140014209104062E7F209304068D
:1052C00017C02091040621602093040600140014E6
:1052D000001400140014209104062E7F209304066D
:1052E000001400140014001400140014001400141E
:1052F00000140014001400140014FC01E15EFB4CC7
:10530000238124FF18C02091040621602093040605
:1053100000140014001400140014001400140014ED
:1053200000140014001400140014209104062E7FB1
:105330002093040617C020910406216020930406E0
:1053400000140014001400140014209104062E7F91
:105350002093040600140014001400140014001418
:105360000014001400140014001400140014FC01B4
:10537000E15EFB4C238123FF18C0209104062160CD
:1053800020930406001400140014001400140014E8
:1053900000140014001400140014001400142091D0
:1053A00004062E7F2093040617C020910406216076
:1053B000209304060014001400140014001420911B
:1053C00004062E7F20930406001400140014001419
:1053D000001400140014001400140014001400142D
:1053E0000014FC01E15EFB4C238122FF18C02091D8
:1053F0000406216020930406001400140014001415
:1054000000140014001400140014001400140014FC
:105410000014209104062E7F2093040617C02091CB
:1054200004062160209304060014001400140014E4
:105430000014209104062E7F20930406001400140B
:1054400000140014001400140014001400140014BC
:10545000001400140014FC01E15EFB4C238121FFC9
:1054600018C0209104062160209304060014001443
:10547000001400140014001400140014001400148C
:10548000001400140014209104062E7F20930406BB
:1054900017C0209104062160209304060014001414
:1054A000001400140014209104062E7F209304069B
:1054B000001400140014001400140014001400144C
:1054C00000140014001400140014FC01E15EFB4CF5
:1054D000238120FF18C02091040621602093040638
:1054E000001400140014001400140014001400141C
:1054F00000140014001400140014209104062E7FE0
:105500002093040617C0209104062160209304060E
:1055100000140014001400140014209104062E7FBF
:105520002093040600140014001400140014001446
:105530000014001400140014001400140014FC01E2
:10554000E35EF04D238127FF18C0209104062160FF
:105550002093040600140014001400140014001416
:1055600000140014001400140014001400142091FE
:1055700004062E7F2093040617C0209104062160A4
:105580002093040600140014001400140014209149
:1055900004062E7F20930406001400140014001447
:1055A000001400140014001400140014001400145B
:1055B0000014FC01E35EF04D238126FF18C020910A
:1055C0000406216020930406001400140014001443
:1055D000001400140014001400140014001400142B
:1055E0000014209104062E7F2093040617C02091FA
:1055F0000406216020930406001400140014001413
:105600000014209104062E7F209304060014001439
:1056100000140014001400140014001400140014EA
:10562000001400140014FC01E35EF04D238125FFFB
:1056300018C0209104062160209304060014001471
:1056400000140014001400140014001400140014BA
:10565000001400140014209104062E7F20930406E9
:1056600017C0209104062160209304060014001442
:10567000001400140014209104062E7F20930406C9
:10568000001400140014001400140014001400147A
:1056900000140014001400140014FC01E35EF04D2B
:1056A000238124FF18C02091040621602093040662
:1056B000001400140014001400140014001400144A
:1056C00000140014001400140014209104062E7F0E
:1056D0002093040617C0209104062160209304063D
:1056E00000140014001400140014209104062E7FEE
:1056F0002093040600140014001400140014001475
:105700000014001400140014001400140014FC0110
:10571000E35EF04D238123FF18C020910406216031
:105720002093040600140014001400140014001444
:10573000001400140014001400140014001420912C
:1057400004062E7F2093040617C0209104062160D2
:105750002093040600140014001400140014209177
:1057600004062E7F20930406001400140014001475
:105770000014001400140014001400140014001489
:105780000014FC01E35EF04D238122FF18C020913C
:105790000406216020930406001400140014001471
:1057A0000014001400140014001400140014001459
:1057B0000014209104062E7F2093040617C0209128
:1057C0000406216020930406001400140014001441
:1057D0000014209104062E7F209304060014001468
:1057E0000014001400140014001400140014001419
:1057F000001400140014FC01E35EF04D238121FF2E
:1058000018C020910406216020930406001400149F
:1058100000140014001400140014001400140014E8
:10582000001400140014209104062E7F2093040617
:1058300017C0209104062160209304060014001470
:10584000001400140014209104062E7F20930406F7
:1058500000140014001400140014001400140014A8
:1058600000140014001400140014FC01E35EF04D59
:10587000238120FF18C02091040621602093040694
:105880000014001400140014001400140014001478
:1058900000140014001400140014209104062E7F3C
:1058A0002093040617C0209104062160209304066B
:1058B00000140014001400140014209104062E7F1C
:1058C00020930406001400140014001400140014A3
:1058D0000014001400140014001400140014FC013F
:1058E000E854FC4D238127FF18C020910406216055
:1058F0002093040600140014001400140014001473
:10590000001400140014001400140014001420915A
:1059100004062E7F2093040617C020910406216000
:1059200020930406001400140014001400142091A5
:1059300004062E7F209304060014001400140014A3
:1059400000140014001400140014001400140014B7
:105950000014FC01E854FC4D238126FF18C020915F
:10596000040621602093040600140014001400149F
:105970000014001400140014001400140014001487
:105980000014209104062E7F2093040617C0209156
:10599000040621602093040600140014001400146F
:1059A0000014209104062E7F209304060014001496
:1059B0000014001400140014001400140014001447
:1059C000001400140014FC01E854FC4D238125FF51
:1059D00018C02091040621602093040600140014CE
:1059E0000014001400140014001400140014001417
:1059F000001400140014209104062E7F2093040646
:105A000017C020910406216020930406001400149E
:105A1000001400140014209104062E7F2093040625
:105A200000140014001400140014001400140014D6
:105A300000140014001400140014FC01E854FC4D80
:105A4000238124FF18C020910406216020930406BE
:105A500000140014001400140014001400140014A6
:105A600000140014001400140014209104062E7F6A
:105A70002093040617C02091040621602093040699
:105A800000140014001400140014209104062E7F4A
:105A900020930406001400140014001400140014D1
:105AA0000014001400140014001400140014FC016D
:105AB000E854FC4D238123FF18C020910406216087
:105AC00020930406001400140014001400140014A1
:105AD0000014001400140014001400140014209189
