:100000000C94230B0C94440B0C94440B0C94440B55
:100010000C94440B0C94440B0C94440B0C94440B24
:100020000C94440B0C94440B0C94440B0C94440B14
:100030000C94440B0C94440B0C94E2160C94440B5B
:100040000C94440B0C94440B0C94440B0C94440BF4
:100050000C94440B0C94440B0C94440B0C94440BE4
:100060000C94440B0C94440B0C94440B0C94440BD4
:100070000C94440B0C94440B0C94440B0C94440BC4
:100080000C94440B0C94440B0C94440B0C94440BB4
:100090000C94440B0C94440B0C94440B0C94440BA4
:1000A0000C94440B0C94440B0C94440B0C94440B94
:1000B0000C94440B0C94440B0C94F4360C94440BA9
:1000C0000C94440B0C94440B0C94440B0C94440B74
:1000D0000C94440B0C94440B0C94440B0C94440B64
:1000E0000C94440B0C94440B0C94440B0C94440B54
:1000F0000C94440B0C9415190C94440B0C94440B65
:100100000C94440B0C94440B0C94440B0C94440B33
:100110000C94440B0C94440B0C94440B0C94440B23
:100120000C94440B0C94440B0C94440B0C94440B13
:100130000C94440B0C94440B0C94440B0C94440B03
:100140000C94440B0C94440B0C94440B0C94440BF3
:100150000C94440B0C94440B0C94440B0C94440BE3
:100160000C94440B0C94440B0C94440B0C94440BD3
:100170000C94440B0C94440B0C94440B0C94440BC3
:100180000C94440B0C94440B0C94440B0C94440BB3
:100190000C94440B0C94440B0C94440B0C94440BA3
:1001A0000C9421170C9434170C94440B0C94440BAE
:1001B0000C94440B0C94440B0C94440B0C94440B83
:1001C0000C94440B0C94440B0C94440B0C94440B73
:1001D0000C94440B0C94440B0C94440B0C94381961
:1001E0000C94440B0C94440B0D0A3E005772697436
:1001F0006520626F6F746C6F6164657220656E61FB
:10020000626C65206279746520746F204545505298
:100210004F4D00726573657474696E672041565264
:100220000D0A00B6190000E903C9190100E403F63C
:10023000190100DE03BC190000D903BF160000D469
:1002400003D8160000CE03EF2E0100C803632F0170
:1002500000C203C52F0100BB0338240000B603E72A
:10026000230100B103BD230000AC03F3220000A76B
:100270000301230100A203482301009C038F2301F3
:10028000009703E34600009103D52200008B03C9C9
:100290002200008303462E00007D03F9370000761C
:1002A000033638000071039D3800005303381A01EB
:1002B000006503181A01006B037F2201005903B384
:1002C0002200006003762C01004503F12B01003F62
:1002D00003B125010038034D2501003303CA240171
:1002E000002E034F2001004F03692D01004B035DD9
:1002F0001A01000D034C2201002303192201001EE4
:1003000003662401001703EB2101002903777332F0
:10031000383131726762007364737073770076737B
:100320007464007673746F70007366796400736C24
:100330007063007362726900736E63726762007348
:100340006F72676200736D7267620067617300733A
:100350006173007476706E690074767070777200E5
:10036000727476700073747670720067747670724F
:1003700000697476700067747670727600677476C0
:1003800070730066706761636473006670676172A2
:1003900000736674666300736677650073666574E0
:1003A00073007366736500736662650073666773D6
:1003B00000736673610073666769006774776972BA
:1003C0007200677477697200737477697200726182
:1003D00076726200726176720068656C7000747487
:1003E000796C6C007474796500747479620030788B
:1003F0002532782030782532780072656769737409
:10040000657220307825303278203D2030782530D4
:1004100032782028616464723A203078253032784E
:10042000290D0A003078253278203078253278007E
:100430007265676973746572203078253032782070
:100440003D203078253032782028616464723A206B
:10045000307825303278290D0A003078253278201E
:1004600030782532782030782532780073656E64D4
:10047000696E672030782530327820746F2072657D
:10048000676973746572203078253032782028616E
:100490006464723A20307825303278290D0A00726F
:1004A0006573657474696E6720465047410D0A0094
:1004B0004650474120636F6E666967206973206EFE
:1004C0006F7420646F6E650D0A00465047412063CB
:1004D0006F6E66696720697320646F6E650D0A0030
:1004E000726561642066726F6D20737461747573D8
:1004F00020726567697374657220310D0A00737428
:100500006174757320726567697374657220312038
:100510003D203078253032780D0A00726561642004
:1005200066726F6D2073746174757320726567698C
:100530007374657220320D0A0073746174757320D0
:1005400072656769737465722032203D20307825AA
:100550003032780D0A00726561642066726F6D201A
:10056000766964656F207374616E64617264207271
:10057000656769737465720D0A00766964656F203A
:100580007374616E64617264207265676973746507
:1005900072203D203078253032780D0A00307825E1
:1005A0003278203078253278003078253278007221
:1005B00065736574696E67205456500D0A00256492
:1005C0000073657474696E6720545650206F6666B8
:1005D0000D0A0073657474696E6720545650206F5D
:1005E0006E0D0A00256400656E61626C696E67209D
:1005F000465047410D0A0064697361626C696E6719
:1006000020465047410D0A002564007365747469E3
:100610006E672050414C20617320766964656F20BD
:100620007374616E646172640073657474696E677B
:10063000204E54534320617320766964656F2073A4
:1006400074616E6461726400256400436F6C6F7244
:10065000206368616E6E656C20636F6E7665727381
:10066000696F6E2061637469766974793A202564D4
:100670000D0A005369676E616C2073746174757341
:100680003A2025640D0A004272696768746E6573CA
:10069000732076616C75653A2030782532780D0AC2
:1006A000004D6178696D756D2052474220636F6D12
:1006B000706F6E656E742076616C7565733A20306C
:1006C00078253032782030782530327820307825FF
:1006D0003032780D0A00524742206F6666736574A7
:1006E0002076616C7565733A203078253032782039
:1006F000307825303278203078253032780D0A0075
:100700005247422076616C756573206F6E206C6F66
:100710007374207369676E616C3A203078253032CB
:100720007820307825303278203078253032780DB6
:100730000A004C6F775061737320432076616C75AB
:10074000653A20307825303278203078253032787C
:100750000D0A004650474120594362437220736995
:100760006D756C6174696F6E3A2025640A0030788B
:10077000253278203078253278203078253278007C
:100780004D6178696D756D2052474220636F6D70C1
:100790006F6E656E742076616C7565733A20307883
:1007A0002530327820307825303278203078253066
:1007B00032780D0A0030782532782030782532786A
:1007C00020307825327800524742206F6666736584
:1007D000742076616C7565733A20307825303278F4
:1007E00020307825303278203078253032780D0A64
:1007F00000307825327820307825327820307825FE
:100800003278005247422076616C756573206F6EB6
:10081000206C6F7374207369676E616C3A20307856
:1008200025303278203078253032782030782530E5
:1008300032780D0A003078253278004E65772062D4
:1008400072696768746E6573732069733A203078D3
:10085000253032780D0A003078253278203078251E
:100860003278004E6577206C6F772070617373204B
:1008700066696C74657220432069733A203078256C
:10088000303278203078253032780D0A0025640027
:10089000536574204453505F494E5F535720686935
:1008A00067680D0A00536574204453505F494E5FDA
:1008B0005357206C6F770D0A005374617274696E20
:1008C00067206C6F6F7020746F20656E61626C655D
:1008D0002F64697361626C65204453505F494E5FB9
:1008E0005357207369676E616C0D0A0030782532AA
:1008F000782030782532782030782532782030788A
:100900002532780025640046504741205943624310
:10091000722073696D756C6174696F6E20646973A0
:1009200061626C65640A0046504741205943624346
:10093000722073696D756C6174696F6E20656E618C
:10094000626C65640A0053504920666C61736820CC
:1009500049443A20307825303278203078253032BA
:1009600078203078253032780D0A00256400415611
:100970005220746F204650474120636F6E6669674E
:1009800020666C617368206163636573732028530C
:10099000504929207374617475733A2025640D0AD7
:1009A0000041565220746F204650474120636F6EBD
:1009B00066696720666C6173682061636365737341
:1009C000202853504929207374617475733A202587
:1009D000640D0A0053657269616C204650474120DE
:1009E000666C617368207374617475733A20307833
:1009F00025303278203078253032780D0A00256491
:100A00000030782532782530327825303278003041
:100A10007825327825303278253032780025630009
:100A2000082008000D0A3E000D0A00455252000D34
:100A30000A003E0046494E4553543A200046494E6E
:100A400045523A200046494E453A2000494E464F0D
:100A50003A20005741524E494E473A2000455252E3
:100A60004F523A20000046494E4553543A20006602
:100A700061696C6564212054574920726573756CF7
:100A800074203D2025640D0A0073756363656564F9
:100A900065640D0A0025640025640075736167654F
:100AA0003A0D0A0D0A2D2D2D2041565220584D6524
:100AB0006761202D2D2D0D0A09726176723A205240
:100AC00065736574207468652041565220584D65E1
:100AD0006761206D6963726F636F6E74726F6C6CA7
:100AE00065722E0D0A0972617672623A2052657340
:100AF0006574207468652041565220584D656761C1
:100B0000206D6963726F636F6E74726F6C6C657267
:100B100020616E64206A756D7020696E746F207438
:100B2000686520626F6F746C6F616465722E0D0A68
:100B30000D0A2D2D2D20436F6C6F722070726F6324
:100B4000657373696E67202D2D2D0D0A097361730E
:100B50003A205365742074686520636F6C6F72204F
:100B60006368616E6E656C2067656E65726174693D
:100B70006F6E207374617475733A2031203D20616B
:100B800063746976653B2030203D20696E61637433
:100B90006976650D0A096761733A204765742041DB
:100BA0006D62696C69676874207374617475732E03
:100BB0000D0A0D0A2D2D2D2046504741202D2D2D9B
:100BC0000D0A0966706761723A2052657365742078
:100BD000746865204650474120286E436F6E6669F1
:100BE0006720706F776572206379636C65290D0AE1
:100BF00009667067616364733A204765742074689E
:100C00006520434F4E465F444F4E45207369676EE3
:100C1000616C207374617475732E0D0A0D0A2D2D8D
:100C20002D2054565035313436202D2D2D0D0A09E6
:100C30007476707077723A20526571756972657357
:100C4000206120706172616D657465723A20303D7B
:100C50007475726E20545650206F66662C20313D9C
:100C60007475726E206974206F6E2E0D0A0972748D
:100C700076703A2052657365742074686520545606
:100C8000502E0D0A09697476703A20496E697469AC
:100C9000616C697A6520746865205456502E0D0A7F
:100CA0000967747670733A20476574205456502053
:100CB0007374617475732E205072696E7473206F33
:100CC000757420746865205456502073746174756F
:100CD0007320746F20746865207474792E0D0A096E
:100CE0007476706E693A2053776974636820746F04
:100CF000206E6578742054565020696E7075742E7D
:100D000020537769746368657320746F206E65780B
:100D100074207369676E616C20696E7075742063EE
:100D200068616E6E656C2E0D0A0967747670727656
:100D30003A205072696E7473206F75742074686500
:100D40002054565020524F4D2076657273696F6E55
:100D5000206E756D6265722E0D0A09677476707269
:100D60003A20476574205456502072656769737441
:100D700065722E20526571756972657320612072EB
:100D8000656769737465722061646472657373204A
:100D90006173206120706172616D6574657220619C
:100DA0006E64207072696E7473206F75742074683D
:100DB00065207265676973746572732076616C75FE
:100DC00065206173206865782E0D0A09737476704A
:100DD000723A2053657420545650207265676973C7
:100DE0007465722E20526571756972657320612079
:100DF0007265676973746572206164647265737388
:100E000020616E64207468652076616C756520745D
:100E10006F207361766520696E746F207468652039
:100E2000676976656E2072656769737465722061A3
:100E300073206865782E0D0A0D0A2D2D2D20436F25
:100E40006C6F722070726F63657373696E67207365
:100E5000657474696E6773202D2D2D0D0A09736DED
:100E60007267623A20536574206D6178696D756DA3
:100E7000205247422076616C75657320666F722040
:100E8000746865207265636F676E697A6564206354
:100E90006F6C6F7220636F6D706F6E656E74732E02
:100EA000205265717569726573207468726565207A
:100EB00068657861646563696D616C2070617261F9
:100EC0006D657465722E0D0A09736F7267623A2040
:100ED0005365742061206F66667365742076616C5B
:100EE0007565732077686963682077696C6C206228
:100EF0006520616464656420746F20746865207285
:100F000065636F676E697A656420636F6C6F7220CA
:100F100076616C7565732E205265717569726573A3
:100F20002074687265652068657861646563696DC1
:100F3000616C20706172616D657465722E0D0A09B5
:100F4000736E637267623A20536574205247422081
:100F5000636F6C6F722077686963682069732073B0
:100F6000686F776E206966206E6F20696E70757489
:100F7000207369676E616C20697320636F6E6E65A4
:100F8000637465642E20526571756972657320748F
:100F9000687265652068657861646563696D616C18
:100FA00020706172616D657465722E0D0A0973623D
:100FB00072693A2053657420746865206F75747087
:100FC0007574206272696768746E6573732E20523F
:100FD00065717569726573207468726565206865EE
:100FE0007861646563696D616C20706172616D65C3
:100FF0007465722E0D0A09736C70633A2053657420
:1010000020746865204C6F77506173732066696C3B
:1010100074657220632D76616C75652E0D0A0D0A5C
:101020002D2D2D2053504920465047412073657285
:1010300069616C20666C61736820616363657373BA
:10104000202D2D2D0D0A09736673613A20456E61BE
:10105000626C652F64697361626C65204156522031
:10106000666C617368206163636573732028313D2A
:10107000656E61626C65642F303D64697361626C9A
:101080006564292E0D0A09736667693A20476574FD
:10109000207468652073657269616C20666C617389
:1010A0006820494420696E666F726D6174696F6E65
:1010B0002E0D0A09736667733A20476574207468B9
:1010C000652073657269616C20666C61736820735A
:1010D000746174757320696E666F726D6174696F87
:1010E0006E2E0D0A09736662653A205350492066D8
:1010F0006C6173682062756C6B2065726173652E1C
:101100000D0A09736673653A2053504920666C6175
:10111000736820736563746F7220657261736520F4
:10112000666F72206F6E6520736563746F7220281E
:1011300061646472657373206C696B65203078300C
:101140003130323033207265717569726564292ED1
:101150000D0A0973666574733A2053504920666C12
:1011600061736820736563746F7220657261736563
:1011700020666F72206D756C7469706C6520736584
:1011800063746F7273202861646472657373206F77
:1011900066206C61737420736563746F72206C6970
:1011A0006B652030783037303030302072657175A3
:1011B00069726564292E0D0A09736677653A2053B2
:1011C000504920666C617368207772697465206588
:1011D0006E61626C652028313D656E61626C65648C
:1011E0002F303D64697361626C6564292E0D0A09B4
:1011F00073667466633A20456E61626C6520465082
:10120000474120666C61736820636F6E74656E740D
:10121000207472616E73666572206D6F646520283C
:101220004650474120636F6E66696720666C617344
:101230006820616363657373290D0A0D0A2D2D2DD6
:10124000205454592066756E6374696F6E616C69C1
:101250007479202D2D2D0D0A09747479653A204476
:10126000697361626C65732F456E61626C65732092
:1012700074686520747479206563686F2E0D0A099F
:101280007474796C6C3A205265717569726573205B
:101290006120706172616D657465722028302E2E38
:1012A0003235352920776869636820726570726508
:1012B00073656E7473207468652074747920766524
:1012C00072626F736974792E0D0A0909202030202B
:1012D0002D2046494E4553540D0A0909202031203E
:1012E0002D2046494E45520D0A0909202032202D55
:1012F0002046494E450D0A0909202033202D20495A
:101300004E464F0D0A0909202034202D2057415206
:101310004E494E470D0A0909202035202D204552FF
:10132000524F520D0A0909323535202D204E4F4EAD
:10133000452F4D6F6E69746F72206D6F64650D0A75
:101340000D0A2D2D2D204932432074657374696E6A
:1013500067202D2D2D0D0A0967747769723A204197
:101360006464726573732061732030784E4E20611F
:101370006E642072656769737465722061732030D2
:10138000784E4E0D0A096774776972723A2041648B
:1013900064726573732061732030784E4E20616EE5
:1013A0006420726567697374657220617320307898
:1013B0004E4E202875736573207265706561746583
:1013C000642072656164290D0A0973747769723A41
:1013D00020416464726573732061732030784E4ECF
:1013E00020616E6420726567697374657220617331
:1013F0002030784E4E20616E642076616C756520D9
:1014000061732030784E4E0D0A0D0A2D2D2D204F80
:10141000746865722074657374726F7574696E6533
:1014200073202D2D2D0D0A09736679643A20456EBF
:1014300061626C652F64697361626C652073696DAC
:10144000756C6174696F6E206F662046504741204D
:10145000594362437220646174610D0A09767374A2
:101460006F703A2052657175697265732061206CE6
:101470006F676963616C2076616C75653A20313DF8
:10148000766964656F207363616C696E6720646957
:101490007361626C65643B20303D766964656F738F
:1014A00063616C696E6720656E61626C65640D0ACC
:1014B00009767374643A2052657175697265732098
:1014C00061206C6F676963616C2076616C75653A49
:1014D00020313D766964656F2073746420697320E0
:1014E0004E5453433B20303D766964656F207374DE
:1014F000642069732050414C0D0A097773323831EA
:10150000317267623A2053656E64206120636F6CAC
:101510006F7220746F206F6E65206F7220616C6C2B
:1015200020777332383131204C4544732E20526578
:10153000717569726573207468652077733238310C
:101540003120616464726573732C20746865207245
:1015500065642C20677265656E20616E6420626C24
:1015600075652077616C7565732061732068657897
:10157000202830784E4E292E0D0A0973647370733B
:10158000773A20536574204453505F494E5F535758
:10159000207369676E616C207374617465202831F3
:1015A0003D6F6E3B323D6F66663B3235353D6D7546
:1015B0006C7469706C65206C6F6F70290D0A0D0A70
:1015C0000073656E64696E6720307825303278204C
:1015D000746F207265676973746572203078253086
:1015E00032780D0A0072656769737465722030780D
:1015F00025303278203D203078253032780D0A00B1
:10160000726561642066726F6D20524F4D20766561
:101610007273696F6E2072656769737465720D0A03
:1016200000524F4D2076657273696F6E206973208A
:101630003078253032780D0A006364696E6F7073FC
:101640007578585B000011241FBECFEFDFE5DEBFC9
:10165000CDBF00E00CBF11E2A0E0B0E2E0EAF3EAA7
:1016600000E00BBF02C007900D92AC3DB107D9F767
:101670001CE3ACEDB1E201C01D92AE3FB107E1F752
:101680000E94EB150C941A4B0C9400000F931F93BF
:10169000E091F52DDC01EC938091F62DFB01808328
:1016A0008091E921DA018C9380912628F9018083C9
:1016B0008091E821D8018C931F910F910895FF929A
:1016C0000F931F93CF93DF931F92CDB7DEB7982F61
:1016D000162FF42E80E06AE0492F29830E94BE175E
:1016E0000E94A71780E06CE04F2D0E94BE170E9459
:1016F000A71780E06BE0412F0E94BE170E94A7173A
:1017000080E06DE02981422F0E94BE170E94A7173A
:1017100080E06EE0402F0E94BE170F90DF91CF91C6
:101720001F910F91FF900C94A717AF92BF92DF9279
:10173000EF92FF920F931F93CF93DF931F92CDB73A
:10174000DEB70E94A7178091CC01877F8093CC01E0
:1017500080E066E00E9479178093282880E067E0A7
:101760000E9479178093AE2880E068E00E94791784
:101770008093F82D80E060E00E94791780938B338E
:1017800080E061E00E9479178093F92D80E062E0AB
:101790000E9479178093272880E063E00E947917E0
:1017A0008093EF2D80E064E00E94791780932928D0
:1017B00080E065E00E94791780932C2880E069E042
:1017C0000E9479178093892E80E06AE00E94791741
:1017D0008093F52D80E06BE00E9479178093F62DC1
:1017E00080E06CE00E9479178093E92180E06DE051
:1017F0000E9479178093262880E06EE00E94791776
:101800008093E8215091F52D8091F62D4091E921AA
:10181000309126282091E82190E0850F911D840FBA
:10182000911D830F911D820F911D8093AF2890937E
:10183000B0288091F52D813408F031C18091F62DCA
:10184000813608F02CC18091E921813408F027C14C
:1018500080912628813308F022C18091E8218133CC
:10186000A0F11DC1AD2CB12C8E2D6F2D99830E943E
:101870007917082F10E0AA0CBB1C2EE238E2A20E4A
:10188000B31EF501008311836F2D6F5F8E2D0E94B3
:101890007917282F30E0322F2227200F311F99810E
:1018A0002039F1E03F0708F402C02BEB30E0F501EE
:1018B00020833183D394F394F394F0E2FF12D2CFD8
:1018C000905FE394903421F439C022E0E22E90E05E
:1018D000D92EF12CC7CFAD2CB12C8E2D6F2D998325
:1018E0000E947917082F10E0AA0CBB1C21E532E2F8
:1018F000A20EB31EF501008311836F2D6F5F8E2D35
:101900000E947917282F30E0322F2227200F311F15
:1019100099812039F1E03F0708F402C02BEB30E059
:10192000F50120833183D394F394F394F0E2FF1212
:10193000D2CF905FE394903621F439C0B6E0EB2E1D
:1019400090E0D92EF12CC7CFAD2CB12C8E2D6F2D60
:1019500099830E947917082F10E0AA0CBB1C2AEF6C
:101960003DE2A20EB31EF501008311836F2D6F5F60
:101970008E2D0E947917282F30E0322F2227200F3A
:10198000311F99812039F1E03F0708F402C02BEBA9
:1019900030E0F50120833183D394F394F394F0E2A3
:1019A000FF12D2CF905FE394903421F439C0ECE081
:1019B000EE2E90E0D92EF12CC7CFAD2CB12C8E2D70
:1019C0006F2D99830E947917082F10E0AA0CBB1C79
:1019D00025E73DE2A20EB31EF501008311836F2DB2
:1019E0006F5F8E2D0E947917282F30E0322F22272B
:1019F000200F311F99812039F1E03F0708F402C020
:101A00002BEB30E0F50120833183D394F394F394EE
:101A1000F0E2FF12D2CF905FE394903221F439C00C
:101A200050E1E52E90E0D92EF12CC7CFAD2CB12C92
:101A30008E2D6F2D99830E947917082F10E0AA0C24
:101A4000BB1C2BEE31E2A20EB31EF5010083118305
:101A50006F2D6F5F8E2D0E947917282F30E0322F67
:101A60002227200F311F99812039F1E03F0708F428
:101A700002C02BEB30E0F50120833183D394F39443
:101A8000F394F0E2FF12D2CF905FE394903221F40E
:101A900016C023E1E22E90E0D92EF12CC7CF81E0D1
:101AA0008093F52D8093F62D8093E921809326284D
:101AB0008093E82161E041E021E001E000DE80E088
:101AC0006FE00E947917082F10E000932A281093E6
:101AD0002B2880E060E10E947917282F30E0322F18
:101AE0002227200F311F20932A2830932B2880E0B3
:101AF00061E10E94791780932D2880E062E10E94C5
:101B00007917082F10E000934B2210934C2280E0AD
:101B100063E10E947917282F30E0322F2227200F0F
:101B2000311F20934B2230934C226091282870E083
:101B300080E090E00E94C34920E030E048EC52E4AD
:101B40000E94B74A20E030E04FE753E40E942D495D
:101B500020E030E048EC52E40E942D4960932123BC
:101B60007093222380932323909324236091AE28A3
:101B700070E080E090E00E94C34920E030E048EC53
:101B800052E40E94B74A20E030E04FE753E40E945D
:101B90002D4920E030E048EC52E40E942D4960934A
:101BA0004D2270934E2280934F2290935022609149
:101BB000F82D70E080E090E00E94C34920E030E022
:101BC00048EC52E40E94B74A20E030E04FE753E48B
:101BD0000E942D4920E030E048EC52E40E942D495B
:101BE00060937A2E70937B2E80937C2E90937D2E23
:101BF0006091892E70E080E090E00E94C34920E06F
:101C000030E040E850E40E94B74A20E030E04FE77F
:101C100053E40E942D496093F12D7093F22D80932F
:101C2000F32D9093F42D60912A2870912B2880E059
:101C300090E00E94C14920E03FEF4FE757E40E9447
:101C40002D496093852E7093862E8093872E9093D6
:101C5000882E0F90DF91CF911F910F91FF90EF9001
:101C6000DF90BF90AF9008958091EA21813009F014
:101C700048C020EB34E080E090E04091A40640644E
:101C80004093A4064091A4064F7B4093A406409144
:101C9000680650914806437021F05B5F413059F46B
:101CA00005C05F5FFC01EF54F74D03C0FC01EF5B23
:101CB000F54D508305C0FC01EF52F44D5083019661
:101CC00021503109D1F68091A4068F7B8093A40620
:101CD00080912B2A80932C2A8091BB2B8093BC2B44
:101CE00080914B2D80934C2D82E08093EA2180914E
:101CF000A40680618093A4068091A4068F7E8093C1
:101D0000A40608950F931F93CF93DF93D5C59081B9
:101D1000981710F49F5F90839081891710F4915069
:101D200090839C91961710F49F5F9C939C916917E8
:101D300010F491509C939881941710F49F5F9883AE
:101D40009881491710F4915098832F5F3F4F249644
:101D50001496349620173107D1F6909104069E7F91
:101D600090930406E7E9F1E03197F1F700C0000035
:101D7000E091AF28F091B02890E08DC5220F331F7D
:101D8000220F331FD901A457BC4C13965C9157FF07
:101D900018C05091040651605093040600140014BA
:101DA0000014001400140014001400140014001493
:101DB000001400140014509104065E7F5093040632
:101DC00017C050910406516050930406001400148B
:101DD000001400140014509104065E7F5093040612
:101DE0000014001400140014001400140014001453
:101DF00000140014001400140014D901A457BC4CA2
:101E000013965C9156FF18C0509104065160509390
:101E1000040600140014001400140014001400142C
:101E2000001400140014001400140014509104064F
:101E30005E7F5093040617C0509104065160509382
:101E40000406001400140014001400145091040639
:101E50005E7F509304060014001400140014001454
:101E600000140014001400140014001400140014D2
:101E7000D901A457BC4C13965C9155FF18C05091E2
:101E8000040651605093040600140014001400145A
:101E900000140014001400140014001400140014A2
:101EA0000014509104065E7F5093040617C05091B1
:101EB000040651605093040600140014001400142A
:101EC0000014509104065E7F509304060014001421
:101ED0000014001400140014001400140014001462
:101EE000001400140014D901A457BC4C13965C9143
:101EF00054FF18C05091040651605093040600141A
:101F00000014001400140014001400140014001431
:101F10000014001400140014509104065E7F5093C6
:101F2000040617C050910406516050930406001433
:101F30000014001400140014509104065E7F5093A6
:101F400004060014001400140014001400140014FB
:101F5000001400140014001400140014D901A45734
:101F6000BC4C13965C9153FF18C05091040651600D
:101F700050930406001400140014001400140014FC
:101F800000140014001400140014001400145091E4
:101F900004065E7F5093040617C0509104065160FA
:101FA00050930406001400140014001400145091FF
:101FB00004065E7F509304060014001400140014FD
:101FC0000014001400140014001400140014001471
:101FD0000014D901A457BC4C13965C9152FF18C051
:101FE000509104065160509304060014001400142C
:101FF0000014001400140014001400140014001441
:1020000000140014509104065E7F5093040617C01C
:1020100050910406516050930406001400140014FB
:1020200000140014509104065E7F509304060014BF
:102030000014001400140014001400140014001400
:102040000014001400140014D901A457BC4C1396BA
:102050005C9151FF18C050910406516050930406E2
:1020600000140014001400140014001400140014D0
:1020700000140014001400140014509104065E7F34
:102080005093040617C05091040651605093040603
:1020900000140014001400140014509104065E7F14
:1020A00050930406001400140014001400140014CB
:1020B0000014001400140014001400140014D901BA
:1020C000A457BC4C13965C9150FF18C05091040665
:1020D00051605093040600140014001400140014FE
:1020E0000014001400140014001400140014001450
:1020F000509104065E7F5093040617C05091040669
:1021000051605093040600140014001400140014CD
:10211000509104065E7F50930406001400140014CE
:10212000001400140014001400140014001400140F
:1021300000140014D901A657B14D13965C9157FFB6
:1021400018C0509104065160509304060014001406
:1021500000140014001400140014001400140014DF
:10216000001400140014509104065E7F509304067E
:1021700017C05091040651605093040600140014D7
:10218000001400140014509104065E7F509304065E
:10219000001400140014001400140014001400149F
:1021A00000140014001400140014D901A657B14DF6
:1021B00013965C9156FF18C05091040651605093DD
:1021C0000406001400140014001400140014001479
:1021D000001400140014001400140014509104069C
:1021E0005E7F5093040617C05091040651605093CF
:1021F0000406001400140014001400145091040686
:102200005E7F5093040600140014001400140014A0
:10221000001400140014001400140014001400141E
:10222000D901A657B14D13965C9155FF18C0509136
:1022300004065160509304060014001400140014A6
:1022400000140014001400140014001400140014EE
:102250000014509104065E7F5093040617C05091FD
:102260000406516050930406001400140014001476
:102270000014509104065E7F50930406001400146D
:1022800000140014001400140014001400140014AE
:10229000001400140014D901A657B14D13965C9197
:1022A00054FF18C050910406516050930406001466
:1022B000001400140014001400140014001400147E
:1022C0000014001400140014509104065E7F509313
:1022D000040617C050910406516050930406001480
:1022E0000014001400140014509104065E7F5093F3
:1022F0000406001400140014001400140014001448
:10230000001400140014001400140014D901A6577E
:10231000B14D13965C9153FF18C050910406516063
:102320005093040600140014001400140014001448
:102330000014001400140014001400140014509130
:1023400004065E7F5093040617C050910406516046
:10235000509304060014001400140014001450914B
:1023600004065E7F50930406001400140014001449
:1023700000140014001400140014001400140014BD
:102380000014D901A657B14D13965C9152FF18C0A5
:102390005091040651605093040600140014001478
:1023A000001400140014001400140014001400148D
:1023B00000140014509104065E7F5093040617C069
:1023C0005091040651605093040600140014001448
:1023D00000140014509104065E7F5093040600140C
:1023E000001400140014001400140014001400144D
:1023F0000014001400140014D901A657B14D13960F
:102400005C9151FF18C0509104065160509304062E
:10241000001400140014001400140014001400141C
:1024200000140014001400140014509104065E7F80
:102430005093040617C0509104065160509304064F
:1024400000140014001400140014509104065E7F60
:102450005093040600140014001400140014001417
:102460000014001400140014001400140014D90106
:10247000A657B14D13965C9150FF18C050910406B9
:10248000516050930406001400140014001400144A
:10249000001400140014001400140014001400149C
:1024A000509104065E7F5093040617C050910406B5
:1024B000516050930406001400140014001400141A
:1024C000509104065E7F509304060014001400141B
:1024D000001400140014001400140014001400145C
:1024E00000140014D901AA5DBC4D13965C9157FFEE
:1024F00018C0509104065160509304060014001453
:10250000001400140014001400140014001400142B
:10251000001400140014509104065E7F50930406CA
:1025200017C0509104065160509304060014001423
:10253000001400140014509104065E7F50930406AA
:1025400000140014001400140014001400140014EB
:1025500000140014001400140014D901AA5DBC4D2D
:1025600013965C9156FF18C0509104065160509329
:1025700004060014001400140014001400140014C5
:1025800000140014001400140014001450910406E8
:102590005E7F5093040617C050910406516050931B
:1025A00004060014001400140014001450910406D2
:1025B0005E7F5093040600140014001400140014ED
:1025C000001400140014001400140014001400146B
:1025D000D901AA5DBC4D13965C9155FF18C050916E
:1025E00004065160509304060014001400140014F3
:1025F000001400140014001400140014001400143B
:102600000014509104065E7F5093040617C0509149
:1026100004065160509304060014001400140014C2
:102620000014509104065E7F5093040600140014B9
:1026300000140014001400140014001400140014FA
:10264000001400140014D901AA5DBC4D13965C91CE
:1026500054FF18C0509104065160509304060014B2
:1026600000140014001400140014001400140014CA
:102670000014001400140014509104065E7F50935F
:10268000040617C0509104065160509304060014CC
:102690000014001400140014509104065E7F50933F
:1026A0000406001400140014001400140014001494
:1026B000001400140014001400140014D901AA5DC1
:1026C000BC4D13965C9153FF18C0509104065160A5
:1026D0005093040600140014001400140014001495
:1026E000001400140014001400140014001450917D
:1026F00004065E7F5093040617C050910406516093
:102700005093040600140014001400140014509197
:1027100004065E7F50930406001400140014001495
:102720000014001400140014001400140014001409
:102730000014D901AA5DBC4D13965C9152FF18C0DC
:1027400050910406516050930406001400140014C4
:1027500000140014001400140014001400140014D9
:1027600000140014509104065E7F5093040617C0B5
:102770005091040651605093040600140014001494
:1027800000140014509104065E7F50930406001458
:102790000014001400140014001400140014001499
:1027A0000014001400140014D901AA5DBC4D139646
:1027B0005C9151FF18C0509104065160509304067B
:1027C0000014001400140014001400140014001469
:1027D00000140014001400140014509104065E7FCD
:1027E0005093040617C0509104065160509304069C
:1027F00000140014001400140014509104065E7FAD
:102800005093040600140014001400140014001463
:102810000014001400140014001400140014D90152
:10282000AA5DBC4D13962C9120FF18C02091040680
:1028300021602093040600140014001400140014F6
:1028400000140014001400140014001400140014E8
:10285000209104062E7F2093040617C020910406C1
:1028600021602093040600140014001400140014C6
:10287000209104062E7F20930406001400140014F7
:1028800000140014001400140014001400140014A8
:10289000001400149F5F292F30E02E173F0708F423
:1028A0006DCA90910406916090930406EFEBFDE5EC
:1028B0003197F1F700C0000090918D2E981308C059
:1028C00090918F33961304C090912923941769F047
:1028D0000091AF281091B028C9E2D3E2AFE8B3E38A
:1028E000EDE8FEE220E030E035CADF91CF911F91A4
:1028F0000F9108958091EF2D6091292840912C2807
:1029000001CA80E060E040E0FDC91F93CF93DF93F0
:102910000E94D73678940E9480200E943A350E9407
:10292000CB350E946137C0E8D6E08C818F7E8C83E6
:102930008C818F7D8C834AD42FEF81EE94E02150DF
:1029400080409040E1F700C0000010E21F830E9429
:1029500037361F830E9436381F831F830E94B1368B
:102960001F830E94C5361F8381E080937E2E1092C4
:102970007F2E8C8180628C83DF91CF911F9108958F
:10298000EF92FF920F931F93CF93DF930E94273014
:102990008D3F19F4C0E0D0E009C00E9427308F3F7E
:1029A000C9F30E9427308C3FD9F415C0FE01EF54C3
:1029B000F74D6081FE01EF5BF54D4081FE01EF5266
:1029C000F44D2081CE010E94D4342196C03981E09B
:1029D000D80761F7E6CFC0E0D0E000E010E01BC010
:1029E0000E9427308D3FF9F4F6CF9E012757314DD5
:1029F000DE01AB5DBC4D6BE8E62E63E3F62EEC0E1C
:102A0000FD1EC801F90160814C91F70120810E94EF
:102A100007350F5F1F4F24968091AF289091B02803
:102A20000817190710F3DF91CF911F910F91FF90B5
:102A3000EF900895AF92BF92CF92DF92EF92FF9204
:102A40000F931F93CF93DF931F92CDB7DEB7809183
:102A5000EA21811103C081E08093EA218091EA217B
:102A6000823008F0ACC08091002090910120019646
:102A70008093002090930120883E934009F09FC0EE
:102A80008091E121833061F48091E2218F5F833076
:102A900019F08093E22102C01092E2211092E1210C
:102AA0002091E121C090E221D22E00E213E0E0E982
:102AB000AE2EBB24B394750180E9E81A81E0F80AD0
:102AC000C70164E170E00E94BA5180E090E0298380
:102AD0000E94C1490E9416490E9495493A2D3059D9
:102AE000A4E16A9F30191124832F8370D701AF545A
:102AF000B74D2981811108C0332331F0E1E0EC1595
:102B000018F02F5F233091F0F501EF54F74D21308D
:102B1000D9F060F0C7018F54974D71EBE72E78E242
:102B2000F72EE00EF11E2230F9F417C081E58C93E8
:102B3000F501EF54F74D8AE58083F801EF54F74D26
:102B400080EF808320E017C081E98C9386E3808347
:102B5000F801EF54F74D82E20DC049E2DC014C93DD
:102B600080EF80838EE605C04DE9DC014C9380E860
:102B70008083F7018083333179F4862F837041F4A9
:102B8000662331F0CC2021F0D394F3E0DF1611F06E
:102B90002D2D02C0D12C20E08FEFA81AB80A0F5FAC
:102BA0001F4FA0E2AA16A3E0BA0609F084CF8091D5
:102BB000E1218F5F8093E12182E08093EA210F90F1
:102BC000DF91CF911F910F91FF90EF90DF90CF9009
:102BD000BF90AF9008951092202381E08093F02D54
:102BE00094DE0E94950B0E9427308E3F30F48FEFC9
:102BF00068EE71E00E94D32105C08091A406806137
:102C00008093A40680917E2E823018F081E080931C
:102C10007E2E80917E2E813009F067C08091DE216A
:102C200081111EC08091240680FD1CC08091812EE0
:102C30009091822E0A97B0F01092812E1092822EDF
:102C40000E946237811102C00E9436380E946E379E
:102C50000E94A23891E0811190E09093F02D02C083
:102C60001092F02D80912023C091F02D813061F4DD
:102C7000C1111AC0109220238091A4068F7E8093E8
:102C8000A4061092EA2110C081110EC0C13061F477
:102C900031DEC09320238091A40680618093A40636
:102CA0001092832E1092842E8091F02D813089F421
:102CB0008091DF219091E02101968093DF21909314
:102CC000E021883E934088F01092DF211092E021AD
:102CD0000CC08091DE21811103C00E94340E01C01E
:102CE000A9DE0E9498400E94A63880917F2E8230F3
:102CF00010F010927F2E80917F2E8823D9F01092B1
:102D00007F2E8091A40680618093A4060E942737BD
:102D1000811102C00E94613781E080937E2E0E9463
:102D20006237811102C00E9436388091A4068F7EDE
:102D30008093A40680917E2E882321F08091F02D2F
:102D40008130D1F42091832E3091842E80914B22BA
:102D500090914C222817390778F0D3DD1092832EFA
:102D60001092842E8091A40680618093A4068091A5
:102D70002D2881110E9468370E94D52043CF83E01F
:102D800063E172E00E94D321BCDDE1D02FEF83ED3F
:102D900090E3215080409040E1F700C00000E8E758
:102DA000F0E08FEF808388ED84BF81E08183089518
:102DB00083E06CEE71E00E94D32181E061E04AEA99
:102DC000DDD0DDCF1F920F920FB60F9211248F939B
:102DD0009F9390912D2880917E2E992341F08130F0
:102DE00031F48091802E8F5F8093802E02C08823E3
:102DF00021F08091F02D813081F480914B229091CF
:102E00004C22892B51F08091832E9091842E019633
:102E10008093832E9093842E04C01092832E109260
:102E2000842E8091812E9091822E01968093812E06
:102E30009093822E9F918F910F900FBE0F901F90B5
:102E400018951F920F920FB60F9211248F938091B5
:102E5000EA21811103C081E08093EA218F910F90D4
:102E60000FBE0F901F9018951F920F920FB60F92E2
:102E700011248F9381E080937F2E8F910F900FBE4E
:102E80000F901F9018950F93CF93DF931F92CDB79C
:102E9000DEB72FB72983F8941BBEFC0108ED04BFF1
:102EA000608389818FBF0F90DF91CF910F9108953B
:102EB0006F71682BE0E5F0E065830895682B81E48D
:102EC00090E0E1CF1F93CF93DF93182FC0E4D0E0C1
:102ED0006881687F682B80E490E0D5DF888181235A
:102EE000DF91CF911F9108958091CF0187FDFCCF95
:102EF0000895CF93DF931F921F92CDB7DEB76A83F9
:102F00008983F2DF6A816F71898120E2829FC0012B
:102F10001124862BE0ECF1E08083892F99278183AF
:102F2000128286E08287EF93FF930F932F93EBEC4F
:102F3000F1E008ED21E004BF20832F910F91FF9174
:102F4000EF9184810F900F90DF91CF910895CCDFA6
:102F50008091CF0181FF11C086E38093CA01EF9376
:102F6000FF930F932F93EBECF1E008ED21E004BF0A
:102F700020832F910F91FF91EF910895CF93DF93CD
:102F800000D0CDB7DEB74B836A838983E0DFE0EC06
:102F9000F1E093E392876A816F71898120E2829FD9
:102FA000C0011124862B8083892F99278183128267
:102FB0004B81448385E38287EF93FF930F932F9395
:102FC000EBECF1E008ED21E004BF20832F910F919D
:102FD000FF91EF912396CDBFDEBFDF91CF91089592
:102FE000FC0181858C7F682B618742870895FC01F5
:102FF0008185837F682B618743870895EF920F93C4
:10300000E02A442311F030E801C030E0E32A222313
:1030100011F020E401C020E02E294FB7F89460930E
:10302000B000FC01208B4FBF0F91EF900895FC0181
:10303000608371834863DB0111964C93A081B18159
:1030400015962C930190F081E02D81E08483089502
:103050000F93CF93DF93FC01293048F5093038F501
:103060008789811124C081E0878B108E6283DA0109
:1030700080E090E006C03D91EF01C80FD91F3B836F
:1030800001968217C0F3238B048B158A168A8389D5
:10309000882319F082818E7F05C08489882349F0B6
:1030A000828181600190F081E02D868302C080E002
:1030B00001C081E0DF91CF910F9108950F93042F0C
:1030C00040E050E020E0C4DF0F9108950F9300E04E
:1030D000BFDF0F910895FC01A081B18114968C91FE
:1030E000149782FF02C094E001C093E0908F886043
:1030F00014968C93178A0895CF93DF93FC019389DC
:103100008489A081B18114962C91149724FF05C065
:1031100083E013968C9385E01AC02589291758F40B
:103120008589EF01C80FD11D8B8117968C938589F6
:103130008F5F858B0EC09689981728F482818160F5
:1031400016968C9306C083E013968C9381E0808F53
:10315000178ADF91CF910895FC018689A081B18102
:10316000883060F417968C919689DF01A90FB11D04
:103170001B968C9386898F5F868B06C083E013969F
:103180008C9382E0808F178A84899689A081B1818F
:10319000981720F482E013968C93089587E0139695
:1031A0008C9381E0808F178A0895DC01ED91FC916A
:1031B0002481322F3C7009F08ECF26FD9DCF27FD54
:1031C000CBCF26E0FC01208F178A089510928E3A0B
:1031D00010928F3A10928C3810928D38E0EBFAE012
:1031E00083E085838BE6868380EB878383818061A0
:1031F00083838481886084838481806184838481E3
:1032000084608483E0EAF0E08281816082830895B3
:103210009091B10A95FFFCCF8093B00A0895F8CF42
:10322000F7DF80E090E00895F3CF1F920F920FB682
:103230000F9211240BB60F928F93EF93FF93E091AF
:103240008D38EF5F80918C38E81741F0E0938D382E
:10325000F0E08091B00AE457F74C8283FF91EF9140
:103260008F910F900BBE0F900FBE0F901F9018956F
:103270001F920F920FB60F9211240BB60F928F93DD
:10328000EF93FF93E0918F3AEF5F80918E3AE817CA
:1032900041F0E0938F3AF0E08091A00BE257F54CBB
:1032A0008283FF91EF918F910F900BBE0F900FBE15
:1032B0000F901F901895EF920F93CF93DF9380E6B6
:1032C00096E060EB40E020E000E032E0E32E96DEA6
:1032D000C0E6D6E080EB898380E696E060E440E0DB
:1032E00020E008E3E12C8ADE80E48A83DF91CF913D
:1032F0000F91EF900895EF920F9380E696E060EFC4
:1033000040E020E008E2E12C79DE80EFE0E6F6E044
:1033100082830F91EF90089528E030E090E840E834
:1033200040936606492F482321F040E2409365060A
:1033300003C040E24093660640E8409365069695D8
:103340002150310961F7089528E030E090E880E0ED
:1033500040E840936606409365064091680646FD46
:10336000892B96952150310999F708958091C23C97
:1033700088608093C23C08951F921F928BE99AE067
:10338000EDB7FEB7818392830E946F4B0F900F9031
:103390000895CF93DF93CDB7DEB72897CDBFDEBFBB
:1033A0001F821886EDB7FEB78183928388E99AE081
:1033B00083839483CE010796858396830E94DF4B97
:1033C000892B71F08F8198852091C23C892B21F047
:1033D00024602093C23C04C0822F8B7F8093C23C28
:1033E0002896CDBFDEBFDF91CF910895CF93DF93B5
:1033F000CDB7DEB72897CDBFDEBF1F821886EDB7E9
:10340000FEB78183928385E99AE083839483CE011A
:103410000796858396830E94DF4B892B19F08F8155
:103420008093C43C2896CDBFDEBFDF91CF91089535
:10343000CF93DF93CDB7DEB72897CDBFDEBFEDB713
:10344000FEB78183928389EA95E083839483CE01DA
:103450000796858396830E94DF4B892B19F08F8115
:103460000E94BD372896CDBFDEBFDF91CF91089572
:10347000CF93DF93CDB7DEB72C97CDBFDEBFEDB7CF
:10348000FEB7818392838DE995E083839483CE0197
:103490000B9685839683CE010996878390870E9439
:1034A000DF4B892B21F08B8569850E947E372C9616
:1034B000CDBFDEBFDF91CF910895CF93DF93CDB71E
:1034C000DEB76497CDBFDEBFEDB7FEB781839283D1
:1034D0008CEE98E083839483CE0143968583968314
:1034E000CE01419687839087CE010F968187928780
:1034F000CE010D96838794870E94DF4B892B09F4B8
:10350000C8C58B899C8959898F3F9105F9F4209111
:10351000AF283091B0286F857D8540E011C0880FBD
:10352000991F880F991FFC01E657F14D5383FC0149
:10353000E457FC4C6383FC01EA5DFC4D73834F5FF1
:10354000842F90E08217930750F312C0880F991FC1
:10355000880F991FFC01E657F14D5383FC01E45796
:10356000FC4C2F852383FC01EA5DFC4D2D852383D4
:10357000809104068E7F8093040687E991E001978D
:10358000F1F700C000002091AF283091B02840E052
:1035900075C5880F991F880F991FFC01E457FC4CD3
:1035A000538157FF18C05091040651605093040690
:1035B000001400140014001400140014001400146B
:1035C00000140014001400140014509104065E7FCF
:1035D0005093040617C0509104065160509304069E
:1035E00000140014001400140014509104065E7FAF
:1035F0005093040600140014001400140014001466
:103600000014001400140014001400140014FC0131
:10361000E457FC4C538156FF18C05091040651608A
:103620005093040600140014001400140014001435
:10363000001400140014001400140014001450911D
:1036400004065E7F5093040617C050910406516033
:103650005093040600140014001400140014509138
:1036600004065E7F50930406001400140014001436
:1036700000140014001400140014001400140014AA
:103680000014FC01E457FC4C538155FF18C05091C5
:103690000406516050930406001400140014001432
:1036A000001400140014001400140014001400147A
:1036B0000014509104065E7F5093040617C0509189
:1036C0000406516050930406001400140014001402
:1036D0000014509104065E7F5093040600140014F9
:1036E000001400140014001400140014001400143A
:1036F000001400140014FC01E457FC4C538154FFE7
:1037000018C0509104065160509304060014001430
:103710000014001400140014001400140014001409
:10372000001400140014509104065E7F50930406A8
:1037300017C0509104065160509304060014001401
:10374000001400140014509104065E7F5093040688
:1037500000140014001400140014001400140014C9
:1037600000140014001400140014FC01E457FC4C75
:10377000538153FF18C050910406516050930406C2
:103780000014001400140014001400140014001499
:1037900000140014001400140014509104065E7FFD
:1037A0005093040617C050910406516050930406CC
:1037B00000140014001400140014509104065E7FDD
:1037C0005093040600140014001400140014001494
:1037D0000014001400140014001400140014FC0160
:1037E000E457FC4C538152FF18C0509104065160BD
:1037F0005093040600140014001400140014001464
:10380000001400140014001400140014001450914B
:1038100004065E7F5093040617C050910406516061
:103820005093040600140014001400140014509166
:1038300004065E7F50930406001400140014001464
:1038400000140014001400140014001400140014D8
:103850000014FC01E457FC4C538151FF18C05091F7
:103860000406516050930406001400140014001460
:1038700000140014001400140014001400140014A8
:103880000014509104065E7F5093040617C05091B7
:103890000406516050930406001400140014001430
:1038A0000014509104065E7F509304060014001427
:1038B0000014001400140014001400140014001468
:1038C000001400140014FC01E457FC4C538150FF19
:1038D00018C050910406516050930406001400145F
:1038E0000014001400140014001400140014001438
:1038F000001400140014509104065E7F50930406D7
:1039000017C050910406516050930406001400142F
:10391000001400140014509104065E7F50930406B6
:1039200000140014001400140014001400140014F7
:1039300000140014001400140014FC01E657F14DAB
:10394000538157FF18C050910406516050930406EC
:1039500000140014001400140014001400140014C7
:1039600000140014001400140014509104065E7F2B
:103970005093040617C050910406516050930406FA
:1039800000140014001400140014509104065E7F0B
:1039900050930406001400140014001400140014C2
:1039A0000014001400140014001400140014FC018E
:1039B000E657F14D538156FF18C0509104065160EF
:1039C0005093040600140014001400140014001492
:1039D000001400140014001400140014001450917A
:1039E00004065E7F5093040617C050910406516090
:1039F0005093040600140014001400140014509195
:103A000004065E7F50930406001400140014001492
:103A10000014001400140014001400140014001406
:103A20000014FC01E657F14D538155FF18C0509129
:103A3000040651605093040600140014001400148E
:103A400000140014001400140014001400140014D6
:103A50000014509104065E7F5093040617C05091E5
:103A6000040651605093040600140014001400145E
:103A70000014509104065E7F509304060014001455
:103A80000014001400140014001400140014001496
:103A9000001400140014FC01E657F14D538154FF4B
:103AA00018C050910406516050930406001400148D
:103AB0000014001400140014001400140014001466
:103AC000001400140014509104065E7F5093040605
:103AD00017C050910406516050930406001400145E
:103AE000001400140014509104065E7F50930406E5
:103AF0000014001400140014001400140014001426
:103B000000140014001400140014FC01E657F14DD9
:103B1000538153FF18C0509104065160509304061E
:103B200000140014001400140014001400140014F5
:103B300000140014001400140014509104065E7F59
:103B40005093040617C05091040651605093040628
:103B500000140014001400140014509104065E7F39
:103B600050930406001400140014001400140014F0
:103B70000014001400140014001400140014FC01BC
:103B8000E657F14D538152FF18C050910406516021
:103B900050930406001400140014001400140014C0
:103BA00000140014001400140014001400145091A8
:103BB00004065E7F5093040617C0509104065160BE
:103BC00050930406001400140014001400145091C3
:103BD00004065E7F509304060014001400140014C1
:103BE0000014001400140014001400140014001435
:103BF0000014FC01E657F14D538151FF18C050915C
:103C000004065160509304060014001400140014BC
:103C10000014001400140014001400140014001404
:103C20000014509104065E7F5093040617C0509113
:103C3000040651605093040600140014001400148C
:103C40000014509104065E7F509304060014001483
:103C500000140014001400140014001400140014C4
:103C6000001400140014FC01E657F14D538150FF7D
:103C700018C05091040651605093040600140014BB
:103C80000014001400140014001400140014001494
:103C9000001400140014509104065E7F5093040633
:103CA00017C050910406516050930406001400148C
:103CB000001400140014509104065E7F5093040613
:103CC0000014001400140014001400140014001454
:103CD00000140014001400140014FC01EA5DFC4DF3
:103CE000538157FF18C05091040651605093040649
:103CF0000014001400140014001400140014001424
:103D000000140014001400140014509104065E7F87
:103D10005093040617C05091040651605093040656
:103D200000140014001400140014509104065E7F67
:103D3000509304060014001400140014001400141E
:103D40000014001400140014001400140014FC01EA
:103D5000EA5DFC4D538156FF18C050910406516036
:103D600050930406001400140014001400140014EE
:103D700000140014001400140014001400145091D6
:103D800004065E7F5093040617C0509104065160EC
:103D900050930406001400140014001400145091F1
:103DA00004065E7F509304060014001400140014EF
:103DB0000014001400140014001400140014001463
:103DC0000014FC01EA5DFC4D538155FF18C0509171
:103DD00004065160509304060014001400140014EB
:103DE0000014001400140014001400140014001433
:103DF0000014509104065E7F5093040617C0509142
:103E000004065160509304060014001400140014BA
:103E10000014509104065E7F5093040600140014B1
:103E200000140014001400140014001400140014F2
:103E3000001400140014FC01EA5DFC4D538154FF92
:103E400018C05091040651605093040600140014E9
:103E500000140014001400140014001400140014C2
:103E6000001400140014509104065E7F5093040661
:103E700017C05091040651605093040600140014BA
:103E8000001400140014509104065E7F5093040641
:103E90000014001400140014001400140014001482
:103EA00000140014001400140014FC01EA5DFC4D21
:103EB000538153FF18C0509104065160509304067B
:103EC0000014001400140014001400140014001452
:103ED00000140014001400140014509104065E7FB6
:103EE0005093040617C05091040651605093040685
:103EF00000140014001400140014509104065E7F96
:103F0000509304060014001400140014001400144C
:103F10000014001400140014001400140014FC0118
:103F2000EA5DFC4D538152FF18C050910406516068
:103F3000509304060014001400140014001400141C
:103F40000014001400140014001400140014509104
:103F500004065E7F5093040617C05091040651601A
:103F6000509304060014001400140014001450911F
:103F700004065E7F5093040600140014001400141D
:103F80000014001400140014001400140014001491
:103F90000014FC01EA5DFC4D538151FF18C05091A3
:103FA0000406516050930406001400140014001419
:103FB0000014001400140014001400140014001461
:103FC0000014509104065E7F5093040617C0509170
:103FD00004065160509304060014001400140014E9
:103FE0000014509104065E7F5093040600140014E0
:103FF0000014001400140014001400140014001421
:10400000001400140014FC01EA5DFC4D838180FF64
:1040100018C0809104068160809304060014001487
:1040200000140014001400140014001400140014F0
:10403000001400140014809104068E7F80930406FF
:1040400017C0809104068160809304060014001458
:10405000001400140014809104068E7F80930406DF
:1040600000140014001400140014001400140014B0
:10407000001400140014001400144F5F842F90E00B
:104080008217930708F485CA8091040681608093A3
:1040900004066496CDBFDEBFDF91CF910895CF9324
:1040A000DF93CDB7DEB72897CDBFDEBFEDB7FEB744
:1040B0008183928388E496E083839483CE0107967C
:1040C000858396830E94DF4B892BA1F08F81988591
:1040D000892B39F081E080937E2E8091A4068F7E1B
:1040E00007C010927E2E0E947A148091A4068061EF
:1040F0008093A4062896CDBFDEBFDF91CF910895AF
:104100008091C23C88608B7F8093C23C8EEF80930D
:10411000C43C82E090E28093FA3C9093FB3C08958B
:10412000CF92DF92EF92FF920F931F93CF93DF9383
:104130008C0168E170E20E942E4B7C01C3E2D2E068
:10414000FE013496C590D490C701B6010E941C4B65
:10415000892B31F0269683E0CD30D80789F71AC035
:10416000FE01E590F4902296FE01859194918130B4
:10417000910539F4C6010E94254B0196800F911FCD
:1041800004C0892B39F480E090E0F701199581E0B3
:1041900090E002C080E090E0DF91CF911F910F91FD
:1041A000FF90EF90DF90CF900895CF9300D01F92B3
:1041B0008091C23C83FF07C00F900F900F900F902B
:1041C000CF910C943D35E0918C3890918D38E91762
:1041D00009F4B0C0EF5FE0938C38F0E0E457F74C9F
:1041E000C281CC2309F4A6C0CD3009F45FC0909100
:1041F000C33C923308F09EC0CF3740F4C03250F435
:10420000C930F9F0CB3109F049C03CC0CF3709F0D3
:1042100045C021C082FF0CC08DE19AE0EDB7FEB72A
:10422000818392838C2F90E0838394830E946F4BD1
:104230008091C33CE82FF0E0E057F34CC0838F5FE0
:104240001EC0E92FF0E0E057F34C80E280839F5FCF
:104250009093C33C23C0992309F182FF1FC080E2E1
:104260009AE0EDB7FEB7818392830E946F4B8091F5
:10427000C33CE82FF0E0E057F34C1082815080936C
:10428000C33C0CC0992351F084E29AE0EDB7FEB72D
:10429000818392830E946F4B1092C33C8091C33CF8
:1042A000833308F447C01092C33C44C0982F9370E6
:1042B00009F040C0E091C33CF0E0E057F34C1082BD
:1042C0001092C33C82FF08C088E29AE0EDB7FEB7C7
:1042D000818392830E946F4B80E99CE321DF892BCD
:1042E00029F08091C23C837029F50CC08091903CEC
:1042F000882341F08BE29AE0EDB7FEB78183928389
:104300000E946F4B8091C23C82FF14C08091C43CDC
:10431000863080F48FE29AE0EDB7FEB78183928316
:104320000E946F4B82E39AE0EDB7FEB781839283E0
:104330000E946F4B0F900F900F900F90CF910895A8
:104340001F921F929091C43C891750F1833089F0DD
:1043500020F48130E9F050F406C0853081F060F03F
:104360008F3F99F40FC084E39AE014C085E49AE08B
:1043700011C08CE49AE00EC083E59AE00BC08DE595
:104380009AE008C085E69AE005C086E69AE002C099
:104390008DE39AE0EDB7FEB7818392830E946F4B65
:1043A0000F900F9008951F93CF93DF931F921F924A
:1043B000182FEB01C5DF8091C43C181730F0EDB722
:1043C000FEB7C183D2830E946F4B0F900F90DF9195
:1043D000CF911F910895CF93DF93CDB7DEB7289784
:1043E000CDBFDEBFEDB7FEB78183928384E099E055
:1043F00083839483CE010796858396830E94DF4B47
:10440000892B89F08F8198858230910560F48093A3
:10441000DE21892B21F083E067E279E003C083E0AD
:1044200067E079E0C0DF2896CDBFDEBFDF91CF9196
:104430000895CF93DF93CDB7DEB72897CDBFDEBF0A
:10444000EDB7FEB78183928388E096E083839483FF
:10445000CE010796858396830E94DF4B892BB1F0AE
:104460008F819885892B49F08091A4068062809382
:10447000A40683E069E276E008C08091A4068F7DFF
:104480008093A40683E06BE076E08DDF2896CDBFB5
:10449000DEBFDF91CF910895CF93DF93CDB7DEB725
:1044A0002897CDBFDEBFEDB7FEB78183928384EE40
:1044B00095E083839483CE010796858396830E943B
:1044C000DF4B892BB1F08F819885892B49F0809142
:1044D000A40680618093A40683E067EF75E008C0BE
:1044E0008091A4068F7E8093A40683E067EE75E03A
:1044F0005ADF2896CDBFDEBFDF91CF910895CF93CD
:10450000DF93CDB7DEB72897CDBFDEBFEDB7FEB7DF
:10451000818392838EEB95E083839483CE0107960B
:10452000858396830E94DF4B892B71F08F8198855C
:10453000019751F4809124068E7F8093240683E0B6
:1045400063ED75E030DF09C083E061EC75E02BDFDF
:10455000809124068160809324062896CDBFDEBF1B
:10456000DF91CF91089583E06FEA75E01CDFE0E210
:10457000F6E084818E7F848384818D7F84838FE3C2
:104580009FE10197F1F700C000008481826084837D
:1045900008950E942737882321F083E06AEC74E0B5
:1045A00003C083E060EB74E0FECE83E06FE974E06B
:1045B000FADE0C942D371F93CF93DF931F921F9237
:1045C000182FEB01BDDE8091C43C181730F0EDB719
:1045D000FEB7C183D2830E94584B0F900F90DF919A
:1045E000CF911F91089583E06AE170E2E4DF0E94B9
:1045F0001E460E945B4680FDFCCF8FEF60E370E2B9
:10460000DACFCF92DF92EF92FF92CF93DF93CDB7C5
:10461000DEB76097CDBFDEBFEDB7FEB78183928373
:104620008FE09AE083839483CE010F9685839683EF
:10463000CE010D9687839087CE010B968187928756
:104640000E94C24B892BD1F0CD84DE84DC2CCC249B
:104650008B859C85C80ED91EE12CF12C82E06AE87E
:1046600070E2A9DFC701B6010E942E460E945B4698
:1046700080FDFCCF8FEF62EA70E29DDF6096CDBFD8
:10468000DEBFDF91CF91FF90EF90DF90CF90089544
:10469000CF92DF92EF92FF92CF93DF93CDB7DEB749
:1046A0006097CDBFDEBFEDB7FEB78183928381E017
:1046B0009AE083839483CE010F9685839683CE01FF
:1046C0000D9687839087CE010B96818792870E94F3
:1046D000DF4B892BD1F0CD84DE84DC2CCC248B8580
:1046E0009C85C80ED91EE12CF12C82E066E071E2B7
:1046F00062DFC701B6010E94A9460E945B4680FDA9
:10470000FCCF8FEF62EA70E256DF6096CDBFDEBF6E
:10471000DF91CF91FF90EF90DF90CF900895CF93EE
:10472000DF93CDB7DEB72897CDBFDEBF1F821886D7
:10473000EDB7FEB7818392838EEF99E083839483F4
:10474000CE010796858396830E94DF4B892B79F0F3
:104750008F819885892B21F483E067E271E203C0A1
:1047600083E062E471E227DF8F810E9497462896FA
:10477000CDBFDEBFDF91CF9108950F931F93CF93ED
:10478000DF93CDB7DEB7EA97CDBFDEBF0E945B46B1
:104790008E01075F1F4FEDB7FEB70183128324ED33
:1047A00039E023833483292F3327258336839927C0
:1047B000878390870E94984B83E0B801FCDEEA96DD
:1047C000CDBFDEBFDF91CF911F910F9108950F9361
:1047D0001F93CF93DF93CDB7DEB7EA97CDBFDEBF90
:1047E000EDB7FEB7818392838BE699E08383948350
:1047F000CE01C996858396830E94DF4B892B81F178
:1048000089AD9AAD81309105A9F48E01095F1F4FE2
:10481000EDB7FEB7018312832EE639E0238334839C
:10482000858396830E94984B83E0B801C4DE0E9482
:10483000304516C0892BA1F48E01095F1F4FEDB7DB
:10484000FEB70183128381EA99E083839483158202
:1048500016820E94984B83E0B801ADDE0E943D4570
:10486000EA96CDBFDEBFDF91CF911F910F910895E2
:104870000F931F93CF93DF93CDB7DEB7EC97CDBFE8
:10488000DEBF0E944C458E01055F1F4FEDB7FEB79E
:104890000183128326E439E023833483262F30E01A
:1048A00025833683272F30E02783308790E0818768
:1048B00092870E94984B83E0B8017DDEEC96CDBFD5
:1048C000DEBFDF91CF911F910F9108951F93CF937A
:1048D000DF93CDB7DEB72897CDBFDEBF1F82188626
:1048E000EDB7FEB7818392838DE898E0838394834C
:1048F000CE010796858396830E94DF4B892B09F4AE
:1049000042C08F8198858F3F910541F580E069EB2A
:1049100078E049DD12E3FFEF29E688E1F15020401D
:104920008040E1F700C000008091A4068160809380
:10493000A4069FEFE9E6F8E19150E040F040E1F78E
:1049400000C000008091A4068E7F8093A4068FEFA4
:104950006EE270E230DE1150F1F615C001978E3F25
:10496000910540F480E060E978E01DDD8091A406C7
:10497000816007C080E065EA78E015DD8091A406DB
:104980008E7F8093A4062896CDBFDEBFDF91CF91A6
:104990001F910895CF92DF92EF92FF920F931F9392
:1049A000CF93DF93CDB7DEB7CC55D109CDBFDEBFF6
:1049B000EDB7FEB78183928387E598E08383948384
:1049C0008E01055A1F4F058316837E01F9E5EF0E10
:1049D000F11CEDB7FEB7E782F0860E94DF4B892B12
:1049E00009F44EC089E0C82ED12CCC0EDD1EEDB7E7
:1049F000FEB7C182D28283E698E083839483F80174
:104A000080819181EDB7FEB785839683F701808120
:104A10009181EDB7FEB7878390870E94984B83E022
:104A2000B601C9DDF70140815181F8018081918192
:104A3000982F8827840F951F80932A2890932B28DE
:104A400080E06FE00E94BE1780E060E1F8014081E5
:104A50000E94BE1760912A2870912B2880E090E078
:104A60000E94C14920E03FEF4FE757E40E942D49E3
:104A70006093852E7093862E8093872E9093882E38
:104A8000C45ADF4FCDBFDEBFDF91CF911F910F9191
:104A9000FF90EF90DF90CF900895EF92FF920F93E9
:104AA0001F93CF93DF93CDB7DEB7C855D109CDBFE4
:104AB000DEBFEDB7FEB78183928385E398E0838301
:104AC00094838E01095A1F4F058316830E94DF4B82
:104AD000892BE1F137E0E32EF12CEC0EFD1EEDB752
:104AE000FEB7E182F2828BE398E083839483F8013E
:104AF00080819181EDB7FEB7858396830E94984BA4
:104B000083E0B70158DDF80140814093892E80E0B1
:104B100069E00E94BE176091892E70E080E090E00D
:104B20000E94C34920E030E040E850E40E94B74AC8
:104B300020E030E04FE753E40E942D496093F12DCF
:104B40007093F22D8093F32D9093F42DC85ADF4F7C
:104B5000CDBFDEBFDF91CF911F910F91FF90EF90FE
:104B60000895AF92BF92CF92DF92EF92FF920F9390
:104B70001F93CF93DF93CDB7DEB7C056D109CDBF1A
:104B8000DEBFEDB7FEB78183928381EF97E0838329
:104B900094836E01FFE5CF0ED11CEDB7FEB7C58241
:104BA000D6827E01FDE5EF0EF11CEDB7FEB7E78280
:104BB000F0868E01055A1F4F018712870E94DF4B36
:104BC000892B09F4FFC5FBE0AF2EB12CAC0EBD1E46
:104BD000EDB7FEB7A182B28283E098E0838394832D
:104BE000F60180819181EDB7FEB785839683F70149
:104BF00080819181EDB7FEB787839087F80180812E
:104C00009181EDB7FEB7818792870E94984B83E030
:104C1000B501D1DCF60140814093EF2DF701808191
:104C200080932928F801808180932C2880E063E01C
:104C30000E94BE1780E064E0F70140810E94BE1729
:104C400080E065E0F80140810E94BE1780917E2ED1
:104C5000882329F08091F02D813009F0B3C520918F
:104C6000AF283091B0285091EF2D60912928709194
:104C70002C2840E011C0880F991F880F991FFC0154
:104C8000E657F14D5383FC01E457FC4C6383FC0170
:104C9000EA5DFC4D73834F5F842F90E0821793078A
:104CA00050F3809104068E7F8093040687E991E09B
:104CB0000197F1F700C000002091AF283091B02893
:104CC00040E075C5880F991F880F991FFC01E457B4
:104CD000FC4C538157FF18C050910406516050930B
:104CE000040600140014001400140014001400142E
:104CF0000014001400140014001400145091040651
:104D00005E7F5093040617C0509104065160509383
:104D1000040600140014001400140014509104063A
:104D20005E7F509304060014001400140014001455
:104D300000140014001400140014001400140014D3
:104D4000FC01E457FC4C538156FF18C050910406F7
:104D50005160509304060014001400140014001451
:104D600000140014001400140014001400140014A3
:104D7000509104065E7F5093040617C050910406BC
:104D80005160509304060014001400140014001421
:104D9000509104065E7F5093040600140014001422
:104DA0000014001400140014001400140014001463
:104DB00000140014FC01E457FC4C538155FF18C04B
:104DC000509104065160509304060014001400141E
:104DD0000014001400140014001400140014001433
:104DE00000140014509104065E7F5093040617C00F
:104DF00050910406516050930406001400140014EE
:104E000000140014509104065E7F509304060014B1
:104E100000140014001400140014001400140014F2
:104E20000014001400140014FC01E457FC4C5381DE
:104E300054FF18C0509104065160509304060014AA
:104E400000140014001400140014001400140014C2
:104E50000014001400140014509104065E7F509357
:104E6000040617C0509104065160509304060014C4
:104E70000014001400140014509104065E7F509337
:104E8000040600140014001400140014001400148C
:104E9000001400140014001400140014FC01E45762
:104EA000FC4C538153FF18C050910406516050933D
:104EB000040600140014001400140014001400145C
:104EC000001400140014001400140014509104067F
:104ED0005E7F5093040617C05091040651605093B2
:104EE0000406001400140014001400145091040669
:104EF0005E7F509304060014001400140014001484
:104F00000014001400140014001400140014001401
:104F1000FC01E457FC4C538152FF18C05091040629
:104F2000516050930406001400140014001400147F
:104F300000140014001400140014001400140014D1
:104F4000509104065E7F5093040617C050910406EA
:104F5000516050930406001400140014001400144F
:104F6000509104065E7F5093040600140014001450
:104F70000014001400140014001400140014001491
:104F800000140014FC01E457FC4C538151FF18C07D
:104F9000509104065160509304060014001400144C
:104FA0000014001400140014001400140014001461
:104FB00000140014509104065E7F5093040617C03D
:104FC000509104065160509304060014001400141C
:104FD00000140014509104065E7F509304060014E0
:104FE0000014001400140014001400140014001421
:104FF0000014001400140014FC01E457FC4C53810D
:1050000050FF18C0509104065160509304060014DC
:1050100000140014001400140014001400140014F0
:105020000014001400140014509104065E7F509385
:10503000040617C0509104065160509304060014F2
:105040000014001400140014509104065E7F509365
:1050500004060014001400140014001400140014BA
:10506000001400140014001400140014FC01E6578E
:10507000F14D538157FF18C0509104065160509371
:10508000040600140014001400140014001400148A
:1050900000140014001400140014001450910406AD
:1050A0005E7F5093040617C05091040651605093E0
:1050B0000406001400140014001400145091040697
:1050C0005E7F5093040600140014001400140014B2
:1050D0000014001400140014001400140014001430
:1050E000FC01E657F14D538156FF18C0509104065C
:1050F00051605093040600140014001400140014AE
:1051000000140014001400140014001400140014FF
:10511000509104065E7F5093040617C05091040618
:10512000516050930406001400140014001400147D
:10513000509104065E7F509304060014001400147E
:1051400000140014001400140014001400140014BF
:1051500000140014FC01E657F14D538155FF18C0AF
:10516000509104065160509304060014001400147A
:10517000001400140014001400140014001400148F
:1051800000140014509104065E7F5093040617C06B
:10519000509104065160509304060014001400144A
:1051A00000140014509104065E7F5093040600140E
:1051B000001400140014001400140014001400144F
:1051C0000014001400140014FC01E657F14D538143
:1051D00054FF18C050910406516050930406001407
:1051E000001400140014001400140014001400141F
:1051F0000014001400140014509104065E7F5093B4
:10520000040617C050910406516050930406001420
:105210000014001400140014509104065E7F509393
:1052200004060014001400140014001400140014E8
:10523000001400140014001400140014FC01E657BC
:10524000F14D538153FF18C05091040651605093A3
:1052500004060014001400140014001400140014B8
:1052600000140014001400140014001450910406DB
:105270005E7F5093040617C050910406516050930E
:1052800004060014001400140014001450910406C5
:105290005E7F5093040600140014001400140014E0
:1052A000001400140014001400140014001400145E
:1052B000FC01E657F14D538152FF18C0509104068E
:1052C00051605093040600140014001400140014DC
:1052D000001400140014001400140014001400142E
:1052E000509104065E7F5093040617C05091040647
:1052F00051605093040600140014001400140014AC
:10530000509104065E7F50930406001400140014AC
:1053100000140014001400140014001400140014ED
:1053200000140014FC01E657F14D538151FF18C0E1
:1053300050910406516050930406001400140014A8
:1053400000140014001400140014001400140014BD
:1053500000140014509104065E7F5093040617C099
:105360005091040651605093040600140014001478
:1053700000140014509104065E7F5093040600143C
:10538000001400140014001400140014001400147D
:105390000014001400140014FC01E657F14D538171
:1053A00050FF18C050910406516050930406001439
:1053B000001400140014001400140014001400144D
:1053C0000014001400140014509104065E7F5093E2
:1053D000040617C05091040651605093040600144F
:1053E0000014001400140014509104065E7F5093C2
:1053F0000406001400140014001400140014001417
:10540000001400140014001400140014FC01EA5DE0
:10541000FC4D538157FF18C05091040651605093C2
:1054200004060014001400140014001400140014E6
:105430000014001400140014001400145091040609
:105440005E7F5093040617C050910406516050933C
:1054500004060014001400140014001450910406F3
:105460005E7F50930406001400140014001400140E
:10547000001400140014001400140014001400148C
:10548000FC01EA5DFC4D538156FF18C050910406A3
:10549000516050930406001400140014001400140A
:1054A000001400140014001400140014001400145C
:1054B000509104065E7F5093040617C05091040675
:1054C00051605093040600140014001400140014DA
:1054D000509104065E7F50930406001400140014DB
:1054E000001400140014001400140014001400141C
:1054F00000140014FC01EA5DFC4D538155FF18C0F7
:1055000050910406516050930406001400140014D6
:1055100000140014001400140014001400140014EB
:1055200000140014509104065E7F5093040617C0C7
:1055300050910406516050930406001400140014A6
:1055400000140014509104065E7F5093040600146A
:1055500000140014001400140014001400140014AB
:105560000014001400140014FC01EA5DFC4D53818A
:1055700054FF18C050910406516050930406001463
:10558000001400140014001400140014001400147B
:105590000014001400140014509104065E7F509310
:1055A000040617C05091040651605093040600147D
:1055B0000014001400140014509104065E7F5093F0
:1055C0000406001400140014001400140014001445
:1055D000001400140014001400140014FC01EA5D0F
:1055E000FC4D538153FF18C05091040651605093F5
:1055F0000406001400140014001400140014001415
:105600000014001400140014001400145091040637
:105610005E7F5093040617C050910406516050936A
:105620000406001400140014001400145091040621
:105630005E7F50930406001400140014001400143C
:1056400000140014001400140014001400140014BA
:10565000FC01EA5DFC4D538152FF18C050910406D5
:105660005160509304060014001400140014001438
:10567000001400140014001400140014001400148A
:10568000509104065E7F5093040617C050910406A3
:105690005160509304060014001400140014001408
:1056A000509104065E7F5093040600140014001409
:1056B000001400140014001400140014001400144A
:1056C00000140014FC01EA5DFC4D538151FF18C029
:1056D0005091040651605093040600140014001405
:1056E000001400140014001400140014001400141A
:1056F00000140014509104065E7F5093040617C0F6
:1057000050910406516050930406001400140014D4
:1057100000140014509104065E7F50930406001498
:1057200000140014001400140014001400140014D9
:105730000014001400140014FC01EA5DFC4D838188
:1057400080FF18C0809104068160809304060014D5
:1057500000140014001400140014001400140014A9
:105760000014001400140014809104068E7F8093AE
:10577000040617C08091040681608093040600141B
:105780000014001400140014809104068E7F80938E
:105790000406001400140014001400140014001473
:1057A0000014001400140014001400144F5F842F20
:1057B00090E08217930708F485CA809104068160FF
:1057C00080930406C05ADF4FCDBFDEBFDF91CF917B
:1057D0001F910F91FF90EF90DF90CF90BF90AF900F
:1057E0000895AF92BF92CF92DF92EF92FF920F9304
:1057F0001F93CF93DF93CDB7DEB7C056D109CDBF8E
:10580000DEBFEDB7FEB78183928385EB97E083839C
:1058100094836E01FFE5CF0ED11CEDB7FEB7C582B4
:10582000D6827E01FDE5EF0EF11CEDB7FEB7E782F3
:10583000F0868E01055A1F4F018712870E94DF4BA9
:10584000892B09F444C0ABE0AA2EB12CAC0EBD1ECE
:10585000EDB7FEB7A182B28287EC97E08383948391
:10586000F60180819181EDB7FEB785839683F701BC
:1058700080819181EDB7FEB787839087F8018081A1
:105880009181EDB7FEB7818792870E94984B83E0A4
:10589000B5010E94DB22F601408140938B33F70172
:1058A00080818093F92DF80180818093272880E002
:1058B00060E00E94BE1780E061E0F70140810E9435
:1058C000BE1780E062E0F80140810E94BE17C05A16
:1058D000DF4FCDBFDEBFDF91CF911F910F91FF90C2
:1058E000EF90DF90CF90BF90AF9008958F929F92EE
:1058F000AF92BF92CF92DF92EF92FF920F931F93DE
:10590000CF93DF93CDB7DEB7C056D109CDBFDEBF91
:10591000EDB7FEB7818392838EE697E0838394830D
:105920006E01FFE5CF0ED11CEDB7FEB7C582D68262
:105930007E01FDE5EF0EF11CEDB7FEB7E782F086C4
:105940008E01055A1F4F018712870E94DF4B892B5A
:1059500009F4AEC0BBE0AB2EB12CAC0EBD1EEDB752
:10596000FEB7A182B28280E897E083839483F60138
:1059700080819181EDB7FEB785839683F7018081A1
:105980009181EDB7FEB787839087F801808191817F
:10599000EDB7FEB7818792870E94984B83E0B501EF
:1059A0000E94DB22F601C080D180C0922828F70136
:1059B000808091808092AE28F801A080B180A09272
:1059C000F82DB6017727882777FD8095982F0E94BC
:1059D000C34920E030E048EC52E40E94B74A20E09E
:1059E00030E04FE753E40E942D4920E030E048ECDE
:1059F00052E40E942D4960932123709322238093C7
:105A0000232390932423B4017727882777FD80955B
:105A1000982F0E94C34920E030E048EC52E40E94F5
:105A2000B74A20E030E04FE753E40E942D4920E0E0
:105A300030E048EC52E40E942D4960934D2270936F
:105A40004E2280934F2290935022B50177278827CA
:105A500077FD8095982F0E94C34920E030E048EC04
:105A600052E40E94B74A20E030E04FE753E40E943E
:105A70002D4920E030E048EC52E40E942D4960932B
:105A80007A2E70937B2E80937C2E90937D2E80E0D7
:105A900066E04C2D0E94BE1780E067E0F701408170
:105AA0000E94BE1780E068E0F80140810E94BE17A6
:105AB000C05ADF4FCDBFDEBFDF91CF911F910F9155
:105AC000FF90EF90DF90CF90BF90AF909F908F901E
:105AD00008950F931F93CF93DF93CDB7DEB7CE56C4
