:100000000C94FA0C0C941B0D0C941B0D0C941B0DF2
:100010000C941B0D0C941B0D0C941B0D0C941B0DC0
:100020000C941B0D0C941B0D0C941B0D0C941B0DB0
:100030000C941B0D0C941B0D0C94B9180C941B0DF7
:100040000C941B0D0C941B0D0C941B0D0C941B0D90
:100050000C941B0D0C941B0D0C941B0D0C941B0D80
:100060000C941B0D0C941B0D0C941B0D0C941B0D70
:100070000C941B0D0C941B0D0C941B0D0C941B0D60
:100080000C941B0D0C941B0D0C941B0D0C941B0D50
:100090000C941B0D0C941B0D0C941B0D0C941B0D40
:1000A0000C941B0D0C941B0D0C941B0D0C941B0D30
:1000B0000C941B0D0C941B0D0C9486390C941B0D89
:1000C0000C941B0D0C941B0D0C941B0D0C941B0D10
:1000D0000C941B0D0C941B0D0C941B0D0C941B0D00
:1000E0000C941B0D0C941B0D0C941B0D0C941B0DF0
:1000F0000C941B0D0C94EC1A0C941B0D0C941B0D02
:100100000C941B0D0C941B0D0C941B0D0C941B0DCF
:100110000C941B0D0C941B0D0C941B0D0C941B0DBF
:100120000C941B0D0C941B0D0C941B0D0C941B0DAF
:100130000C941B0D0C941B0D0C941B0D0C941B0D9F
:100140000C941B0D0C941B0D0C941B0D0C941B0D8F
:100150000C941B0D0C941B0D0C941B0D0C941B0D7F
:100160000C941B0D0C941B0D0C941B0D0C941B0D6F
:100170000C941B0D0C941B0D0C941B0D0C941B0D5F
:100180000C941B0D0C941B0D0C941B0D0C941B0D4F
:100190000C941B0D0C941B0D0C941B0D0C941B0D3F
:1001A0000C94F8180C940B190C941B0D0C941B0D4B
:1001B0000C941B0D0C941B0D0C941B0D0C941B0D1F
:1001C0000C941B0D0C941B0D0C941B0D0C941B0D0F
:1001D0000C941B0D0C941B0D0C941B0D0C940F1BFD
:1001E0000C941B0D0C941B0D0D0A3E005772697484
:1001F0006520626F6F746C6F6164657220656E61FB
:10020000626C65206279746520746F204545505298
:100210004F4D00726573657474696E672041565264
:100220000D0A008D1B00002304A01B01001E04CD3D
:100230001B01001804931B00001304961800000E05
:1002400004AF1800000804713101000204E5310117
:1002500000FC0347320100F50367260000F0031697
:10026000260100EB03EC250000E60322250000E157
:100270000330250100DC0377250100D603BE2501EC
:1002800000D103F0490000CB0304250000C503F8AA
:10029000240000BD03C8300000B7038B3A0000B053
:1002A00003C83A0000AB032F3B00008D03541C0130
:1002B000009F03341C0100A503AE2401009303E258
:1002C0002400009A039B2400008803193C0000834B
:1002D00003753000007D030F1C01007703EF1B0145
:1002E000007103A52E01006303202E01005D03E0D1
:1002F00027010056037C2701005103F92601004C19
:10030000036B2201006D03982F01006903791C0122
:10031000002B03682401004103352401003C0395B0
:100320002601003503072401004703777332383173
:1003300031726762007364737073770076737464EC
:10034000007673746F70007366796400736C706309
:10035000007362726900736E6372676200736F721A
:10036000676200736D726762006761730073617327
:10037000006761647672007361647672006761641D
:1003800076730069616476007261647600747670D9
:100390006E69007476707077720072747670007394
:1003A000747670720067747670720069747670008B
:1003B0006774767072760067747670730066706723
:1003C000616364730066706761720073667466636C
:1003D0000073667765007366657473007366736592
:1003E000007366626500736667730073667361000D
:1003F00073666769006774776972720067747769FA
:100400007200737477697200726176726200726151
:1004100076720068656C70007474796C6C0074742A
:1004200079650074747962003078253278203078EC
:10043000253278007265676973746572203078259B
:10044000303278203D2030782530327820286164A1
:1004500064723A20307825303278290D0A003078DD
:100460002532782030782532780072656769737498
:10047000657220307825303278203D203078253064
:1004800032782028616464723A20307825303278DE
:10049000290D0A00307825327820307825327820EE
:1004A00030782532780073656E64696E6720307825
:1004B0002530327820746F207265676973746572B5
:1004C000203078253032782028616464723A2030F8
:1004D0007825303278290D0A007265736574746965
:1004E0006E6720465047410D0A0046504741206341
:1004F0006F6E666967206973206E6F7420646F6E1B
:10050000650D0A004650474120636F6E666967209B
:10051000697320646F6E650D0A0072656164206600
:10052000726F6D207374617475732072656769737F
:1005300074657220310D0A007374617475732072D2
:10054000656769737465722031203D2030782530ED
:1005500032780D0A00726561642066726F6D2073D7
:100560007461747573207265676973746572203283
:100570000D0A007374617475732072656769737412
:1005800065722032203D203078253032780D0A0007
:10059000726561642066726F6D20766964656F2094
:1005A0007374616E646172642072656769737465E7
:1005B000720D0A00766964656F207374616E646100
:1005C0007264207265676973746572203D203078AB
:1005D000253032780D0A00307825327820307825A1
:1005E0003278003078253278007265736574696EF0
:1005F00067205456500D0A002564007365747469B1
:100600006E6720545650206F66660D0A007365743D
:1006100074696E6720545650206F6E0D0A00726523
:10062000736574696E67204144560D0A0041445653
:1006300037363131207265766973696F6E20683A9A
:10064000307825303278206C3A3078253032780D89
:100650000A0048444D49206361626C6520646574FA
:1006600065637465642073746174653A203078251D
:100670003032780D0A0030782532782030782532F3
:100680007800307825327800256400656E61626CF0
:10069000696E6720465047410D0A006469736162C4
:1006A0006C696E6720465047410D0A00256400734F
:1006B000657474696E672050414C206173207669BF
:1006C00064656F207374616E646172640073657435
:1006D00074696E67204E54534320617320766964B9
:1006E000656F207374616E646172640025640043F9
:1006F0006F6C6F72206368616E6E656C20636F6EE5
:1007000076657273696F6E20616374697669747956
:100710003A2025640D0A005369676E616C2073747A
:10072000617475733A2025640D0A00427269676826
:10073000746E6573732076616C75653A2030782528
:1007400032780D0A004D6178696D756D205247420F
:1007500020636F6D706F6E656E742076616C756569
:10076000733A20307825303278203078253032784E
:10077000203078253032780D0A00524742206F66CB
:10078000667365742076616C7565733A20307825E0
:100790003032782030782530327820307825303269
:1007A000780D0A005247422076616C756573206FA0
:1007B0006E206C6F7374207369676E616C3A2030C1
:1007C00078253032782030782530327820307825FE
:1007D0003032780D0A004C6F7750617373204320DC
:1007E00076616C75653A2030782530327820307823
:1007F000253032780D0A0046504741205943624364
:10080000722073696D756C6174696F6E3A2025642E
:100810000A003078253278203078253278203078F8
:10082000253278004D6178696D756D205247422000
:10083000636F6D706F6E656E742076616C75657335
:100840003A203078253032782030782530327820C0
:100850003078253032780D0A003078253278203013
:100860007825327820307825327800524742206F40
:1008700066667365742076616C7565733A203078AE
:100880002530327820307825303278203078253085
:1008900032780D0A00307825327820307825327889
:1008A000203078253278005247422076616C756599
:1008B00073206F6E206C6F7374207369676E616C48
:1008C0003A20307825303278203078253032782040
:1008D0003078253032780D0A003078253278004E95
:1008E0006577206272696768746E657373206973D7
:1008F0003A203078253032780D0A00307825327869
:10090000203078253278004E6577206C6F77207024
:100910006173732066696C74657220432069733A51
:1009200020307825303278203078253032780D0A22
:1009300000256400536574204453505F494E5F5353
:100940005720686967680D0A005365742044535046
:100950005F494E5F5357206C6F770D0A00537461E7
:100960007274696E67206C6F6F7020746F20656E93
:1009700061626C652F64697361626C6520445350D9
:100980005F494E5F5357207369676E616C0D0A00B3
:10099000307825327820307825327820307825322A
:1009A0007820307825327800256400465047412071
:1009B00059436243722073696D756C6174696F6E1F
:1009C0002064697361626C65640A00465047412087
:1009D00059436243722073696D756C6174696F6EFF
:1009E00020656E61626C65640A0053504920666C34
:1009F0006173682049443A203078253032782030BD
:100A00007825303278203078253032780D0A00256C
:100A1000640041565220746F204650474120636F56
:100A20006E66696720666C617368206163636573D5
:100A300073202853504929207374617475733A20C8
:100A400025640D0A0041565220746F2046504741DC
:100A500020636F6E66696720666C617368206163EE
:100A6000636573732028535049292073746174752A
:100A7000733A2025640D0A0053657269616C204643
:100A800050474120666C617368207374617475739C
:100A90003A20307825303278203078253032780D81
:100AA0000A002564003078253278253032782530E8
:100AB0003278003078253278253032782530327817
:100AC00000256300082008000D0A3E000D0A0045BD
:100AD0005252000D0A003E0046494E4553543A20FA
:100AE0000046494E45523A200046494E453A2000BC
:100AF000494E464F3A20005741524E494E473A2000
:100B0000004552524F523A20000046494E45535438
:100B10003A20006661696C6564212054574920724F
:100B20006573756C74203D2025640D0A0073756330
:100B30006365656465640D0A0025640025640075BD
:100B4000736167653A0D0A0D0A2D2D2D204156520D
:100B500020584D656761202D2D2D0D0A0972617693
:100B6000723A20526573657420746865204156524C
:100B700020584D656761206D6963726F636F6E7495
:100B8000726F6C6C65722E0D0A0972617672623A30
:100B90002052657365742074686520415652205850
:100BA0004D656761206D6963726F636F6E74726FFC
:100BB0006C6C657220616E64206A756D7020696E60
:100BC000746F2074686520626F6F746C6F61646508
:100BD000722E0D0A0D0A2D2D2D20436F6C6F722081
:100BE00070726F63657373696E67202D2D2D0D0A0A
:100BF000097361733A205365742074686520636FCC
:100C00006C6F72206368616E6E656C2067656E65DF
:100C1000726174696F6E207374617475733A2031F8
:100C2000203D206163746976653B2030203D20695A
:100C30006E6163746976650D0A096761733A2047CE
:100C4000657420416D62696C6967687420737461B2
:100C50007475732E0D0A0D0A2D2D2D204650474117
:100C6000202D2D2D0D0A0966706761723A2052659C
:100C700073657420746865204650474120286E4390
:100C80006F6E66696720706F776572206379636C39
:100C900065290D0A09667067616364733A204765C8
:100CA000742074686520434F4E465F444F4E452084
:100CB0007369676E616C207374617475732E0D0AAD
:100CC0000D0A2D2D2D2054565035313436202D2D22
:100CD0002D0D0A097476707077723A20526571751D
:100CE00069726573206120706172616D65746572EF
:100CF0003A20303D7475726E20545650206F6666EF
:100D00002C20313D7475726E206974206F6E2E0D2B
:100D10000A09727476703A2052657365742074689B
:100D200065205456502E0D0A09697476703A204990
:100D30006E697469616C697A6520746865205456BF
:100D4000502E0D0A0967747670733A204765742037
:100D5000545650207374617475732E205072696EEE
:100D60007473206F75742074686520545650207316
:100D7000746174757320746F20746865207474795D
:100D80002E0D0A097476706E693A20537769746380
:100D90006820746F206E6578742054565020696EF8
:100DA0007075742E20537769746368657320746F4F
:100DB000206E657874207369676E616C20696E704F
:100DC0007574206368616E6E656C2E0D0A09677418
:100DD000767072763A205072696E7473206F7574F3
:100DE000207468652054565020524F4D207665720D
:100DF00073696F6E206E756D6265722E0D0A0967DC
:100E0000747670723A20476574205456502072658B
:100E10006769737465722E205265717569726573A6
:100E20002061207265676973746572206164647201
:100E3000657373206173206120706172616D6574E8
:100E4000657220616E64207072696E7473206F75B4
:100E500074207468652072656769737465727320A5
:100E600076616C7565206173206865782E0D0A09BE
:100E700073747670723A2053657420545650207201
:100E8000656769737465722E205265717569726544
:100E90007320612072656769737465722061646490
:100EA0007265737320616E64207468652076616C6E
:100EB000756520746F207361766520696E746F208C
:100EC00074686520676976656E20726567697374FA
:100ED0006572206173206865782E0D0A0D0A2D2D2C
:100EE0002D2041445637363131202D2D2D0D0A0944
:100EF000726164763A205265736574207468652067
:100F0000414456373631310D0A09696164763A2019
:100F1000496E697420746865204144563736313112
:100F20000D0A0967616476733A2047657420746816
:100F300065204144563736313120737461747573BE
:100F40000D0A0967616476723A204765742041444E
:100F5000562072656769737465722076616C756579
:100F60002E205265676973746572206164647265CE
:100F700073732061732030784E4E20697320726540
:100F80007175697265642E0D0A0973616476723A2F
:100F900020536574206120737065636966696320FE
:100FA0004144562072656769737465722E205265DC
:100FB000676973746572206164647265737320611C
:100FC000732030784E4E20616E642076616C7565BA
:100FD0002061732030784E4E2069732072657175E0
:100FE000697265642E0D0A0D0A2D2D2D20436F6C3C
:100FF0006F722070726F63657373696E67207365BB
:101000007474696E6773202D2D2D0D0A09736D722E
:1010100067623A20536574206D6178696D756D2043
:101020005247422076616C75657320666F7220743A
:101030006865207265636F676E697A656420636FA7
:101040006C6F7220636F6D706F6E656E74732E209F
:101050005265717569726573207468726565206880
:10106000657861646563696D616C20706172616D42
:10107000657465722E0D0A09736F7267623A2053A8
:1010800065742061206F66667365742076616C7587
:1010900065732077686963682077696C6C20626586
:1010A00020616464656420746F20746865207265D3
:1010B000636F676E697A656420636F6C6F72207608
:1010C000616C7565732E2052657175697265732048
:1010D00074687265652068657861646563696D61CF
:1010E0006C20706172616D657465722E0D0A0973F2
:1010F0006E637267623A20536574205247422063E0
:101100006F6C6F72207768696368206973207368F9
:101110006F776E206966206E6F20696E707574201F
:101120007369676E616C20697320636F6E6E6563AF
:101130007465642E205265717569726573207468D8
:101140007265652068657861646563696D616C20AE
:10115000706172616D657465722E0D0A0973627239
:10116000693A2053657420746865206F75747075D2
:1011700074206272696768746E6573732E2052659D
:101180007175697265732074687265652068657829
:1011900061646563696D616C20706172616D657415
:1011A00065722E0D0A09736C70633A2053657420C2
:1011B000746865204C6F77506173732066696C7436
:1011C000657220632D76616C75652E0D0A0D0A2DF2
:1011D0002D2D205350492046504741207365726998
:1011E000616C20666C617368206163636573732052
:1011F0002D2D2D0D0A09736673613A20456E6162CB
:101200006C652F64697361626C652041565220667B
:101210006C617368206163636573732028313D6579
:101220006E61626C65642F303D64697361626C65E8
:1012300064292E0D0A09736667693A204765742090
:101240007468652073657269616C20666C6173688F
:1012500020494420696E666F726D6174696F6E2EED
:101260000D0A09736667733A2047657420746865D0
:101270002073657269616C20666C61736820737499
:101280006174757320696E666F726D6174696F6EDB
:101290002E0D0A09736662653A2053504920666C28
:1012A0006173682062756C6B2065726173652E0DC9
:1012B0000A09736673653A2053504920666C61735E
:1012C0006820736563746F72206572617365206650
:1012D0006F72206F6E6520736563746F7220286172
:1012E000646472657373206C696B6520307830318B
:1012F00030323033207265717569726564292E0D44
:101300000A0973666574733A2053504920666C610C
:10131000736820736563746F7220657261736520F2
:10132000666F72206D756C7469706C65207365638F
:10133000746F7273202861646472657373206F66C2
:10134000206C61737420736563746F72206C696BB9
:1013500065203078303730303030207265717569F3
:10136000726564292E0D0A09736677653A20535019
:101370004920666C61736820777269746520656EB8
:1013800061626C652028313D656E61626C65642F19
:10139000303D64697361626C6564292E0D0A0973BE
:1013A000667466633A20456E61626C6520465047FC
:1013B0004120666C61736820636F6E74656E742083
:1013C0007472616E73666572206D6F646520284665
:1013D00050474120636F6E66696720666C61736871
:1013E00020616363657373290D0A0D0A2D2D2D206D
:1013F0005454592066756E6374696F6E616C6974BC
:1014000079202D2D2D0D0A09747479653A204469CF
:101410007361626C65732F456E61626C65732074D5
:10142000686520747479206563686F2E0D0A0974ED
:1014300074796C6C3A2052657175697265732061BC
:1014400020706172616D657465722028302E2E32B5
:101450003535292077686963682072657072657315
:10146000656E747320746865207474792076657273
:10147000626F736974792E0D0A0909202030202DBE
:101480002046494E4553540D0A0909202031202D8C
:101490002046494E45520D0A0909202032202D20B0
:1014A00046494E450D0A0909202033202D20494E7A
:1014B000464F0D0A0909202034202D205741524E55
:1014C000494E470D0A0909202035202D204552524A
:1014D0004F520D0A0909323535202D204E4F4E4509
:1014E0002F4D6F6E69746F72206D6F64650D0A0DFC
:1014F0000A2D2D2D204932432074657374696E675F
:10150000202D2D2D0D0A0967747769723A204164E8
:1015100064726573732061732030784E4E20616E63
:101520006420726567697374657220617320307816
:101530004E4E0D0A096774776972723A20416464ED
:10154000726573732061732030784E4E20616E6433
:101550002072656769737465722061732030784EFC
:101560004E202875736573207265706561746564BB
:101570002072656164290D0A0973747769723A20D3
:10158000416464726573732061732030784E4E201D
:10159000616E64207265676973746572206173207F
:1015A00030784E4E20616E642076616C75652061E6
:1015B000732030784E4E0D0A0D0A2D2D2D204F74BC
:1015C0006865722074657374726F7574696E657383
:1015D000202D2D2D0D0A09736679643A20456E6120
:1015E000626C652F64697361626C652073696D75E7
:1015F0006C6174696F6E206F6620465047412059B8
:101600004362437220646174610D0A097673746FDA
:10161000703A2052657175697265732061206C6F34
:10162000676963616C2076616C75653A20313D763F
:101630006964656F207363616C696E6720646973A8
:1016400061626C65643B20303D766964656F7363ED
:10165000616C696E6720656E61626C65640D0A0974
:10166000767374643A20526571756972657320618E
:10167000206C6F676963616C2076616C75653A20D8
:10168000313D766964656F20737464206973204E00
:101690005453433B20303D766964656F2073746416
:1016A0002069732050414C0D0A097773323831316B
:1016B0007267623A2053656E64206120636F6C6FBD
:1016C0007220746F206F6E65206F7220616C6C20C9
:1016D000777332383131204C4544732E2052657176
:1016E000756972657320746865207773323831319B
:1016F00020616464726573732C2074686520726560
:10170000642C20677265656E20616E6420626C7562
:10171000652077616C75657320617320686578203A
:101720002830784E4E292E0D0A0973647370737732
:101730003A20536574204453505F494E5F535720FD
:101740007369676E616C2073746174652028313D24
:101750006F6E3B323D6F66663B3235353D6D756C65
:101760007469706C65206C6F6F70290D0A0D0A002A
:1017700073656E64696E6720307825303278207426
:101780006F20726567697374657220307825303216
:10179000780D0A0072656769737465722030782568
:1017A000303278203D203078253032780D0A0072B2
:1017B0006561642066726F6D20524F4D20766572B0
:1017C00073696F6E2072656769737465720D0A00C4
:1017D000524F4D2076657273696F6E2069732030A9
:1017E00078253032780D0A0073656E64696E672063
:1017F00030782530327820746F2072656769737491
:101800006572203078253032780D0A00726567697C
:101810007374657220307825303278203D2030781E
:10182000253032780D0A0098F48098F57C98F84CB1
:1018300098F96498FA6C98FB6898FD44980B449862
:101840000C42446C00689B03686F0868851F6887BA
:10185000706857DA685801680398684C44647700E8
:101860009801069802F5980340980528980B44982B
:101870000C4298147F9815809819839820F8983313
:101880004044BA01644081689B0368C10168C20199
:1018900068C30168C40168C50168C60168C70168FA
:1018A000C80168C90168CA0168CB0168CC01680039
:1018B000006883FE686F0C68851F688770688D04F8
:1018C000688E1E681A8A6857DA6858016803986833
:1018D000751064770064522064530064709E0000A9
:1018E0000000FFFFFFFFFFFF00068F071101000050
:1018F0000017110103800C09780A1EAC985956850F
:1019000028295257000000010101010101010101D4
:10191000010101010101018C0AD08A20E02D101083
:101920003E9600816000000018011D8018711C1691
:1019300020582C250081490000009E000000FC007A
:1019400056412D31383039410A2020202000000036
:10195000FD00173D0D2E11000A202020202020011F
:101960001C020334714D82050401101114131F066B
:10197000150312350F7F07171F381F07302F077207
:101980003F7F72577F00377F72834F000067030CE1
:10199000001000882D000000FF000A2020202020D9
:1019A00020202020202020000000FF000A202020EE
:1019B000202020202020202020000000FF000A20DE
:1019C00020202020202020202020200000000000B7
:1019D0000000000000000000000000000000000007
:1019E000DA6477010000006364696E6F7073757864
:1019F000585B000011241FBECFEFDFE5DEBFCDBF77
:101A000000E00CBF11E2A0E0B0E2EAEBF9EA00E08E
:101A10000BBF02C007900D92AC3DB107D9F71DE393
:101A2000ACEDB1E201C01D92A130B107E1F70E9417
:101A3000C3170C94274E0C9400000F931F93E09152
:101A4000F52DDC01EC938091F62DFB0180838091D4
:101A5000E921DA018C9380912628F9018083809115
:101A6000E821D8018C931F910F910895FF920F9355
:101A70001F93CF93DF931F92CDB7DEB7982F162F0A
:101A8000F42E80E06AE0492F29830E9495190E9474
:101A90007E1980E06CE04F2D0E9495190E947E19FE
:101AA00080E06BE0412F0E9495190E947E1980E032
:101AB0006DE02981422F0E9495190E947E1980E0D5
:101AC0006EE0402F0E9495190F90DF91CF911F91EA
:101AD0000F91FF900C947E19AF92BF92DF92EF921C
:101AE000FF920F931F93CF93DF931F92CDB7DEB773
:101AF0000E947E198091CC01877F8093CC0180E089
:101B000066E00E9450198093282880E067E00E94D8
:101B100050198093AE2880E068E00E9450198093AD
:101B2000F82D80E060E00E94501980938B3380E0B4
:101B300061E00E9450198093F92D80E062E00E94DC
:101B400050198093272880E063E00E945019809309
:101B5000EF2D80E064E00E9450198093292880E0F6
:101B600065E00E94501980932C2880E069E00E9473
:101B700050198093892E80E06AE00E94501980936A
:101B8000F52D80E06BE00E9450198093F62D80E0E7
:101B90006CE00E9450198093E92180E06DE00E9482
:101BA00050198093262880E06EE00E94501980939F
:101BB000E8215091F52D8091F62D4091E921309149
:101BC00026282091E82190E0850F911D840F911D1A
:101BD000830F911D820F911D8093AF289093B028A1
:101BE0008091F52D813408F031C18091F62D813638
:101BF00008F02CC18091E921813408F027C180913F
:101C00002628813308F022C18091E8218133A0F198
:101C10001DC1AD2CB12C8E2D6F2D99830E945019B2
:101C2000082F10E0AA0CBB1C2EE238E2A20EB31E55
:101C3000F501008311836F2D6F5F8E2D0E94501967
:101C4000282F30E0322F2227200F311F9981203991
:101C5000F1E03F0708F402C02BEB30E0F5012083F0
:101C60003183D394F394F394F0E2FF12D2CF905FD8
:101C7000E394903421F439C022E0E22E90E0D92E92
:101C8000F12CC7CFAD2CB12C8E2D6F2D99830E94D6
:101C90005019082F10E0AA0CBB1C21E532E2A20E5D
:101CA000B31EF501008311836F2D6F5F8E2D0E948F
:101CB0005019282F30E0322F2227200F311F998111
:101CC0002039F1E03F0708F402C02BEB30E0F501CA
:101CD00020833183D394F394F394F0E2FF12D2CFB4
:101CE000905FE394903621F439C0B6E0EB2E90E09B
:101CF000D92EF12CC7CFAD2CB12C8E2D6F2D998301
:101D00000E945019082F10E0AA0CBB1C2AEF3DE2DC
:101D1000A20EB31EF501008311836F2D6F5F8E2D10
:101D20000E945019282F30E0322F2227200F311F18
:101D300099812039F1E03F0708F402C02BEB30E035
:101D4000F50120833183D394F394F394F0E2FF12EE
:101D5000D2CF905FE394903421F439C0ECE0EE2EC2
:101D600090E0D92EF12CC7CFAD2CB12C8E2D6F2D3C
:101D700099830E945019082F10E0AA0CBB1C25E77C
:101D80003DE2A20EB31EF501008311836F2D6F5F3C
:101D90008E2D0E945019282F30E0322F2227200F3D
:101DA000311F99812039F1E03F0708F402C02BEB85
:101DB00030E0F50120833183D394F394F394F0E27F
:101DC000FF12D2CF905FE394903221F439C050E1FA
:101DD000E52E90E0D92EF12CC7CFAD2CB12C8E2D55
:101DE0006F2D99830E945019082F10E0AA0CBB1C7C
:101DF0002BEE31E2A20EB31EF501008311836F2D8D
:101E00006F5F8E2D0E945019282F30E0322F22272D
:101E1000200F311F99812039F1E03F0708F402C0FB
:101E20002BEB30E0F50120833183D394F394F394CA
:101E3000F0E2FF12D2CF905FE394903221F416C00B
:101E400023E1E22E90E0D92EF12CC7CF81E08093E0
:101E5000F52D8093F62D8093E92180932628809399
:101E6000E82161E041E021E001E000DE80E06FE098
:101E70000E945019082F10E000932A2810932B2855
:101E800080E060E10E945019282F30E0322F222795
:101E9000200F311F20932A2830932B2880E061E106
:101EA0000E94501980932D2880E062E10E94501911
:101EB000082F10E000934B2210934C2280E063E146
:101EC0000E945019282F30E0322F2227200F311F77
:101ED00020934B2230934C226091282870E080E0C0
:101EE00090E00E94D04C20E030E048EC52E40E94A8
:101EF000C44D20E030E04FE753E40E943A4C20E02C
:101F000030E048EC52E40E943A4C609321237093F5
:101F1000222380932323909324236091AE2870E0A2
:101F200080E090E00E94D04C20E030E048EC52E4A9
:101F30000E94C44D20E030E04FE753E40E943A4C49
:101F400020E030E048EC52E40E943A4C60934D228D
:101F500070934E2280934F22909350226091F82DDF
:101F600070E080E090E00E94D04C20E030E048EC4F
:101F700052E40E94C44D20E030E04FE753E40E9459
:101F80003A4C20E030E048EC52E40E943A4C609336
:101F90007A2E70937B2E80937C2E90937D2E609171
:101FA000892E70E080E090E00E94D04C20E030E08C
:101FB00040E850E40E94C44D20E030E04FE753E495
:101FC0000E943A4C6093F12D7093F22D8093F32D83
:101FD0009093F42D60912A2870912B2880E090E056
:101FE0000E94CE4C20E03FEF4FE757E40E943A4C6E
:101FF0006093852E7093862E8093872E9093882EE3
:102000000F90DF91CF911F910F91FF90EF90DF9094
:10201000BF90AF9008951F93CF93DF930E946939CB
:1020200078940E949C220E94CC370E945D380E94C6
:10203000F339C0E8D6E08C818F7E8C838C818F7DD4
:102040008C830E94BD1A2FEF81EE94E021508040D6
:102050009040E1F700C0000010E21F830E94C938E1
:102060001F830E94C83A1F831F830E9443391F8326
:102070000E9457391F8381E080937E2E10927F2E1D
:102080008C8180628C83DF91CF911F9108950F9393
:102090001F93CF93DF93D5C59081981710F49F5F5E
:1020A00090839081891710F4915090839C9196179A
:1020B00010F49F5F9C939C91691710F491509C932E
:1020C0009881941710F49F5F98839881491710F4B2
:1020D000915098832F5F3F4F249614963496201783
:1020E0003107D1F6909104069E7F90930406E7E9AC
:1020F000F1E03197F1F700C00000E091AF28F091D6
:10210000B02890E08DC5220F331F220F331FD90155
:10211000A457BC4C13965C9157FF18C0509104060D
:1021200051605093040600140014001400140014AD
:1021300000140014001400140014001400140014FF
:10214000509104065E7F5093040617C05091040618
:10215000516050930406001400140014001400147D
:10216000509104065E7F509304060014001400147E
:1021700000140014001400140014001400140014BF
:1021800000140014D901A457BC4C13965C9156FF5F
:1021900018C05091040651605093040600140014B6
:1021A000001400140014001400140014001400148F
:1021B000001400140014509104065E7F509304062E
:1021C00017C0509104065160509304060014001487
:1021D000001400140014509104065E7F509304060E
:1021E000001400140014001400140014001400144F
:1021F00000140014001400140014D901A457BC4C9E
:1022000013965C9155FF18C050910406516050938D
:102210000406001400140014001400140014001428
:10222000001400140014001400140014509104064B
:102230005E7F5093040617C050910406516050937E
:102240000406001400140014001400145091040635
:102250005E7F509304060014001400140014001450
:1022600000140014001400140014001400140014CE
:10227000D901A457BC4C13965C9154FF18C05091DF
:102280000406516050930406001400140014001456
:10229000001400140014001400140014001400149E
:1022A0000014509104065E7F5093040617C05091AD
:1022B0000406516050930406001400140014001426
:1022C0000014509104065E7F50930406001400141D
:1022D000001400140014001400140014001400145E
:1022E000001400140014D901A457BC4C13965C913F
:1022F00053FF18C050910406516050930406001417
:10230000001400140014001400140014001400142D
:102310000014001400140014509104065E7F5093C2
:10232000040617C05091040651605093040600142F
:102330000014001400140014509104065E7F5093A2
:1023400004060014001400140014001400140014F7
:10235000001400140014001400140014D901A45730
:10236000BC4C13965C9152FF18C05091040651600A
:1023700050930406001400140014001400140014F8
:1023800000140014001400140014001400145091E0
:1023900004065E7F5093040617C0509104065160F6
:1023A00050930406001400140014001400145091FB
:1023B00004065E7F509304060014001400140014F9
:1023C000001400140014001400140014001400146D
:1023D0000014D901A457BC4C13965C9151FF18C04E
:1023E0005091040651605093040600140014001428
:1023F000001400140014001400140014001400143D
:1024000000140014509104065E7F5093040617C018
:1024100050910406516050930406001400140014F7
:1024200000140014509104065E7F509304060014BB
:1024300000140014001400140014001400140014FC
:102440000014001400140014D901A457BC4C1396B6
:102450005C9150FF18C050910406516050930406DF
:1024600000140014001400140014001400140014CC
:1024700000140014001400140014509104065E7F30
:102480005093040617C050910406516050930406FF
:1024900000140014001400140014509104065E7F10
:1024A00050930406001400140014001400140014C7
:1024B0000014001400140014001400140014D901B6
:1024C000A657B14D13965C9157FF18C05091040662
:1024D00051605093040600140014001400140014FA
:1024E000001400140014001400140014001400144C
:1024F000509104065E7F5093040617C05091040665
:1025000051605093040600140014001400140014C9
:10251000509104065E7F50930406001400140014CA
:10252000001400140014001400140014001400140B
:1025300000140014D901A657B14D13965C9156FFB3
:1025400018C0509104065160509304060014001402
:1025500000140014001400140014001400140014DB
:10256000001400140014509104065E7F509304067A
:1025700017C05091040651605093040600140014D3
:10258000001400140014509104065E7F509304065A
:10259000001400140014001400140014001400149B
:1025A00000140014001400140014D901A657B14DF2
:1025B00013965C9155FF18C05091040651605093DA
:1025C0000406001400140014001400140014001475
:1025D0000014001400140014001400145091040698
:1025E0005E7F5093040617C05091040651605093CB
:1025F0000406001400140014001400145091040682
:102600005E7F50930406001400140014001400149C
:10261000001400140014001400140014001400141A
:10262000D901A657B14D13965C9154FF18C0509133
:1026300004065160509304060014001400140014A2
:1026400000140014001400140014001400140014EA
:102650000014509104065E7F5093040617C05091F9
:102660000406516050930406001400140014001472
:102670000014509104065E7F509304060014001469
:1026800000140014001400140014001400140014AA
:10269000001400140014D901A657B14D13965C9193
:1026A00053FF18C050910406516050930406001463
:1026B000001400140014001400140014001400147A
:1026C0000014001400140014509104065E7F50930F
:1026D000040617C05091040651605093040600147C
:1026E0000014001400140014509104065E7F5093EF
:1026F0000406001400140014001400140014001444
:10270000001400140014001400140014D901A6577A
:10271000B14D13965C9152FF18C050910406516060
:102720005093040600140014001400140014001444
:10273000001400140014001400140014001450912C
:1027400004065E7F5093040617C050910406516042
:102750005093040600140014001400140014509147
:1027600004065E7F50930406001400140014001445
:1027700000140014001400140014001400140014B9
:102780000014D901A657B14D13965C9151FF18C0A2
:102790005091040651605093040600140014001474
:1027A0000014001400140014001400140014001489
:1027B00000140014509104065E7F5093040617C065
:1027C0005091040651605093040600140014001444
:1027D00000140014509104065E7F50930406001408
:1027E0000014001400140014001400140014001449
:1027F0000014001400140014D901A657B14D13960B
:102800005C9150FF18C0509104065160509304062B
:102810000014001400140014001400140014001418
:1028200000140014001400140014509104065E7F7C
:102830005093040617C0509104065160509304064B
:1028400000140014001400140014509104065E7F5C
:102850005093040600140014001400140014001413
:102860000014001400140014001400140014D90102
:10287000AA5DBC4D13965C9157FF18C05091040699
:102880005160509304060014001400140014001446
:102890000014001400140014001400140014001498
:1028A000509104065E7F5093040617C050910406B1
:1028B0005160509304060014001400140014001416
:1028C000509104065E7F5093040600140014001417
:1028D0000014001400140014001400140014001458
:1028E00000140014D901AA5DBC4D13965C9156FFEB
:1028F00018C050910406516050930406001400144F
:102900000014001400140014001400140014001427
:10291000001400140014509104065E7F50930406C6
:1029200017C050910406516050930406001400141F
:10293000001400140014509104065E7F50930406A6
:1029400000140014001400140014001400140014E7
:1029500000140014001400140014D901AA5DBC4D29
:1029600013965C9155FF18C0509104065160509326
:1029700004060014001400140014001400140014C1
:1029800000140014001400140014001450910406E4
:102990005E7F5093040617C0509104065160509317
:1029A00004060014001400140014001450910406CE
:1029B0005E7F5093040600140014001400140014E9
:1029C0000014001400140014001400140014001467
:1029D000D901AA5DBC4D13965C9154FF18C050916B
:1029E00004065160509304060014001400140014EF
:1029F0000014001400140014001400140014001437
:102A00000014509104065E7F5093040617C0509145
:102A100004065160509304060014001400140014BE
:102A20000014509104065E7F5093040600140014B5
:102A300000140014001400140014001400140014F6
:102A4000001400140014D901AA5DBC4D13965C91CA
:102A500053FF18C0509104065160509304060014AF
:102A600000140014001400140014001400140014C6
:102A70000014001400140014509104065E7F50935B
:102A8000040617C0509104065160509304060014C8
:102A90000014001400140014509104065E7F50933B
:102AA0000406001400140014001400140014001490
:102AB000001400140014001400140014D901AA5DBD
:102AC000BC4D13965C9152FF18C0509104065160A2
:102AD0005093040600140014001400140014001491
:102AE0000014001400140014001400140014509179
:102AF00004065E7F5093040617C05091040651608F
:102B00005093040600140014001400140014509193
:102B100004065E7F50930406001400140014001491
:102B20000014001400140014001400140014001405
:102B30000014D901AA5DBC4D13965C9151FF18C0D9
:102B400050910406516050930406001400140014C0
:102B500000140014001400140014001400140014D5
:102B600000140014509104065E7F5093040617C0B1
:102B70005091040651605093040600140014001490
:102B800000140014509104065E7F50930406001454
:102B90000014001400140014001400140014001495
:102BA0000014001400140014D901AA5DBC4D139642
:102BB0002C9120FF18C02091040621602093040668
:102BC0000014001400140014001400140014001465
:102BD00000140014001400140014209104062E7F29
:102BE0002093040617C02091040621602093040658
:102BF00000140014001400140014209104062E7F09
:102C0000209304060014001400140014001400148F
:102C100000140014001400140014001400149F5F2A
:102C2000292F30E02E173F0708F46DCA9091040653
:102C3000916090930406EFEBFDE53197F1F700C04A
:102C4000000090918D2E981308C090918F339613A9
:102C500004C090912923941769F00091AF28109136
:102C6000B028C9E2D3E2AFE8B3E3EDE8FEE220E04A
:102C700030E035CADF91CF911F910F910895809177
:102C8000EF2D6091292840912C2801CA80E060E056
:102C900040E0FDC9EF92FF920F931F93CF93DF9314
:102CA0000E94A9328D3F19F4C0E0D0E009C00E9413
:102CB000A9328F3FC9F30E94A9328C3FD9F415C0C5
:102CC000FE01EF54F74D6081FE01EF5BF54D408151
:102CD000FE01EF52F44D2081CE010E94663721960D
:102CE000C03981E0D80761F7E6CFC0E0D0E000E06E
:102CF00010E01BC00E94A9328D3FF9F4F6CF9E016F
:102D00002757314DDE01AB5DBC4D6BE8E62E63E32A
:102D1000F62EEC0EFD1EC801F90160814C91F70101
:102D200020810E9499370F5F1F4F24968091AF2812
:102D30009091B0280817190710F3DF91CF911F91D8
:102D40000F91FF90EF900895AF92BF92CF92DF92D4
:102D5000EF92FF920F931F93CF93DF931F92CDB704
:102D6000DEB78091EA21811103C081E08093EA21DE
:102D70008091EA21823008F0ACC0809100209091CF
:102D8000012001968093002090930120883E93407B
:102D900009F09FC08091E121833061F48091E221AC
:102DA0008F5F833019F08093E22102C01092E221FC
:102DB0001092E1212091E121C090E221D22E00E287
:102DC00013E0E0E9AE2EBB24B394750180E9E81A64
:102DD00081E0F80AC70164E170E00E94C75480E016
:102DE00090E029830E94CE4C0E94234C0E94A24C6A
:102DF0003A2D3059A4E16A9F30191124832F837032
:102E0000D701AF54B74D2981811108C0332331F068
:102E1000E1E0EC1518F02F5F233091F0F501EF544D
:102E2000F74D2130D9F060F0C7018F54974D71EB09
:102E3000E72E78E2F72EE00EF11E2230F9F417C0EB
:102E400081E58C93F501EF54F74D8AE58083F80115
:102E5000EF54F74D80EF808320E017C081E98C9319
:102E600086E38083F801EF54F74D82E20DC049E21A
:102E7000DC014C9380EF80838EE605C04DE9DC01D8
:102E80004C9380E88083F7018083333179F4862F77
:102E9000837041F4662331F0CC2021F0D394F3E029
:102EA000DF1611F02D2D02C0D12C20E08FEFA81AD3
:102EB000B80A0F5F1F4FA0E2AA16A3E0BA0609F0F6
:102EC00084CF8091E1218F5F8093E12182E0809324
:102ED000EA210F90DF91CF911F910F91FF90EF901A
:102EE000DF90CF90BF90AF9008958091EA2181301C
:102EF00009F048C020EB34E080E090E04091A40667
:102F000040644093A4064091A4064F7B4093A406DE
:102F10004091680650914806437021F05B5F413054
:102F200059F405C05F5FFC01EF54F74D03C0FC018D
:102F3000EF5BF54D508305C0FC01EF52F44D50831B
:102F4000019621503109D1F68091A4068F7B8093A0
:102F5000A40680912B2A80932C2A8091BB2B8093EE
:102F6000BC2B80914B2D80934C2D82E08093EA21E5
:102F70008091A40680618093A4068091A4068F7E30
:102F80008093A40608951092202381E08093F02D71
:102F900042D80E946C0D0E94A9328E3F30F48FEF10
:102FA00068EE71E00E94EF2305C08091A406806165
:102FB0008093A40680917E2E823018F081E0809369
:102FC0007E2E80917E2E813009F066C08091DE21B8
:102FD00081111EC08091240680FD1CC08091812E2D
:102FE0009091822E0A97B0F01092812E1092822E2C
:102FF0000E94F439811102C00E94C83A0E94003A2E
:103000000E94343B91E0811190E09093F02D02C03A
:103010001092F02D80912023C091F02D813061F429
:10302000C1111AC0109220238091A4068F7E809334
:10303000A4061092EA2110C081110EC0C13061F4C3
:103040001EDEC09320238091A40680618093A40695
:103050001092832E1092842E8091F02D813089F46D
:103060008091DF219091E02101968093DF21909360
:10307000E021883E934080F01092DF211092E02101
:103080000BC08091DE21811102C02FDF01C05CDE08
:103090000E94A5430E94283C80917F2E823010F030
:1030A00010927F2E80917F2E8823D9F010927F2E50
:1030B0008091A40680618093A4060E94B939811191
:1030C00002C00E94F33981E080937E2E0E94F43981
:1030D000811102C00E94C83A8091A4068F7E80931D
:1030E000A40680917E2E882321F08091F02D8130DE
:1030F000D1F42091832E3091842E80914B22909197
:103100004C222817390778F0C1DD1092832E1092D7
:10311000842E8091A40680618093A40680912D283E
:1031200081110E94FA390E94F12244CF83E063E1C9
:1031300072E00E94EF23AADDE1D02FEF83ED90E350
:10314000215080409040E1F700C00000E8E7F0E047
:103150008FEF808388ED84BF81E08183089583E0D1
:103160006CEE71E00E94EF2381E061E04AEADDD07D
:10317000DDCF1F920F920FB60F9211248F939F9362
:1031800090912D2880917E2E992341F0813031F449
:103190008091802E8F5F8093802E02C0882321F043
:1031A0008091F02D813081F480914B2290914C22BE
:1031B000892B51F08091832E9091842E01968093DB
:1031C000832E9093842E04C01092832E1092842E0E
:1031D0008091812E9091822E01968093812E9093E2
:1031E000822E9F918F910F900FBE0F901F90189578
:1031F0001F920F920FB60F9211248F938091EA21A4
:10320000811103C081E08093EA218F910F900FBE5E
:103210000F901F9018951F920F920FB60F921124C6
:103220008F9381E080937F2E8F910F900FBE0F9030
:103230001F9018950F93CF93DF931F92CDB7DEB7F2
:103240002FB72983F8941BBEFC0108ED04BF6083EF
:1032500089818FBF0F90DF91CF910F9108956F718A
:10326000682BE0E5F0E065830895682B81E490E049
:10327000E1CF1F93CF93DF93182FC0E4D0E0688194
:10328000687F682B80E490E0D5DF88818123DF911F
:10329000CF911F9108958091CF0187FDFCCF0895B4
:1032A000CF93DF931F921F92CDB7DEB76A838983D6
:1032B000F2DF6A816F71898120E2829FC00111244F
:1032C000862BE0ECF1E08083892F9927818312829D
:1032D00086E08287EF93FF930F932F93EBECF1E05F
:1032E00008ED21E004BF20832F910F91FF91EF9112
:1032F00084810F900F90DF91CF910895CCDF809162
:10330000CF0181FF11C086E38093CA01EF93FF9341
:103310000F932F93EBECF1E008ED21E004BF208345
:103320002F910F91FF91EF910895CF93DF9300D0EC
:10333000CDB7DEB74B836A838983E0DFE0ECF1E051
:1033400093E392876A816F71898120E2829FC00135
:103350001124862B8083892F9927818312824B81A8
:10336000448385E38287EF93FF930F932F93EBECD6
:10337000F1E008ED21E004BF20832F910F91FF9130
:10338000EF912396CDBFDEBFDF91CF910895FC0171
:1033900081858C7F682B618742870895FC01818538
:1033A000837F682B618743870895EF920F93E02A0C
:1033B000442311F030E801C030E0E32A222311F069
:1033C00020E401C020E02E294FB7F8946093B000AC
:1033D000FC01208B4FBF0F91EF900895FC0160839B
:1033E00071834863DB0111964C93A081B1811596DE
:1033F0002C930190F081E02D81E0848308950F9358
:10340000CF93DF93FC01293048F5093038F58789DF
:10341000811124C081E0878B108E6283DA0180E005
:1034200090E006C03D91EF01C80FD91F3B83019684
:103430008217C0F3238B048B158A168A838988230D
:1034400019F082818E7F05C08489882349F08281AA
:1034500081600190F081E02D868302C080E001C090
:1034600081E0DF91CF910F9108950F93042F40E0F9
:1034700050E020E0C4DF0F9108950F9300E0BFDF1C
:103480000F910895FC01A081B18114968C9114973D
:1034900082FF02C094E001C093E0908F8860149690
:1034A0008C93178A0895CF93DF93FC0193898489C5
:1034B000A081B18114962C91149724FF05C083E05C
:1034C00013968C9385E01AC02589291758F48589AD
:1034D000EF01C80FD11D8B8117968C9385898F5F63
:1034E000858B0EC09689981728F482818160169684
:1034F0008C9306C083E013968C9381E0808F178AAB
:10350000DF91CF910895FC018689A081B181883037
:1035100060F417968C919689DF01A90FB11D1B9657
:103520008C9386898F5F868B06C083E013968C937D
:1035300082E0808F178A84899689A081B18198174B
:1035400020F482E013968C93089587E013968C9371
:1035500081E0808F178A0895DC01ED91FC91248130
:10356000322F3C7009F08ECF26FD9DCF27FDCBCFAB
:1035700026E0FC01208F178A089510928E3A10924F
:103580008F3A10928C3810928D38E0EBFAE083E09D
:1035900085838BE6868380EB878383818061838349
:1035A0008481886084838481806184838481846051
:1035B0008483E0EAF0E082818160828308959091C3
:1035C000B10A95FFFCCF8093B00A0895F8CFF7DFDA
:1035D00080E090E00895F3CF1F920F920FB60F9204
:1035E00011240BB60F928F93EF93FF93E0918D38D8
:1035F000EF5F80918C38E81741F0E0938D38F0E070
:103600008091B00AE457F74C8283FF91EF918F913C
:103610000F900BBE0F900FBE0F901F9018951F922A
:103620000F920FB60F9211240BB60F928F93EF9358
:10363000FF93E0918F3AEF5F80918E3AE81741F067
:10364000E0938F3AF0E08091A00BE257F54C828333
:10365000FF91EF918F910F900BBE0F900FBE0F90C7
:103660001F901895EF920F93CF93DF9380E696E02B
:1036700060EB40E020E000E032E0E32E96DEC0E6C2
:10368000D6E080EB898380E696E060E440E020E0CD
:1036900008E3E12C8ADE80E48A83DF91CF910F91E9
:1036A000EF900895EF920F9380E696E060EF40E090
:1036B00020E008E2E12C79DE80EFE0E6F6E08283AC
:1036C0000F91EF90089528E030E090E840E84093B3
:1036D0006606492F482321F040E24093650603C067
:1036E00040E24093660640E8409365069695215077
:1036F000310961F7089528E030E090E880E040E883
:1037000040936606409365064091680646FD892B06
:1037100096952150310999F708958091C23C8860AF
:103720008093C23C08951F921F928FE39BE0EDB7F8
:10373000FEB7818392830E947C4E0F900F90089574
:10374000CF93DF93CDB7DEB72897CDBFDEBF1F8203
:103750001886EDB7FEB7818392838CE39BE0838369
:103760009483CE010796858396830E94EC4E892B25
:1037700071F08F8198852091C23C892B21F02460C3
:103780002093C23C04C0822F8B7F8093C23C28963A
:10379000CDBFDEBFDF91CF910895CF93DF93CDB73B
:1037A000DEB72897CDBFDEBF1F821886EDB7FEB704
:1037B0008183928389E39BE083839483CE01079680
:1037C000858396830E94EC4E892B19F08F8180931C
:1037D000C43C2896CDBFDEBFDF91CF910895CF9333
:1037E000DF93CDB7DEB72897CDBFDEBFEDB7FEB70D
:1037F0008183928382E896E083839483CE01079647
:10380000858396830E94EC4E892B19F08F810E944C
:10381000963B2896CDBFDEBFDF91CF910895CF9321
:10382000DF93CDB7DEB72C97CDBFDEBFEDB7FEB7C8
:103830008183928386E796E083839483CE010B96FF
:1038400085839683CE010996878390870E94EC4EEC
:10385000892B21F08B8569850E94573B2C96CDBF23
:10386000DEBFDF91CF910895CF93DF93CDB7DEB761
:103870002897CDBFDEBFEDB7FEB78183928383EE7D
:1038800095E083839483CE010796858396830E9477
:10389000EC4E892B19F08F810E944F3A2896CDBFAC
:1038A000DEBFDF91CF910895CF93DF93CDB7DEB721
:1038B0002C97CDBFDEBFEDB7FEB78183928387ED36
:1038C00095E083839483CE010B9685839683CE0106
:1038D0000996878390870E94EC4E892B21F08B8577
:1038E00069850E94103A2C96CDBFDEBFDF91CF9143
:1038F0000895CF93DF93CDB7DEB76497CDBFDEBF1A
:10390000EDB7FEB78183928380E999E08383948346
:10391000CE01439685839683CE0141968783908717
:10392000CE010F9681879287CE010D96838794876B
:103930000E94EC4E892B09F4C8C58B899C89598952
:103940008F3F9105F9F42091AF283091B0286F8511
:103950007D8540E011C0880F991F880F991FFC01D9
:10396000E657F14D5383FC01E457FC4C6383FC01A3
:10397000EA5DFC4D73834F5F842F90E082179307BD
:1039800050F312C0880F991F880F991FFC01E6574A
:10399000F14D5383FC01E457FC4C2F852383FC013C
:1039A000EA5DFC4D2D852383809104068E7F8093F4
:1039B000040687E991E00197F1F700C0000020912B
:1039C000AF283091B02840E075C5880F991F880F47
:1039D000991FFC01E457FC4C538157FF18C05091CC
:1039E00004065160509304060014001400140014DF
:1039F0000014001400140014001400140014001427
:103A00000014509104065E7F5093040617C0509135
:103A100004065160509304060014001400140014AE
:103A20000014509104065E7F5093040600140014A5
:103A300000140014001400140014001400140014E6
:103A4000001400140014FC01E457FC4C538156FF91
:103A500018C05091040651605093040600140014DD
:103A600000140014001400140014001400140014B6
:103A7000001400140014509104065E7F5093040655
:103A800017C05091040651605093040600140014AE
:103A9000001400140014509104065E7F5093040635
:103AA0000014001400140014001400140014001476
:103AB00000140014001400140014FC01E457FC4C22
:103AC000538155FF18C0509104065160509304066D
:103AD0000014001400140014001400140014001446
:103AE00000140014001400140014509104065E7FAA
:103AF0005093040617C05091040651605093040679
:103B000000140014001400140014509104065E7F89
:103B10005093040600140014001400140014001440
:103B20000014001400140014001400140014FC010C
:103B3000E457FC4C538154FF18C050910406516067
:103B40005093040600140014001400140014001410
:103B500000140014001400140014001400145091F8
:103B600004065E7F5093040617C05091040651600E
:103B70005093040600140014001400140014509113
:103B800004065E7F50930406001400140014001411
:103B90000014001400140014001400140014001485
:103BA0000014FC01E457FC4C538153FF18C05091A2
:103BB000040651605093040600140014001400140D
:103BC0000014001400140014001400140014001455
:103BD0000014509104065E7F5093040617C0509164
:103BE00004065160509304060014001400140014DD
:103BF0000014509104065E7F5093040600140014D4
:103C00000014001400140014001400140014001414
:103C1000001400140014FC01E457FC4C538152FFC3
:103C200018C050910406516050930406001400140B
:103C300000140014001400140014001400140014E4
:103C4000001400140014509104065E7F5093040683
:103C500017C05091040651605093040600140014DC
:103C6000001400140014509104065E7F5093040663
:103C700000140014001400140014001400140014A4
:103C800000140014001400140014FC01E457FC4C50
:103C9000538151FF18C0509104065160509304069F
:103CA0000014001400140014001400140014001474
:103CB00000140014001400140014509104065E7FD8
:103CC0005093040617C050910406516050930406A7
:103CD00000140014001400140014509104065E7FB8
:103CE000509304060014001400140014001400146F
:103CF0000014001400140014001400140014FC013B
:103D0000E457FC4C538150FF18C050910406516099
:103D1000509304060014001400140014001400143E
:103D20000014001400140014001400140014509126
:103D300004065E7F5093040617C05091040651603C
:103D40005093040600140014001400140014509141
:103D500004065E7F5093040600140014001400143F
:103D600000140014001400140014001400140014B3
:103D70000014FC01E657F14D538157FF18C05091D4
:103D8000040651605093040600140014001400143B
:103D90000014001400140014001400140014001483
:103DA0000014509104065E7F5093040617C0509192
:103DB000040651605093040600140014001400140B
:103DC0000014509104065E7F509304060014001402
:103DD0000014001400140014001400140014001443
:103DE000001400140014FC01E657F14D538156FFF6
:103DF00018C050910406516050930406001400143A
:103E00000014001400140014001400140014001412
:103E1000001400140014509104065E7F50930406B1
:103E200017C050910406516050930406001400140A
:103E3000001400140014509104065E7F5093040691
:103E400000140014001400140014001400140014D2
:103E500000140014001400140014FC01E657F14D86
:103E6000538155FF18C050910406516050930406C9
:103E700000140014001400140014001400140014A2
:103E800000140014001400140014509104065E7F06
:103E90005093040617C050910406516050930406D5
:103EA00000140014001400140014509104065E7FE6
:103EB000509304060014001400140014001400149D
:103EC0000014001400140014001400140014FC0169
:103ED000E657F14D538154FF18C0509104065160CC
:103EE000509304060014001400140014001400146D
:103EF0000014001400140014001400140014509155
:103F000004065E7F5093040617C05091040651606A
:103F1000509304060014001400140014001450916F
:103F200004065E7F5093040600140014001400146D
:103F300000140014001400140014001400140014E1
:103F40000014FC01E657F14D538153FF18C0509106
:103F50000406516050930406001400140014001469
:103F600000140014001400140014001400140014B1
:103F70000014509104065E7F5093040617C05091C0
:103F80000406516050930406001400140014001439
:103F90000014509104065E7F509304060014001430
:103FA0000014001400140014001400140014001471
:103FB000001400140014FC01E657F14D538152FF28
:103FC00018C0509104065160509304060014001468
:103FD0000014001400140014001400140014001441
:103FE000001400140014509104065E7F50930406E0
:103FF00017C0509104065160509304060014001439
:10400000001400140014509104065E7F50930406BF
:104010000014001400140014001400140014001400
:1040200000140014001400140014FC01E657F14DB4
:10403000538151FF18C050910406516050930406FB
:1040400000140014001400140014001400140014D0
:1040500000140014001400140014509104065E7F34
:104060005093040617C05091040651605093040603
:1040700000140014001400140014509104065E7F14
:1040800050930406001400140014001400140014CB
:104090000014001400140014001400140014FC0197
:1040A000E657F14D538150FF18C0509104065160FE
:1040B000509304060014001400140014001400149B
:1040C0000014001400140014001400140014509183
:1040D00004065E7F5093040617C050910406516099
:1040E000509304060014001400140014001450919E
:1040F00004065E7F5093040600140014001400149C
:10410000001400140014001400140014001400140F
:104110000014FC01EA5DFC4D538157FF18C050911B
:104120000406516050930406001400140014001497
:1041300000140014001400140014001400140014DF
:104140000014509104065E7F5093040617C05091EE
:104150000406516050930406001400140014001467
:104160000014509104065E7F50930406001400145E
:10417000001400140014001400140014001400149F
:10418000001400140014FC01EA5DFC4D538156FF3D
:1041900018C0509104065160509304060014001496
:1041A000001400140014001400140014001400146F
:1041B000001400140014509104065E7F509304060E
:1041C00017C0509104065160509304060014001467
:1041D000001400140014509104065E7F50930406EE
:1041E000001400140014001400140014001400142F
:1041F00000140014001400140014FC01EA5DFC4DCE
:10420000538155FF18C05091040651605093040625
:1042100000140014001400140014001400140014FE
:1042200000140014001400140014509104065E7F62
:104230005093040617C05091040651605093040631
:1042400000140014001400140014509104065E7F42
:1042500050930406001400140014001400140014F9
:104260000014001400140014001400140014FC01C5
:10427000EA5DFC4D538154FF18C050910406516013
:1042800050930406001400140014001400140014C9
:1042900000140014001400140014001400145091B1
:1042A00004065E7F5093040617C0509104065160C7
:1042B00050930406001400140014001400145091CC
:1042C00004065E7F509304060014001400140014CA
:1042D000001400140014001400140014001400143E
:1042E0000014FC01EA5DFC4D538153FF18C050914E
:1042F00004065160509304060014001400140014C6
:10430000001400140014001400140014001400140D
:104310000014509104065E7F5093040617C050911C
:104320000406516050930406001400140014001495
:104330000014509104065E7F50930406001400148C
:1043400000140014001400140014001400140014CD
:10435000001400140014FC01EA5DFC4D538152FF6F
:1043600018C05091040651605093040600140014C4
:10437000001400140014001400140014001400149D
:10438000001400140014509104065E7F509304063C
:1043900017C0509104065160509304060014001495
:1043A000001400140014509104065E7F509304061C
:1043B000001400140014001400140014001400145D
:1043C00000140014001400140014FC01EA5DFC4DFC
:1043D000538151FF18C05091040651605093040658
:1043E000001400140014001400140014001400142D
:1043F00000140014001400140014509104065E7F91
:104400005093040617C0509104065160509304065F
:1044100000140014001400140014509104065E7F70
:104420005093040600140014001400140014001427
:104430000014001400140014001400140014FC01F3
:10444000EA5DFC4D838180FF18C080910406816085
:1044500080930406001400140014001400140014C7
:1044600000140014001400140014001400148091AF
:1044700004068E7F8093040617C080910406816035
:10448000809304060014001400140014001480919A
:1044900004068E7F80930406001400140014001498
:1044A000001400140014001400140014001400146C
:1044B00000144F5F842F90E08217930708F485CA99
:1044C000809104068160809304066496CDBFDEBFB0
:1044D000DF91CF910895CF93DF93CDB7DEB72897C3
:1044E000CDBFDEBFEDB7FEB7818392838CEE96E041
:1044F00083839483CE010796858396830E94EC4E36
:10450000892BA1F08F819885892B39F081E08093E8
:104510007E2E8091A4068F7E07C010927E2E0E9470
:104520003F168091A40680618093A4062896CDBF93
:10453000DEBFDF91CF9108958091C23C88608B7F70
:104540008093C23C8EEF8093C43C82E090E28093E3
:10455000FD3C9093FE3C0895CF92DF92EF92FF9244
:104560000F931F93CF93DF938C0168E170E20E9459
:104570003B4E7C01C3E2D2E0FE013496C590D4905C
:10458000C701B6010E94294E892B31F0269683E09F
:10459000CB32D80789F71AC0FE01E590F490229635
:1045A000FE01859194918130910539F4C6010E94F4
:1045B000324E0196800F911F04C0892B39F480E0A0
:1045C00090E0F701199581E090E002C080E090E072
:1045D000DF91CF911F910F91FF90EF90DF90CF90DF
:1045E0000895CF9300D01F928091C23C83FF07C0F3
:1045F0000F900F900F900F90CF910C94CF37E091C8
:104600008C3890918D38E91709F4B0C0EF5FE093D2
:104610008C38F0E0E457F74CC281CC2309F4A6C0F3
:10462000CD3009F45FC09091C33C923308F09EC036
:10463000CF3740F4C03250F4C930F9F0CB3109F033
:1046400049C03CC0CF3709F045C021C082FF0CC033
:1046500081EC9AE0EDB7FEB7818392838C2F90E0D6
:10466000838394830E947C4E8091C33CE82FF0E0CA
:10467000E057F34CC0838F5F1EC0E92FF0E0E05796
:10468000F34C80E280839F5F9093C33C23C09923C7
:1046900009F182FF1FC084EC9AE0EDB7FEB7818379
:1046A00092830E947C4E8091C33CE82FF0E0E0575B
:1046B000F34C108281508093C33C0CC0992351F07D
:1046C00088EC9AE0EDB7FEB7818392830E947C4E1E
:1046D0001092C33C8091C33C833308F447C01092CE
:1046E000C33C44C0982F937009F040C0E091C33C94
:1046F000F0E0E057F34C10821092C33C82FF08C0F8
:104700008CEC9AE0EDB7FEB7818392830E947C4ED9
:1047100080E99CE321DF892B29F08091C23C8370E2
:1047200029F50CC08091903C882341F08FEC9AE0F1
:10473000EDB7FEB7818392830E947C4E8091C23C8C
:1047400082FF14C08091C43C863080F483ED9AE0EF
:10475000EDB7FEB7818392830E947C4E86ED9AE08E
:10476000EDB7FEB7818392830E947C4E0F900F902D
:104770000F900F90CF9108951F921F929091C43C7B
:10478000891750F1833089F020F48130E9F050F43A
:1047900006C0853081F060F08F3F99F40FC088ED3E
:1047A0009AE014C089EE9AE011C080EF9AE00EC042
:1047B00087EF9AE00BC081E09BE008C089E09BE0B6
:1047C00005C08AE09BE002C081EE9AE0EDB7FEB73B
:1047D000818392830E947C4E0F900F9008951F93C7
:1047E000CF93DF931F921F92182FEB01C5DF8091AB
:1047F000C43C181730F0EDB7FEB7C183D2830E94D6
:104800007C4E0F900F90DF91CF911F910895CF9321
:10481000DF93CDB7DEB72897CDBFDEBFEDB7FEB7CC
:104820008183928388EA99E083839483CE010796FB
:10483000858396830E94EC4E892B89F08F81988521
:104840008230910560F48093DE21892B21F083E092
:104850006BEC79E003C083E06BEA79E0C0DF289677
:10486000CDBFDEBFDF91CF910895CF93DF93CDB75A
:10487000DEB72897CDBFDEBFEDB7FEB78183928349
:104880008CEA96E083839483CE0107968583968392
:104890000E94EC4E892BB1F08F819885892B49F0CD
:1048A0008091A40680628093A40683E06DEC76E09C
:1048B00008C08091A4068F7D8093A40683E06FEAF0
:1048C00076E08DDF2896CDBFDEBFDF91CF910895D2
:1048D000CF93DF93CDB7DEB72897CDBFDEBFEDB75F
:1048E000FEB78183928388E896E083839483CE0128
:1048F0000796858396830E94EC4E892BB1F08F81B9
:104900009885892B49F08091A40680618093A40644
:1049100083E06BE976E008C08091A4068F7E8093E7
:10492000A40683E06BE876E05ADF2896CDBFDEBFB1
:10493000DF91CF91089583E06EE176E050DFE0E211
:10494000F6E084818B7F84838FE39CE90197F1F704
:1049500000C000008481846084830895CF93DF9336
:10496000CDB7DEB72897CDBFDEBFEDB7FEB78183E9
:10497000928388EF95E083839483CE0107968583A5
:1049800096830E94EC4E892B71F08F819885019758
:1049900051F4809124068E7F8093240683E06DE09D
:1049A00076E01DDF09C083E06BEF75E018DF8091D2
:1049B00024068160809324062896CDBFDEBFDF9158
:1049C000CF91089583E069EE75E009DFE0E2F6E05B
:1049D00084818E7F848384818D7F84838FE39FE1B4
:1049E0000197F1F700C000008481826084830895FC
:1049F0000E94B939882321F083E064E075E003C0A8
:104A000083E06AEE74E0EBCE83E069ED74E0E7DE0C
:104A10000C94BF391F93CF93DF931F921F92182FCF
:104A2000EB01AADE8091C43C181730F0EDB7FEB759
:104A3000C183D2830E94654E0F900F90DF91CF917A
:104A40001F91089583E06AE170E2E4DF0E942B4940
:104A50000E94684980FDFCCF8FEF60E370E2DACFFF
:104A6000CF92DF92EF92FF92CF93DF93CDB7DEB775
:104A70006097CDBFDEBFEDB7FEB78183928383EB36
:104A80009AE083839483CE010F9685839683CE012B
:104A90000D9687839087CE010B96818792870E941F
:104AA000CF4E892BD1F0CD84DE84DC2CCC248B85B9
:104AB0009C85C80ED91EE12CF12C82E06AE870E2D8
:104AC000A9DFC701B6010E943B490E94684980FDE9
:104AD000FCCF8FEF62EA70E29DDF6096CDBFDEBF54
:104AE000DF91CF91FF90EF90DF90CF900895CF921C
:104AF000DF92EF92FF92CF93DF93CDB7DEB760974F
:104B0000CDBFDEBFEDB7FEB78183928385EA9AE021
:104B100083839483CE010F9685839683CE010D9671
:104B200087839087CE010B96818792870E94EC4EF7
:104B3000892BD1F0CD84DE84DC2CCC248B859C8524
:104B4000C80ED91EE12CF12C82E066E071E262DF32
:104B5000C701B6010E94B6490E94684980FDFCCF9A
:104B60008FEF62EA70E256DF6096CDBFDEBFDF9165
:104B7000CF91FF90EF90DF90CF900895CF93DF9388
:104B8000CDB7DEB72897CDBFDEBF1F821886EDB741
:104B9000FEB78183928382EA9AE083839483CE0175
:104BA0000796858396830E94EC4E892B79F08F813E
:104BB0009885892B21F483E067E271E203C083E0EA
:104BC00062E471E227DF8F810E94A4492896CDBF5D
:104BD000DEBFDF91CF9108950F931F93CF93DF93A3
:104BE000CDB7DEB7EA97CDBFDEBF0E9468498E0120
:104BF000075F1F4FEDB7FEB70183128328E73AE046
:104C000023833483292F332725833683992787836A
:104C100090870E94A54E83E0B801FCDEEA96CDBFE6
:104C2000DEBFDF91CF911F910F9108950F931F93D6
:104C3000CF93DF93CDB7DEB7EA97CDBFDEBFEDB739
:104C4000FEB7818392838FE09AE083839483CE01C1
:104C5000C996858396830E94EC4E892B81F189AD9C
:104C60009AAD81309105A9F48E01095F1F4FEDB710
:104C7000FEB70183128322E13AE0238334838583E4
:104C800096830E94A54E83E0B801C4DE0E943D4891
:104C900016C0892BA1F48E01095F1F4FEDB7FEB737
:104CA0000183128385E49AE08383948315821682BC
:104CB0000E94A54E83E0B801ADDE0E944A48EA9604
:104CC000CDBFDEBFDF91CF911F910F9108950F935C
:104CD0001F93CF93DF93CDB7DEB7EC97CDBFDEBF89
:104CE0000E9459488E01055F1F4FEDB7FEB7018343
:104CF00012832AEE39E023833483262F30E0258384
:104D00003683272F30E02783308790E08187928792
:104D10000E94A54E83E0B8017DDEEC96CDBFDEBFDC
:104D2000DF91CF911F910F9108951F93CF93DF9340
:104D3000CDB7DEB72897CDBFDEBF1F821886EDB78F
:104D4000FEB78183928381E399E083839483CE01CC
:104D50000796858396830E94EC4E892B09F442C006
:104D60008F8198858F3F910541F580E06DE579E071
:104D700036DD12E3FFEF29E688E1F1502040804064
:104D8000E1F700C000008091A40681608093A40632
:104D90009FEFE9E6F8E19150E040F040E1F700C014
:104DA00000008091A4068E7F8093A4068FEF6EE2B0
:104DB00070E230DE1150F1F615C001978E3F91057B
:104DC00040F480E064E379E00ADD8091A40681602C
:104DD00007C080E069E479E002DD8091A4068E7F5F
:104DE0008093A4062896CDBFDEBFDF91CF911F919F
:104DF0000895CF92DF92EF92FF920F931F93CF937C
:104E0000DF93CDB7DEB7CC55D109CDBFDEBFEDB74F
:104E1000FEB7818392838BEF98E0838394838E0126
:104E2000055A1F4F058316837E01F9E5EF0EF11C2D
:104E3000EDB7FEB7E782F0860E94EC4E892B09F4AD
:104E40004EC089E0C82ED12CCC0EDD1EEDB7FEB7CA
:104E5000C182D28287E099E083839483F8018081C4
:104E60009181EDB7FEB785839683F70180819181AB
:104E7000EDB7FEB7878390870E94A54E83E0B60109
:104E8000C9DDF70140815181F80180819181982F1E
:104E90008827840F951F80932A2890932B2880E0E1
:104EA0006FE00E94951980E060E1F80140810E9466
:104EB000951960912A2870912B2880E090E00E943B
:104EC000CE4C20E03FEF4FE757E40E943A4C60930E
:104ED000852E7093862E8093872E9093882EC45AA9
:104EE000DF4FCDBFDEBFDF91CF911F910F91FF90BC
:104EF000EF90DF90CF900895EF92FF920F931F9362
:104F0000CF93DF93CDB7DEB7C855D109CDBFDEBF94
:104F1000EDB7FEB78183928389ED98E08383948314
:104F20008E01095A1F4F058316830E94EC4E892B70
:104F3000E1F137E0E32EF12CEC0EFD1EEDB7FEB7EC
:104F4000E182F2828FED98E083839483F80180817F
:104F50009181EDB7FEB7858396830E94A54E83E0CD
:104F6000B70158DDF80140814093892E80E069E067
:104F70000E9495196091892E70E080E090E00E9477
:104F8000D04C20E030E040E850E40E94C44D20E0E6
:104F900030E04FE753E40E943A4C6093F12D709358
:104FA000F22D8093F32D9093F42DC85ADF4FCDBF8F
:104FB000DEBFDF91CF911F910F91FF90EF90089589
:104FC000AF92BF92CF92DF92EF92FF920F931F9317
:104FD000CF93DF93CDB7DEB7C056D109CDBFDEBFCB
:104FE000EDB7FEB78183928385E998E0838394834C
:104FF0006E01FFE5CF0ED11CEDB7FEB7C582D6829C
:105000007E01FDE5EF0EF11CEDB7FEB7E782F086FD
:105010008E01055A1F4F018712870E94EC4E892B83
:1050200009F4FFC5FBE0AF2EB12CAC0EBD1EEDB7F1
:10503000FEB7A182B28287EA98E083839483F60167
:1050400080819181EDB7FEB785839683F7018081DA
:105050009181EDB7FEB787839087F80180819181B8
:10506000EDB7FEB7818792870E94A54E83E0B50118
:10507000D1DCF60140814093EF2DF70180818093D0
:105080002928F801808180932C2880E063E00E9429
:10509000951980E064E0F70140810E94951980E055
:1050A00065E0F80140810E94951980917E2E882349
:1050B00029F08091F02D813009F0B3C52091AF28FF
:1050C0003091B0285091EF2D6091292870912C28B3
:1050D00040E011C0880F991F880F991FFC01E65707
:1050E000F14D5383FC01E457FC4C6383FC01EA5D02
:1050F000FC4D73834F5F842F90E08217930750F32A
:10510000809104068E7F8093040687E991E00197E1
:10511000F1F700C000002091AF283091B02840E0A6
:1051200075C5880F991F880F991FFC01E457FC4C27
:10513000538157FF18C050910406516050930406E4
:1051400000140014001400140014001400140014BF
:1051500000140014001400140014509104065E7F23
:105160005093040617C050910406516050930406F2
:1051700000140014001400140014509104065E7F03
:1051800050930406001400140014001400140014BA
:105190000014001400140014001400140014FC0186
:1051A000E457FC4C538156FF18C0509104065160DF
:1051B000509304060014001400140014001400148A
:1051C0000014001400140014001400140014509172
:1051D00004065E7F5093040617C050910406516088
:1051E000509304060014001400140014001450918D
:1051F00004065E7F5093040600140014001400148B
:1052000000140014001400140014001400140014FE
:105210000014FC01E457FC4C538155FF18C0509119
:105220000406516050930406001400140014001486
:1052300000140014001400140014001400140014CE
:105240000014509104065E7F5093040617C05091DD
:105250000406516050930406001400140014001456
:105260000014509104065E7F50930406001400144D
:10527000001400140014001400140014001400148E
:10528000001400140014FC01E457FC4C538154FF3B
:1052900018C0509104065160509304060014001485
:1052A000001400140014001400140014001400145E
:1052B000001400140014509104065E7F50930406FD
:1052C00017C0509104065160509304060014001456
:1052D000001400140014509104065E7F50930406DD
:1052E000001400140014001400140014001400141E
:1052F00000140014001400140014FC01E457FC4CCA
:10530000538153FF18C05091040651605093040616
:1053100000140014001400140014001400140014ED
:1053200000140014001400140014509104065E7F51
:105330005093040617C05091040651605093040620
:1053400000140014001400140014509104065E7F31
:1053500050930406001400140014001400140014E8
:105360000014001400140014001400140014FC01B4
:10537000E457FC4C538152FF18C050910406516011
:1053800050930406001400140014001400140014B8
:1053900000140014001400140014001400145091A0
:1053A00004065E7F5093040617C0509104065160B6
:1053B00050930406001400140014001400145091BB
:1053C00004065E7F509304060014001400140014B9
:1053D000001400140014001400140014001400142D
:1053E0000014FC01E457FC4C538151FF18C050914C
:1053F00004065160509304060014001400140014B5
:1054000000140014001400140014001400140014FC
:105410000014509104065E7F5093040617C050910B
:105420000406516050930406001400140014001484
:105430000014509104065E7F50930406001400147B
:1054400000140014001400140014001400140014BC
:10545000001400140014FC01E457FC4C538150FF6D
:1054600018C05091040651605093040600140014B3
:10547000001400140014001400140014001400148C
:10548000001400140014509104065E7F509304062B
:1054900017C0509104065160509304060014001484
:1054A000001400140014509104065E7F509304060B
:1054B000001400140014001400140014001400144C
:1054C00000140014001400140014FC01E657F14D00
:1054D000538157FF18C05091040651605093040641
:1054E000001400140014001400140014001400141C
:1054F00000140014001400140014509104065E7F80
:105500005093040617C0509104065160509304064E
:1055100000140014001400140014509104065E7F5F
:105520005093040600140014001400140014001416
:105530000014001400140014001400140014FC01E2
:10554000E657F14D538156FF18C050910406516043
:1055500050930406001400140014001400140014E6
:1055600000140014001400140014001400145091CE
:1055700004065E7F5093040617C0509104065160E4
:1055800050930406001400140014001400145091E9
:1055900004065E7F509304060014001400140014E7
:1055A000001400140014001400140014001400145B
:1055B0000014FC01E657F14D538155FF18C050917E
:1055C00004065160509304060014001400140014E3
:1055D000001400140014001400140014001400142B
:1055E0000014509104065E7F5093040617C050913A
:1055F00004065160509304060014001400140014B3
:105600000014509104065E7F5093040600140014A9
:1056100000140014001400140014001400140014EA
:10562000001400140014FC01E657F14D538154FF9F
:1056300018C05091040651605093040600140014E1
:1056400000140014001400140014001400140014BA
:10565000001400140014509104065E7F5093040659
:1056600017C05091040651605093040600140014B2
:10567000001400140014509104065E7F5093040639
:10568000001400140014001400140014001400147A
:1056900000140014001400140014FC01E657F14D2E
:1056A000538153FF18C05091040651605093040673
:1056B000001400140014001400140014001400144A
:1056C00000140014001400140014509104065E7FAE
:1056D0005093040617C0509104065160509304067D
:1056E00000140014001400140014509104065E7F8E
:1056F0005093040600140014001400140014001445
:105700000014001400140014001400140014FC0110
:10571000E657F14D538152FF18C050910406516075
:105720005093040600140014001400140014001414
:1057300000140014001400140014001400145091FC
:1057400004065E7F5093040617C050910406516012
:105750005093040600140014001400140014509117
:1057600004065E7F50930406001400140014001415
:105770000014001400140014001400140014001489
:105780000014FC01E657F14D538151FF18C05091B0
:105790000406516050930406001400140014001411
:1057A0000014001400140014001400140014001459
:1057B0000014509104065E7F5093040617C0509168
:1057C00004065160509304060014001400140014E1
:1057D0000014509104065E7F5093040600140014D8
:1057E0000014001400140014001400140014001419
:1057F000001400140014FC01E657F14D538150FFD2
:1058000018C050910406516050930406001400140F
:1058100000140014001400140014001400140014E8
:10582000001400140014509104065E7F5093040687
:1058300017C05091040651605093040600140014E0
:10584000001400140014509104065E7F5093040667
:1058500000140014001400140014001400140014A8
:1058600000140014001400140014FC01EA5DFC4D47
:10587000538157FF18C0509104065160509304069D
:105880000014001400140014001400140014001478
:1058900000140014001400140014509104065E7FDC
:1058A0005093040617C050910406516050930406AB
:1058B00000140014001400140014509104065E7FBC
:1058C0005093040600140014001400140014001473
:1058D0000014001400140014001400140014FC013F
:1058E000EA5DFC4D538156FF18C05091040651608B
:1058F0005093040600140014001400140014001443
:10590000001400140014001400140014001450912A
:1059100004065E7F5093040617C050910406516040
:105920005093040600140014001400140014509145
:1059300004065E7F50930406001400140014001443
:1059400000140014001400140014001400140014B7
:105950000014FC01EA5DFC4D538155FF18C05091C5
:10596000040651605093040600140014001400143F
:105970000014001400140014001400140014001487
:105980000014509104065E7F5093040617C0509196
:10599000040651605093040600140014001400140F
:1059A0000014509104065E7F509304060014001406
:1059B0000014001400140014001400140014001447
:1059C000001400140014FC01EA5DFC4D538154FFE7
:1059D00018C050910406516050930406001400143E
:1059E0000014001400140014001400140014001417
:1059F000001400140014509104065E7F50930406B6
:105A000017C050910406516050930406001400140E
:105A1000001400140014509104065E7F5093040695
:105A200000140014001400140014001400140014D6
:105A300000140014001400140014FC01EA5DFC4D75
:105A4000538153FF18C050910406516050930406CF
:105A500000140014001400140014001400140014A6
:105A600000140014001400140014509104065E7F0A
:105A70005093040617C050910406516050930406D9
:105A800000140014001400140014509104065E7FEA
:105A900050930406001400140014001400140014A1
:105AA0000014001400140014001400140014FC016D
:105AB000EA5DFC4D538152FF18C0509104065160BD
:105AC0005093040600140014001400140014001471
:105AD0000014001400140014001400140014509159
