:100000000C94D80C0C94F90C0C94F90C0C94F90C7D
:100010000C94F90C0C94F90C0C94F90C0C94F90C4C
:100020000C94F90C0C94F90C0C94F90C0C94F90C3C
:100030000C94F90C0C94F90C0C9478180C94F90CA1
:100040000C94F90C0C94F90C0C94F90C0C94F90C1C
:100050000C94F90C0C94F90C0C94F90C0C94F90C0C
:100060000C94F90C0C94F90C0C94F90C0C94F90CFC
:100070000C94F90C0C94F90C0C94F90C0C94F90CEC
:100080000C94F90C0C94F90C0C94F90C0C94F90CDC
:100090000C94F90C0C94F90C0C94F90C0C94F90CCC
:1000A0000C94F90C0C94F90C0C94F90C0C94F90CBC
:1000B0000C94F90C0C94F90C0C94F4370C94F90C86
:1000C0000C94F90C0C94F90C0C94F90C0C94F90C9C
:1000D0000C94F90C0C94F90C0C94F90C0C94F90C8C
:1000E0000C94F90C0C94F90C0C94F90C0C94F90C7C
:1000F0000C94F90C0C94BF1A0C94F90C0C94F90C98
:100100000C94F90C0C94F90C0C94F90C0C94F90C5B
:100110000C94F90C0C94F90C0C94F90C0C94F90C4B
:100120000C94F90C0C94F90C0C94F90C0C94F90C3B
:100130000C94F90C0C94F90C0C94F90C0C94F90C2B
:100140000C94F90C0C94F90C0C94F90C0C94F90C1B
:100150000C94F90C0C94F90C0C94F90C0C94F90C0B
:100160000C94F90C0C94F90C0C94F90C0C94F90CFB
:100170000C94F90C0C94F90C0C94F90C0C94F90CEB
:100180000C94F90C0C94F90C0C94F90C0C94F90CDB
:100190000C94F90C0C94F90C0C94F90C0C94F90CCB
:1001A0000C94AE180C94C1180C94F90C0C94F90C26
:1001B0000C94F90C0C94F90C0C94F90C0C94F90CAB
:1001C0000C94F90C0C94F90C0C94F90C0C94F90C9B
:1001D0000C94F90C0C94F90C0C94F90C0C94E21A94
:1001E0000C94F90C0C94F90C0D0A3E0057726974CA
:1001F0006520626F6F746C6F6164657220656E61FB
:10020000626C65206279746520746F204545505298
:100210004F4D00726573657474696E672041565264
:100220000D0A00581B00002304671B01001E042058
:1002300031010018045E1B00001304551800000E65
:10024000046E1800000804373001000204893001F0
:1002500000FC03D3300100F503FA250000F003A8E9
:10026000250100EB0384250000E603B5240000E12E
:1002700003C3240100DC030C250100D6035525012E
:1002800000D103F6470000CB039B240000C5039078
:10029000240000BD03A62F0000B70347390000B0BB
:1002A0000382380000AB037D3900008D0326220154
:1002B000009F0304220100A5034424010093037A54
:1002C0002400009A03312400008803953A0000833B
:1002D00003622F00007D03E02101007703BE2101AE
:1002E000007103D62D01006303702D01005D034DE5
:1002F0002701005603EE2601005103812601004C20
:10030000038B2101006D03A72E01006903961B01D9
:10031000002B03FD2301004103C92301003C031C02
:1003200026010035039A23010047037773323831E1
:1003300031726762007364737073770076737464EC
:10034000007673746F70007366796400736C706309
:10035000007362726900736E6372676200736F721A
:10036000676200736D726762006761730073617327
:10037000006761647672007361647672006761641D
:1003800076730069616476007261647600747670D9
:100390006E69007476707077720072747670007394
:1003A000747670720067747670720069747670008B
:1003B0006774767072760067747670730066706723
:1003C000616364730066706761720073667466636C
:1003D0000073667765007366657473007366736592
:1003E000007366626500736667730073667361000D
:1003F00073666769006774776972720067747769FA
:100400007200737477697200726176726200726151
:1004100076720068656C70007474796C6C0074742A
:1004200079650074747962003078253278203078EC
:10043000253278007265676973746572203078259B
:10044000303278203D2030782530327820286164A1
:1004500064723A20307825303278290D0A003078DD
:100460002532782030782532780072656769737498
:10047000657220307825303278203D203078253064
:1004800032782028616464723A20307825303278DE
:10049000290D0A00307825327820307825327820EE
:1004A00030782532780073656E64696E6720307825
:1004B0002530327820746F207265676973746572B5
:1004C000203078253032782028616464723A2030F8
:1004D0007825303278290D0A007265736574746965
:1004E0006E6720465047410D0A0046504741206341
:1004F0006F6E66696720697320646F6E650D0A0010
:100500004650474120636F6E666967206973206EAD
:100510006F7420646F6E650D0A00726561642066F9
:10052000726F6D207374617475732072656769737F
:1005300074657220310D0A007374617475732072D2
:10054000656769737465722031203D2030782530ED
:1005500032780D0A00726561642066726F6D2073D7
:100560007461747573207265676973746572203283
:100570000D0A007374617475732072656769737412
:1005800065722032203D203078253032780D0A0007
:10059000726561642066726F6D20766964656F2094
:1005A0007374616E646172642072656769737465E7
:1005B000720D0A00766964656F207374616E646100
:1005C0007264207265676973746572203D203078AB
:1005D000253032780D0A00307825327820307825A1
:1005E0003278003078253278007265736574696EF0
:1005F00067205456500D0A002564007365747469B1
:100600006E6720545650206F6E0D0A007365747427
:10061000696E6720545650206F66660D0A00726539
:10062000736574696E67204144560D0A0041445653
:1006300037363131207265766973696F6E20683A9A
:10064000307825303278206C3A3078253032780D89
:100650000A0048444D49206361626C6520646574FA
:1006600065637465642073746174653A203078251D
:100670003032780D0A0030782532782030782532F3
:1006800078003078253278002564006469736162EF
:100690006C696E6720465047410D0A00656E6162C5
:1006A0006C696E6720465047410D0A00256400734F
:1006B000657474696E67204E5453432061732076CD
:1006C0006964656F207374616E6461726400736540
:1006D0007474696E672050414C20617320766964A0
:1006E000656F207374616E646172640025640043F9
:1006F0006F6C6F72206368616E6E656C20636F6EE5
:1007000076657273696F6E20616374697669747956
:100710003A2025640D0A005369676E616C2073747A
:10072000617475733A2025640D0A00427269676826
:10073000746E6573732076616C75653A2030782528
:1007400032780D0A004D6178696D756D205247420F
:1007500020636F6D706F6E656E742076616C756569
:10076000733A20307825303278203078253032784E
:10077000203078253032780D0A00524742206F66CB
:10078000667365742076616C7565733A20307825E0
:100790003032782030782530327820307825303269
:1007A000780D0A005247422076616C756573206FA0
:1007B0006E206C6F7374207369676E616C3A2030C1
:1007C00078253032782030782530327820307825FE
:1007D0003032780D0A004C6F7750617373204320DC
:1007E00076616C75653A2030782530327820307823
:1007F000253032780D0A0046504741205943624364
:10080000722073696D756C6174696F6E3A2025642E
:100810000A003078253278203078253278203078F8
:10082000253278004D6178696D756D205247422000
:10083000636F6D706F6E656E742076616C75657335
:100840003A203078253032782030782530327820C0
:100850003078253032780D0A003078253278203013
:100860007825327820307825327800524742206F40
:1008700066667365742076616C7565733A203078AE
:100880002530327820307825303278203078253085
:1008900032780D0A00307825327820307825327889
:1008A000203078253278005247422076616C756599
:1008B00073206F6E206C6F7374207369676E616C48
:1008C0003A20307825303278203078253032782040
:1008D0003078253032780D0A003078253278004E95
:1008E0006577206272696768746E657373206973D7
:1008F0003A203078253032780D0A00307825327869
:10090000203078253278004E6577206C6F77207024
:100910006173732066696C74657220432069733A51
:1009200020307825303278203078253032780D0A22
:10093000002564005374617274696E67206C6F6F78
:100940007020746F20656E61626C652F64697361DD
:10095000626C65204453505F494E5F535720736962
:10096000676E616C0D0A00536574204453505F49F3
:100970004E5F535720686967680D0A0053657420FD
:100980004453505F494E5F5357206C6F770D0A00F8
:10099000307825327820307825327820307825322A
:1009A0007820307825327800256400465047412071
:1009B00059436243722073696D756C6174696F6E1F
:1009C00020656E61626C65640A004650474120599B
:1009D000436243722073696D756C6174696F6E2038
:1009E00064697361626C65640A0053504920666CE7
:1009F0006173682049443A203078253032782030BD
:100A00007825303278203078253032780D0A00256C
:100A1000640041565220746F204650474120636F56
:100A20006E66696720666C617368206163636573D5
:100A300073202853504929207374617475733A20C8
:100A400025640D0A0041565220746F2046504741DC
:100A500020636F6E66696720666C617368206163EE
:100A6000636573732028535049292073746174752A
:100A7000733A2025640D0A0053657269616C204643
:100A800050474120666C617368207374617475739C
:100A90003A20307825303278203078253032780D81
:100AA0000A002564003078253278253032782530E8
:100AB0003278003078253278253032782530327817
:100AC00000256300082008000D0A3E000D0A0045BD
:100AD0005252000D0A003E0046494E4553543A20FA
:100AE0000046494E45523A200046494E453A2000BC
:100AF000494E464F3A20005741524E494E473A2000
:100B0000004552524F523A20000046494E45535438
:100B10003A20007375636365656465640D0A006659
:100B200061696C6564212054574920726573756C46
:100B300074203D2025640D0A00256400256400759D
:100B4000736167653A0D0A0D0A2D2D2D204156520D
:100B500020584D656761202D2D2D0D0A0972617693
:100B6000723A20526573657420746865204156524C
:100B700020584D656761206D6963726F636F6E7495
:100B8000726F6C6C65722E0D0A0972617672623A30
:100B90002052657365742074686520415652205850
:100BA0004D656761206D6963726F636F6E74726FFC
:100BB0006C6C657220616E64206A756D7020696E60
:100BC000746F2074686520626F6F746C6F61646508
:100BD000722E0D0A0D0A2D2D2D20436F6C6F722081
:100BE00070726F63657373696E67202D2D2D0D0A0A
:100BF000097361733A205365742074686520636FCC
:100C00006C6F72206368616E6E656C2067656E65DF
:100C1000726174696F6E207374617475733A2031F8
:100C2000203D206163746976653B2030203D20695A
:100C30006E6163746976650D0A096761733A2047CE
:100C4000657420416D62696C6967687420737461B2
:100C50007475732E0D0A0D0A2D2D2D204650474117
:100C6000202D2D2D0D0A0966706761723A2052659C
:100C700073657420746865204650474120286E4390
:100C80006F6E66696720706F776572206379636C39
:100C900065290D0A09667067616364733A204765C8
:100CA000742074686520434F4E465F444F4E452084
:100CB0007369676E616C207374617475732E0D0AAD
:100CC0000D0A2D2D2D2054565035313436202D2D22
:100CD0002D0D0A097476707077723A20526571751D
:100CE00069726573206120706172616D65746572EF
:100CF0003A20303D7475726E20545650206F6666EF
:100D00002C20313D7475726E206974206F6E2E0D2B
:100D10000A09727476703A2052657365742074689B
:100D200065205456502E0D0A09697476703A204990
:100D30006E697469616C697A6520746865205456BF
:100D4000502E0D0A0967747670733A204765742037
:100D5000545650207374617475732E205072696EEE
:100D60007473206F75742074686520545650207316
:100D7000746174757320746F20746865207474795D
:100D80002E0D0A097476706E693A20537769746380
:100D90006820746F206E6578742054565020696EF8
:100DA0007075742E20537769746368657320746F4F
:100DB000206E657874207369676E616C20696E704F
:100DC0007574206368616E6E656C2E0D0A09677418
:100DD000767072763A205072696E7473206F7574F3
:100DE000207468652054565020524F4D207665720D
:100DF00073696F6E206E756D6265722E0D0A0967DC
:100E0000747670723A20476574205456502072658B
:100E10006769737465722E205265717569726573A6
:100E20002061207265676973746572206164647201
:100E3000657373206173206120706172616D6574E8
:100E4000657220616E64207072696E7473206F75B4
:100E500074207468652072656769737465727320A5
:100E600076616C7565206173206865782E0D0A09BE
:100E700073747670723A2053657420545650207201
:100E8000656769737465722E205265717569726544
:100E90007320612072656769737465722061646490
:100EA0007265737320616E64207468652076616C6E
:100EB000756520746F207361766520696E746F208C
:100EC00074686520676976656E20726567697374FA
:100ED0006572206173206865782E0D0A0D0A2D2D2C
:100EE0002D2041445637363131202D2D2D0D0A0944
:100EF000726164763A205265736574207468652067
:100F0000414456373631310D0A09696164763A2019
:100F1000496E697420746865204144563736313112
:100F20000D0A0967616476733A2047657420746816
:100F300065204144563736313120737461747573BE
:100F40000D0A0967616476723A204765742041444E
:100F5000562072656769737465722076616C756579
:100F60002E205265676973746572206164647265CE
:100F700073732061732030784E4E20697320726540
:100F80007175697265642E0D0A0973616476723A2F
:100F900020536574206120737065636966696320FE
:100FA0004144562072656769737465722E205265DC
:100FB000676973746572206164647265737320611C
:100FC000732030784E4E20616E642076616C7565BA
:100FD0002061732030784E4E2069732072657175E0
:100FE000697265642E0D0A0D0A2D2D2D20436F6C3C
:100FF0006F722070726F63657373696E67207365BB
:101000007474696E6773202D2D2D0D0A09736D722E
:1010100067623A20536574206D6178696D756D2043
:101020005247422076616C75657320666F7220743A
:101030006865207265636F676E697A656420636FA7
:101040006C6F7220636F6D706F6E656E74732E209F
:101050005265717569726573207468726565206880
:10106000657861646563696D616C20706172616D42
:10107000657465722E0D0A09736F7267623A2053A8
:1010800065742061206F66667365742076616C7587
:1010900065732077686963682077696C6C20626586
:1010A00020616464656420746F20746865207265D3
:1010B000636F676E697A656420636F6C6F72207608
:1010C000616C7565732E2052657175697265732048
:1010D00074687265652068657861646563696D61CF
:1010E0006C20706172616D657465722E0D0A0973F2
:1010F0006E637267623A20536574205247422063E0
:101100006F6C6F72207768696368206973207368F9
:101110006F776E206966206E6F20696E707574201F
:101120007369676E616C20697320636F6E6E6563AF
:101130007465642E205265717569726573207468D8
:101140007265652068657861646563696D616C20AE
:10115000706172616D657465722E0D0A0973627239
:10116000693A2053657420746865206F75747075D2
:1011700074206272696768746E6573732E2052659D
:101180007175697265732074687265652068657829
:1011900061646563696D616C20706172616D657415
:1011A00065722E0D0A09736C70633A2053657420C2
:1011B000746865204C6F77506173732066696C7436
:1011C000657220632D76616C75652E0D0A0D0A2DF2
:1011D0002D2D205350492046504741207365726998
:1011E000616C20666C617368206163636573732052
:1011F0002D2D2D0D0A09736673613A20456E6162CB
:101200006C652F64697361626C652041565220667B
:101210006C617368206163636573732028313D6579
:101220006E61626C65642F303D64697361626C65E8
:1012300064292E0D0A09736667693A204765742090
:101240007468652073657269616C20666C6173688F
:1012500020494420696E666F726D6174696F6E2EED
:101260000D0A09736667733A2047657420746865D0
:101270002073657269616C20666C61736820737499
:101280006174757320696E666F726D6174696F6EDB
:101290002E0D0A09736662653A2053504920666C28
:1012A0006173682062756C6B2065726173652E0DC9
:1012B0000A09736673653A2053504920666C61735E
:1012C0006820736563746F72206572617365206650
:1012D0006F72206F6E6520736563746F7220286172
:1012E000646472657373206C696B6520307830318B
:1012F00030323033207265717569726564292E0D44
:101300000A0973666574733A2053504920666C610C
:10131000736820736563746F7220657261736520F2
:10132000666F72206D756C7469706C65207365638F
:10133000746F7273202861646472657373206F66C2
:10134000206C61737420736563746F72206C696BB9
:1013500065203078303730303030207265717569F3
:10136000726564292E0D0A09736677653A20535019
:101370004920666C61736820777269746520656EB8
:1013800061626C652028313D656E61626C65642F19
:10139000303D64697361626C6564292E0D0A0973BE
:1013A000667466633A20456E61626C6520465047FC
:1013B0004120666C61736820636F6E74656E742083
:1013C0007472616E73666572206D6F646520284665
:1013D00050474120636F6E66696720666C61736871
:1013E00020616363657373290D0A0D0A2D2D2D206D
:1013F0005454592066756E6374696F6E616C6974BC
:1014000079202D2D2D0D0A09747479653A204469CF
:101410007361626C65732F456E61626C65732074D5
:10142000686520747479206563686F2E0D0A0974ED
:1014300074796C6C3A2052657175697265732061BC
:1014400020706172616D657465722028302E2E32B5
:101450003535292077686963682072657072657315
:10146000656E747320746865207474792076657273
:10147000626F736974792E0D0A0909202030202DBE
:101480002046494E4553540D0A0909202031202D8C
:101490002046494E45520D0A0909202032202D20B0
:1014A00046494E450D0A0909202033202D20494E7A
:1014B000464F0D0A0909202034202D205741524E55
:1014C000494E470D0A0909202035202D204552524A
:1014D0004F520D0A0909323535202D204E4F4E4509
:1014E0002F4D6F6E69746F72206D6F64650D0A0DFC
:1014F0000A2D2D2D204932432074657374696E675F
:10150000202D2D2D0D0A0967747769723A204164E8
:1015100064726573732061732030784E4E20616E63
:101520006420726567697374657220617320307816
:101530004E4E0D0A0973747769723A2041646472E1
:101540006573732061732030784E4E20616E642085
:1015500072656769737465722061732030784E4ECE
:1015600020616E642076616C75652061732030782F
:101570004E4E0D0A0D0A2D2D2D204F7468657220D8
:1015800074657374726F7574696E6573202D2D2D7B
:101590000D0A09736679643A20456E61626C652FA5
:1015A00064697361626C652073696D756C617469DF
:1015B0006F6E206F66204650474120594362437248
:1015C00020646174610D0A097673746F703A205259
:1015D000657175697265732061206C6F67696361FD
:1015E0006C2076616C75653A20313D766964656F73
:1015F000207363616C696E672064697361626C65F6
:10160000643B20303D766964656F7363616C696E1D
:101610006720656E61626C65640D0A097673746497
:101620003A2052657175697265732061206C6F672D
:101630006963616C2076616C75653A20313D76692D
:1016400064656F20737464206973204E5453433B68
:1016500020303D766964656F20737464206973205F
:1016600050414C0D0A097773323831317267623A52
:101670002053656E64206120636F6C6F7220746FFD
:10168000206F6E65206F7220616C6C20777332382A
:101690003131204C4544732E205265717569726555
:1016A0007320746865207773323831312061646447
:1016B000726573732C20746865207265642C2067D2
:1016C0007265656E20616E6420626C75652077615D
:1016D0006C75657320617320686578202830784EBA
:1016E0004E292E0D0A097364737073773A2053657F
:1016F00074204453505F494E5F5357207369676E9F
:10170000616C2073746174652028313D6F6E3B32CB
:101710003D6F66663B3235353D6D756C7469706C36
:1017200065206C6F6F70290D0A0D0A0073656E6479
:10173000696E672030782530327820746F207265AA
:10174000676973746572203078253032780D0A002D
:10175000726567697374657220307825303278203D
:101760003D203078253032780D0A007265616420A2
:1017700066726F6D20524F4D2076657273696F6E81
:101780002072656769737465720D0A00524F4D20AF
:1017900076657273696F6E206973203078253032F8
:1017A000780D0A0073656E64696E672030782530A5
:1017B000327820746F2072656769737465722030A7
:1017C00078253032780D0A00726567697374657226
:1017D00020307825303278203D203078253032781E
:1017E0000D0A0098F48098F57C98F84C98F9649864
:1017F000FA6C98FB6898FD44980B44980C42446C32
:1018000000689B03686F0868851F6887706857DAEF
:10181000685801680398684C4464770098010698FA
:1018200002F5980340980528980B44980C429814A8
:101830007F9815809819839820F898334044BA010E
:10184000644081689B0368C10168C20168C3016884
:10185000C40168C50168C60168C70168C80168C9D4
:101860000168CA0168CB0168CC016800006883FE8A
:10187000686F0C68851F688770688D04688E1E68A5
:101880001A8A6857DA68580168039868751064778F
:101890000064522064530064709E00000000FFFF4B
:1018A000FFFFFFFF00068F07110100000017110165
:1018B00003800C09780A1EAC98595685282952577E
:1018C000000000010101010101010101010101010B
:1018D0000101018C0AD08A20E02D10103E96008173
:1018E0006000000018011D8018711C1620582C255E
:1018F0000081490000009E000000FC0056412D318F
:10190000383039410A20202020000000FD00173D1A
:101910000D2E11000A202020202020011C0203345B
:10192000714D82050401101114131F0615031235A1
:101930000F7F07171F381F07302F07723F7F72571F
:101940007F00377F72834F000067030C0010008810
:101950002D000000FF000A20202020202020202031
:10196000202020000000FF000A202020202020202E
:101970002020202020000000FF000A20202020201E
:101980002020202020202000000000000000000077
:10199000000000000000000000000000DA64770191
:1019A0000000006364696E6F70737578585B0000A7
:1019B00011241FBECFEFDFE5DEBFCDBF00E00CBFBF
:1019C00011E2A0E0B0E2E8E9F5EA00E00BBF02C0F6
:1019D00007900D92A83DB107D9F71CE3A8EDB1E23D
:1019E00001C01D92AB3FB107E1F70E9470170C9444
:1019F000E54B0C9400000F931F93E091F22DDC0156
:101A0000EC938091F32DFB0180838091E521DA0135
:101A10008C9380912228F90180838091E421D80160
:101A20008C931F910F910895A1E0B0E0EAE1FDE0F1
:101A30000C94A652162FF42E482F6AE080E02983DA
:101A40000E944A190E9433194F2D6CE080E00E94D9
:101A50004A190E943319412F6BE080E00E944A1915
:101A60000E9433192981422F6DE080E00E944A19BB
:101A70000E943319402F6EE080E00E944A190E94B4
:101A800033192196E5E00C94BF52A1E0B0E0EBE4FD
:101A9000FDE00C94A1520E9433198091CC01877F04
:101AA0008093CC0166E080E00E9406198093242890
:101AB00067E080E00E9406198093AA2868E080E031
:101AC0000E9406198093F52D60E080E00E940619BF
:101AD0008093883361E080E00E9406198093F62DA0
:101AE00062E080E00E9406198093232863E080E092
:101AF0000E9406198093EC2D64E080E00E94061994
:101B00008093252865E080E00E94061980932828AC
:101B100069E080E00E9406198093862E6AE080E0EA
:101B20000E9406198093F22D6BE080E00E94061956
:101B30008093F32D6CE080E00E9406198093E521EC
:101B40006DE080E00E940619809322286EE080E01C
:101B50000E9406198093E4215091F22D8091F32D7B
:101B60004091E521309122282091E42190E0850FD9
:101B7000911D840F911D830F911D820F911D8093E4
:101B8000AB289093AC288091F22D813408F03FC1AE
:101B90008091F32D813608F03AC18091E52181349E
:101BA00008F035C180912228813308F030C180913E
:101BB000E4218133C0F12BC1AD2CB12CCE2CC394C8
:101BC000C3946F2D8C2D0E940619082F10E0AA0CCB
:101BD000BB1C8AE298E2A80EB91EF50100831183AE
:101BE0006F2D6F5F8C2D0E940619282F30E0322F49
:101BF0002227200F311F2039F1E03F0720F4F501A3
:101C00002083318305C08BEB90E0F50180839183C5
:101C1000D394F394F394F0E2FF12CECFE39484E0F4
:101C2000E81203C03CC0E12CD12CF12CC5CFAE2C66
:101C3000B12CB6E0DB2ED40E6F2D8D2D49830E9482
:101C40000619082F10E0AA0CBB1CEDE4F2E2AE0E60
:101C5000BF1EF501008311836F2D6F5F8D2D0E94D4
:101C60000619282F30E0322F2227200F311F4981FB
:101C70002039F1E03F0720F4F5012083318305C0CE
:101C80008BEB90E0F50180839183E394F394F394DC
:101C9000F0E2FF12CCCF4F5F463019F43CC040E079
:101CA000E12CF12CC4CFAE2CB12CECE0DE2ED40E06
:101CB0006F2D8D2D49830E940619082F10E0AA0C64
:101CC000BB1C87EF9DE2A80EB91EF50100831183AE
:101CD0006F2D6F5F8D2D0E940619282F30E0322F57
:101CE0002227200F311F49812039F1E03F0720F4DE
:101CF000F5012083318305C08BEB90E0F5018083F3
:101D00009183E394F394F394F0E2FF12CCCF4F5F0E
:101D1000443019F43CC040E0E12CF12CC4CFAE2C8F
:101D2000B12C50E1D52ED40E6F2D8D2D49830E94FC
:101D30000619082F10E0AA0CBB1C82E79DE2A80E32
:101D4000B91EF501008311836F2D6F5F8D2D0E94E9
:101D50000619282F30E0322F2227200F311F49810A
:101D60002039F1E03F0720F4F5012083318305C0DD
:101D70008BEB90E0F50180839183E394F394F394EB
:101D8000F0E2FF12CCCF4F5F423019F43CC040E08C
:101D9000E12CF12CC4CFAE2CB12C23E1D22ED40EE9
:101DA0006F2D8D2D49830E940619082F10E0AA0C73
:101DB000BB1C87EE91E2A80EB91EF50100831183CA
:101DC0006F2D6F5F8D2D0E940619282F30E0322F66
:101DD0002227200F311F49812039F1E03F0720F4ED
:101DE000F5012083318305C08BEB90E0F501808302
:101DF0009183E394F394F394F0E2FF12CCCF4F5F1E
:101E0000423019F414C040E0E12CF12CC4CF81E041
:101E10008093F22D8093F32D8093E52180932228E7
:101E20008093E42101E021E041E061E0FDDD6FE02D
:101E300080E00E940619082F10E0009326281093D6
:101E4000272860E180E00E940619282F30E0322F19
:101E50002227200F311F209326283093272861E165
:101E600080E00E9406198093292862E180E00E94A8
:101E70000619082F10E0009347221093482263E1CF
:101E800080E00E940619282F30E0322F2227200FF1
:101E9000311F20934722309348226091242870E01C
:101EA00080E090E00E948E4A20E030E048EC52E46E
:101EB0000E94824B20E030E04FE753E40E94F84953
:101EC00020E030E048EC52E40E94F84960931D2382
:101ED00070931E2380931F23909320236091AA2840
:101EE00070E080E090E00E948E4A20E030E048EC14
:101EF00052E40E94824B20E030E04FE753E40E941E
:101F0000F84920E030E048EC52E40E94F849609340
:101F1000492270934A2280934B2290934C226091E5
:101F2000F52D70E080E090E00E948E4A20E030E0E5
:101F300048EC52E40E94824B20E030E04FE753E44B
:101F40000E94F84920E030E048EC52E40E94F84951
:101F50006093772E7093782E8093792E90937A2EBB
:101F60006091862E70E080E090E00E948E4A20E032
:101F700030E040E850E40E94824B20E030E04FE740
:101F800053E40E94F8496093EE2D7093EF2D8093F7
:101F9000F02D9093F12D609126287091272880E0F4
:101FA00090E00E948C4A20E03FEF4FE757E40E9408
:101FB000F8496093822E7093832E8093842E9093A1
:101FC000852E2196EAE00C94BA521F93CF93DF93AB
:101FD0000E94D73778940E944A220E9441360E947C
:101FE000D2360E946438C0E8D6E08C818F7E8C8324
:101FF0008C818F7D8C830E94751A2FEF81EE94E087
:10200000215080409040E1F700C0000010E21F83A3
:102010000E943E371F830E9482381F831F830E94C5
:10202000B1371F830E94C5371F8381E080937B2EC9
:1020300010927C2E8C8180628C83DF91CF911F91D6
:102040000895E7C5F901EE0FFF1FEE0FFF1FDF0137
:10205000A957B14D13969C911397981718F49F5F49
:1020600013969C93DF01A957B14D13969C9113973A
:10207000891718F4915013969C93DF01A757BC4C15
:1020800013969C911397961718F49F5F13969C9341
:10209000DF01A757BC4C13969C911397691718F44E
:1020A000915013969C93DF01AE5DBC4D13969C91AD
:1020B0001397941718F49F5F13969C93EE5DFC4D55
:1020C0009381491710F4915093832F5F3F4F02C0C3
:1020D00020E030E0E091AB28F091AC282E173F07CC
:1020E00008F4B0CF909104069E7F90930406E7E930
:1020F000F1E03197F1F700C0000090E075C5220FC4
:10210000331F220F331FF901E757FC4C538157FF50
:1021100018C0509104065160509304060014001436
:10212000001400140014001400140014001400140F
:10213000001400140014509104065E7F50930406AE
:1021400017C0509104065160509304060014001407
:10215000001400140014509104065E7F509304068E
:1021600000140014001400140014001400140014CF
:1021700000140014001400140014F901E757FC4C7B
:10218000538156FF18C050910406516050930406C5
:10219000001400140014001400140014001400149F
:1021A00000140014001400140014509104065E7F03
:1021B0005093040617C050910406516050930406D2
:1021C00000140014001400140014509104065E7FE3
:1021D000509304060014001400140014001400149A
:1021E0000014001400140014001400140014F90169
:1021F000E757FC4C538155FF18C0509104065160BD
:102200005093040600140014001400140014001469
:102210000014001400140014001400140014509151
:1022200004065E7F5093040617C050910406516067
:10223000509304060014001400140014001450916C
:1022400004065E7F5093040600140014001400146A
:1022500000140014001400140014001400140014DE
:102260000014F901E757FC4C538154FF18C05091FA
:102270000406516050930406001400140014001466
:1022800000140014001400140014001400140014AE
:102290000014509104065E7F5093040617C05091BD
:1022A0000406516050930406001400140014001436
:1022B0000014509104065E7F50930406001400142D
:1022C000001400140014001400140014001400146E
:1022D000001400140014F901E757FC4C538153FF1C
:1022E00018C0509104065160509304060014001465
:1022F000001400140014001400140014001400143E
:10230000001400140014509104065E7F50930406DC
:1023100017C0509104065160509304060014001435
:10232000001400140014509104065E7F50930406BC
:1023300000140014001400140014001400140014FD
:1023400000140014001400140014F901E757FC4CA9
:10235000538152FF18C050910406516050930406F7
:1023600000140014001400140014001400140014CD
:1023700000140014001400140014509104065E7F31
:102380005093040617C05091040651605093040600
:1023900000140014001400140014509104065E7F11
:1023A00050930406001400140014001400140014C8
:1023B0000014001400140014001400140014F90197
:1023C000E757FC4C538151FF18C0509104065160EF
:1023D0005093040600140014001400140014001498
:1023E0000014001400140014001400140014509180
:1023F00004065E7F5093040617C050910406516096
:10240000509304060014001400140014001450919A
:1024100004065E7F50930406001400140014001498
:10242000001400140014001400140014001400140C
:102430000014F901E757FC4C538150FF18C050912C
:102440000406516050930406001400140014001494
:1024500000140014001400140014001400140014DC
:102460000014509104065E7F5093040617C05091EB
:102470000406516050930406001400140014001464
:102480000014509104065E7F50930406001400145B
:10249000001400140014001400140014001400149C
:1024A000001400140014F901E957F14D538157FF4E
:1024B00018C0509104065160509304060014001493
:1024C000001400140014001400140014001400146C
:1024D000001400140014509104065E7F509304060B
:1024E00017C0509104065160509304060014001464
:1024F000001400140014509104065E7F50930406EB
:10250000001400140014001400140014001400142B
:1025100000140014001400140014F901E957F14DDF
:10252000538156FF18C05091040651605093040621
:1025300000140014001400140014001400140014FB
:1025400000140014001400140014509104065E7F5F
:102550005093040617C0509104065160509304062E
:1025600000140014001400140014509104065E7F3F
:1025700050930406001400140014001400140014F6
:102580000014001400140014001400140014F901C5
:10259000E957F14D538155FF18C050910406516021
:1025A00050930406001400140014001400140014C6
:1025B00000140014001400140014001400145091AE
:1025C00004065E7F5093040617C0509104065160C4
:1025D00050930406001400140014001400145091C9
:1025E00004065E7F509304060014001400140014C7
:1025F000001400140014001400140014001400143B
:102600000014F901E957F14D538154FF18C050915E
:1026100004065160509304060014001400140014C2
:10262000001400140014001400140014001400140A
:102630000014509104065E7F5093040617C0509119
:102640000406516050930406001400140014001492
:102650000014509104065E7F509304060014001489
:1026600000140014001400140014001400140014CA
:10267000001400140014F901E957F14D538153FF80
:1026800018C05091040651605093040600140014C1
:10269000001400140014001400140014001400149A
:1026A000001400140014509104065E7F5093040639
:1026B00017C0509104065160509304060014001492
:1026C000001400140014509104065E7F5093040619
:1026D000001400140014001400140014001400145A
:1026E00000140014001400140014F901E957F14D0E
:1026F000538152FF18C05091040651605093040654
:102700000014001400140014001400140014001429
:1027100000140014001400140014509104065E7F8D
:102720005093040617C0509104065160509304065C
:1027300000140014001400140014509104065E7F6D
:102740005093040600140014001400140014001424
:102750000014001400140014001400140014F901F3
:10276000E957F14D538151FF18C050910406516053
:1027700050930406001400140014001400140014F4
:1027800000140014001400140014001400145091DC
:1027900004065E7F5093040617C0509104065160F2
:1027A00050930406001400140014001400145091F7
:1027B00004065E7F509304060014001400140014F5
:1027C0000014001400140014001400140014001469
:1027D0000014F901E957F14D538150FF18C0509191
:1027E00004065160509304060014001400140014F1
:1027F0000014001400140014001400140014001439
:102800000014509104065E7F5093040617C0509147
:1028100004065160509304060014001400140014C0
:102820000014509104065E7F5093040600140014B7
:1028300000140014001400140014001400140014F8
:10284000001400140014F901EE5DFC4D538157FF94
:1028500018C05091040651605093040600140014EF
:1028600000140014001400140014001400140014C8
:10287000001400140014509104065E7F5093040667
:1028800017C05091040651605093040600140014C0
:10289000001400140014509104065E7F5093040647
:1028A0000014001400140014001400140014001488
:1028B00000140014001400140014F901EE5DFC4D26
:1028C000538156FF18C0509104065160509304067E
:1028D0000014001400140014001400140014001458
:1028E00000140014001400140014509104065E7FBC
:1028F0005093040617C0509104065160509304068B
:1029000000140014001400140014509104065E7F9B
:102910005093040600140014001400140014001452
:102920000014001400140014001400140014F90121
:10293000EE5DFC4D538155FF18C050910406516067
:102940005093040600140014001400140014001422
:10295000001400140014001400140014001450910A
:1029600004065E7F5093040617C050910406516020
:102970005093040600140014001400140014509125
:1029800004065E7F50930406001400140014001423
:102990000014001400140014001400140014001497
:1029A0000014F901EE5DFC4D538154FF18C05091A5
:1029B000040651605093040600140014001400141F
:1029C0000014001400140014001400140014001467
:1029D0000014509104065E7F5093040617C0509176
:1029E00004065160509304060014001400140014EF
:1029F0000014509104065E7F5093040600140014E6
:102A00000014001400140014001400140014001426
:102A1000001400140014F901EE5DFC4D538153FFC6
:102A200018C050910406516050930406001400141D
:102A300000140014001400140014001400140014F6
:102A4000001400140014509104065E7F5093040695
:102A500017C05091040651605093040600140014EE
:102A6000001400140014509104065E7F5093040675
:102A700000140014001400140014001400140014B6
:102A800000140014001400140014F901EE5DFC4D54
:102A9000538152FF18C050910406516050930406B0
:102AA0000014001400140014001400140014001486
:102AB00000140014001400140014509104065E7FEA
:102AC0005093040617C050910406516050930406B9
:102AD00000140014001400140014509104065E7FCA
:102AE0005093040600140014001400140014001481
:102AF0000014001400140014001400140014F90150
:102B0000EE5DFC4D538151FF18C050910406516099
:102B10005093040600140014001400140014001450
:102B20000014001400140014001400140014509138
:102B300004065E7F5093040617C05091040651604E
:102B40005093040600140014001400140014509153
:102B500004065E7F50930406001400140014001451
:102B600000140014001400140014001400140014C5
:102B70000014F901EE5DFC4D238120FF18C0209167
:102B800004062160209304060014001400140014AD
:102B90000014001400140014001400140014001495
:102BA0000014209104062E7F2093040617C0209164
:102BB000040621602093040600140014001400147D
:102BC0000014209104062E7F2093040600140014A4
:102BD0000014001400140014001400140014001455
:102BE0000014001400149F5F292F30E0E091AB28FF
:102BF000F091AC282E173F0708F481CA9091040683
:102C0000916090930406EFEBFDE53197F1F700C07A
:102C1000000090918A2E98135BCA90918C33961382
:102C200057CA90912523941353CA08954091282898
:102C3000609125288091EC2D04CA40E060E080E09E
:102C400000CACF93DF930E9443318D3F19F4C0E057
:102C5000D0E009C00E9443318F3FC9F30E94433145
:102C60008C3FC9F415C0FE01E353F44D2081FE01F1
:102C7000E35CF54D4081FE01E355F74D6081CE01E7
:102C80000E94E3352196C03981E0D80761F7E6CF8D
:102C9000C0E0D0E01BC00E9443318D3FF1F4F8CF7B
:102CA000CE01880F991F880F991FDC01A757BC4CD4
:102CB000FC01EE5DFC4D8957914D13962C9143819B
:102CC000FC016381CE010E94123621968091AB28CF
:102CD0009091AC28C817D90718F3DF91CF910895C8
:102CE0000F931F93CF93DF938091E621811103C04F
:102CF00081E08093E6218091E621813009F0A4C033
:102D00008091002090910120019680930020909363
:102D10000120883E934009F097C08091DD218330E7
:102D200061F48091DE218F5F833019F08093DE2182
:102D300002C01092DE211092DD211091DD21012FC1
:102D4000C0E0D0E0CE0164E170E00E94855280E0F6
:102D500090E00E948C4A0E94E1490E94604A4C2FF8
:102D600084E1689F40191124842F837049F444231F
:102D700039F08091DE21823018F41F5F133079F032
:102D8000FE01E355F74DCE0180579E4F1130C1F043
:102D900030F09E01205E3C4F123059F51DC0FE01FF
:102DA000E355F74D81E58083FE01E35CF54D8AE54F
:102DB0008083FE01E353F44D80EF808310E024C054
:102DC00021E92083FC01E355F74D26E32083FE0132
:102DD000E353F44D82E20BC059E25083FC01E3550A
:102DE000F74D50EF5083F901E355F74D8EE68083A0
:102DF0000BC05DE95083FC01E355F74D50E850836B
:102E0000F901E355F74D5083433181F4862F8370E8
:102E100049F4662339F08091DE21882319F00F5F91
:102E2000033011F0102F02C000E010E02196C039ED
:102E300021E0D20709F086CF8091DD218F5F80935A
:102E4000DD2182E08093E621DF91CF911F910F91E8
:102E500008958091E621813009F041C020E030E002
:102E600080E090E04091A40640644093A406409125
:102E7000A4064F7B4093A4064091680650914806F3
:102E8000437021F05B5F413059F405C05F5FFC0186
:102E9000E355F74D03C0FC01E35CF54D508305C0DD
:102EA000FC01E353F44D508301962F5F3F4F203BCD
:102EB00044E03407B9F68091A4068F7B8093A40682
:102EC0008091272A8093282A8091B72B8093B82B52
:102ED0008091472D8093482D82E08093E6210895CC
:102EE00010921C2381E08093ED2D6FD80E94450D38
:102EF0000E9443318E3F30F468EE71E08FEF0E9404
:102F0000862305C08091A40680618093A4068091E9
:102F10007B2E823018F081E080937B2E80917B2E77
:102F2000813009F05CC08091DA21811114C0809158
:102F3000240680FD12C00E946638811102C00E94E2
:102F400082380E9472380E94AF3991E0811190E07E
:102F50009093ED2D02C01092ED2D80911C23C09115
:102F6000ED2D813061F4C1111AC010921C238091A3
:102F7000A4068F7E8093A4061092E62110C08111D2
:102F80000EC0C13061F452DEC0931C238091A406B0
:102F900080618093A40610927E2E10927F2E8091E5
:102FA000ED2D813089F48091DB219091DC21019617
:102FB0008093DB219093DC21883E934080F0109237
:102FC000DB211092DC210BC08091DA21811102C03B
:102FD00040DF01C085DE0E94E7410E94A43A809153
:102FE0007C2E823010F010927C2E80917C2E8823D3
:102FF000C9F010927C2E8091A40680618093A40673
:103000000E942738811102C00E94643881E08093B9
:103010007B2E0E946638811103C00E94823802C054
:103020000E947D3980917B2E8130A9F48091ED2D15
:10303000813089F480912928882369F080917D2E40
:103040008C3348F010927D2E0E94B3398091A406F3
:1030500080618093A40680917B2E882321F080914B
:10306000ED2D8130E9F420917E2E30917F2E8091DC
:103070004722909148222817390790F0DEDD109200
:103080007E2E10927F2E8091A40680618093A406EC
:1030900080912928882321F00E946C380E94CF3922
:1030A0000E949A220E94443632CF63E172E083E0AC
:1030B0000E948623C2DDD7D02FEF83ED90E321500D
:1030C00080409040E1F700C00000E8E7F0E08FEFBB
:1030D000808388ED84BF81E0818308956CEE71E088
:1030E00083E00E9486234AEA61E081E0D3D0DDCF0D
:1030F0001F920F920FB60F9211248F939F9390916E
:10310000292880917B2E992341F0813031F48091E0
:103110007D2E8F5F80937D2E02C0882321F08091C9
:10312000ED2D813081F48091472290914822892BA6
:1031300051F080917E2E90917F2E019680937E2E6D
:1031400090937F2E04C010927E2E10927F2E9F911E
:103150008F910F900FBE0F901F9018951F920F9296
:103160000FB60F9211248F938091E621811103C035
:1031700081E08093E6218F910F900FBE0F901F90FA
:1031800018951F920F920FB60F9211248F9381E022
:1031900080937C2E8F910F900FBE0F901F901895EB
:1031A0000F93CF93DF931F92CDB7DEB72FB729834D
:1031B000F8941BBEFC0108ED04BF608389818FBFBA
:1031C0000F90DF91CF910F9108956F71682BE0E51B
:1031D000F0E065830895682B81E490E0E1CF1F93D0
:1031E000CF93DF93182FC0E4D0E06881687F682B0D
:1031F00080E490E0D5DF88818123DF91CF911F911A
:1032000008958091CF0187FDFCCF0895A2E0B0E042
:10321000ECE0F9E10C94A9526A838983F2DF6A81B8
:103220006F71898120E2829FC0011124862BE0EC1E
:10323000F1E08083892F99278183128286E082873B
:10324000EF93FF930F932F93EBECF1E008ED21E068
:1032500004BF20832F910F91FF91EF9184812296DB
:10326000E2E00C94C252CDDF8091CF0181FF11C00A
:1032700086E38093CA01EF93FF930F932F93EBECB8
:10328000F1E008ED21E004BF20832F910F91FF9121
:10329000EF910895A3E0B0E0E0E5F9E10C94A952C4
:1032A0004B836A838983DFDFE0ECF1E093E392876D
:1032B0006A816F71898120E2829FC0011124862B6F
:1032C0008083892F9927818312824B81448385E3F0
:1032D0008287EF93FF930F932F93EBECF1E008EDD0
:1032E00021E004BF20832F910F91FF91EF9123964E
:1032F000E2E00C94C252FC0181858C7F682B6187CF
:1033000042870895FC018185837F682B618743870D
:103310000895EF920F93E02A442311F030E801C0A2
:1033200030E0E32A222311F020E401C020E02E291E
:103330004FB7F8946093B000FC01208B4FBF0F9102
:10334000EF900895FC01608371834863DB0111965F
:103350004C93A081B18115962C930190F081E02DC2
:1033600081E0848308950F93FC01293068F50930CA
:1033700058F58789811128C081E0878B108E628380
:1033800030E00CC0832F90E0DA01A80FB91F6C91D8
:10339000DF01A80FB91F13966C933F5F321790F3AC
:1033A000238B048B158A168A8389882319F08281DE
:1033B0008E7F05C08489882349F0828181600190D5
:1033C000F081E02D868302C080E001C081E00F9192
:1033D00008950F93042F20E040E050E0C4DF0F91E8
:1033E00008950F9300E0BFDF0F910895FC01A081C5
:1033F000B18114968C91149782FF02C094E001C0B1
:1034000093E0908F886014968C93178A0895FC013E
:10341000608F178A0895CF93DF93EC018E89E8813E
:10342000F981883050F487819E89FE01E90FF11DF2
:1034300083878E898F5F8E8B05C083E0838362E0F4
:10344000CE01E5DF8C899E89E881F981981718F40F
:1034500082E0838305C087E0838361E0CE01D7DF0C
:10346000DF91CF910895CF93DF93FC0193898489F5
:10347000A081B18114962C91149724FF07C083E09A
:1034800013968C9385E0808F178A1CC02589291795
:1034900058F48589EF01C80FD11D8B8117968C9345
:1034A00085898F5F858B0EC09689981728F4828155
:1034B000816016968C9306C083E013968C9361E02E
:1034C000CF01A5DFDF91CF910895DC01ED91FC9153
:1034D0002481322F3C7009F089CF26FF01C0C3CF71
:1034E00027FF01C098CF66E092CF10928B3A1092DE
:1034F0008C3A1092893810928A38E0EAFBE023E097
:10350000258386EF868390EB978383818061838315
:1035100084818860848384818061848384818460E1
:103520008483E0EBFAE025838BE6868397838381AF
:1035300080618383848188608483848180618483C3
:10354000848184608483E0EAF0E082818160828308
:1035500008959091B10A95FFFCCF8093B00A089529
:10356000F8CF0895F6DF80E090E008959091A10BE8
:1035700095FFFCCF8093A00B0895F8CF08951F927C
:103580000F920FB60F9211240BB60F928F93EF93F9
:10359000FF93E0918A38EF5F80918938E81741F016
:1035A000E0938A388091B00AF0E0E757F74C8283C5
:1035B000FF91EF918F910F900BBE0F900FBE0F9068
:1035C0001F9018951F920F920FB60F9211240BB6F1
:1035D0000F928F93EF93FF93E0918C3AEF5F80917E
:1035E0008B3AE81741F0E0938C3A8091A00BF0E021
:1035F000E557F54C8283FF91EF918F910F900BBEB1
:103600000F900FBE0F901F901895EF920F93CF93CE
:10361000DF9382E0E82E00E020E040E060EB80E60F
:1036200096E077DEC0E6D6E080EB8983E12C08E304
:1036300020E040E060E480E696E06BDE80E48A8390
:10364000DF91CF910F91EF900895EF920F93E12CBE
:1036500008E220E040E060EF80E696E05ADE80EF8E
:10366000E0E6F6E082830F91EF90089590E820E87D
:1036700020936606292F282321F020E22093650657
:1036800003C020E22093660620E820936506969505
:1036900071F7089590E880E020E820936606209373
:1036A00065062091680626FD892B9695A9F7089551
:1036B0008091BF3C88608093BF3C08958FE39BE07E
:1036C0009F938F930E943A4C0F900F900895A2E021
:1036D000B0E0EDE6FBE10C94A95219821A829E013A
:1036E0002F5F3F4F3F932F932CE33BE03F932F936C
:1036F0009F938F930E94AA4C0F900F900F900F9062
:103700000F900F90892B71F089819A812091BF3C95
:10371000892B21F024602093BF3C04C0822F8B7F33
:103720008093BF3C2296E2E00C94C252A8E0B0E045
:10373000ECE9FBE10C94A9529E012F5F3F4F3F93B0
:103740002F939E012D5F3F4F3F932F939E012B5F41
:103750003F4F3F932F939E01295F3F4F3F932F93FE
:1037600020E939E03F932F939F938F930E94AA4CB7
:10377000CDBFDEBF892B09F4CAC58F8198858F3FE5
:10378000910509F515C0880F991F880F991FFC0135
:10379000E957F14D2D812383FC01E757FC4C2B8128
:1037A0002383FC01EE5DFC4D298123834F5F01C023
:1037B00040E0842F90E02091AB283091AC28821714
:1037C000930708F313C0880F991F880F991FFC01F6
:1037D000E957F14D2D812383FC01E757FC4C2B81E8
:1037E0002383FC01EE5DFC4D298123838091040637
:1037F0008E7F8093040687E991E00197F1F700C07E
:10380000000040E075C5880F991F880F991FFC01C3
:10381000E757FC4C238127FF18C020910406216044
:103820002093040600140014001400140014001463
:10383000001400140014001400140014001420914B
:1038400004062E7F2093040617C0209104062160F1
:103850002093040600140014001400140014209196
:1038600004062E7F20930406001400140014001494
:1038700000140014001400140014001400140014A8
:103880000014FC01E757FC4C238126FF18C020914F
:103890000406216020930406001400140014001490
:1038A0000014001400140014001400140014001478
:1038B0000014209104062E7F2093040617C0209147
:1038C0000406216020930406001400140014001460
:1038D0000014209104062E7F209304060014001487
:1038E0000014001400140014001400140014001438
:1038F000001400140014FC01E757FC4C238125FF41
:1039000018C02091040621602093040600140014BE
:103910000014001400140014001400140014001407
:10392000001400140014209104062E7F2093040636
:1039300017C020910406216020930406001400148F
:10394000001400140014209104062E7F2093040616
:1039500000140014001400140014001400140014C7
:1039600000140014001400140014FC01E757FC4C70
:10397000238124FF18C020910406216020930406AF
:103980000014001400140014001400140014001497
:1039900000140014001400140014209104062E7F5B
:1039A0002093040617C0209104062160209304068A
:1039B00000140014001400140014209104062E7F3B
:1039C00020930406001400140014001400140014C2
:1039D0000014001400140014001400140014FC015E
:1039E000E757FC4C238123FF18C020910406216077
:1039F0002093040600140014001400140014001492
:103A00000014001400140014001400140014209179
:103A100004062E7F2093040617C02091040621601F
:103A200020930406001400140014001400142091C4
:103A300004062E7F209304060014001400140014C2
:103A400000140014001400140014001400140014D6
:103A50000014FC01E757FC4C238122FF18C0209181
:103A600004062160209304060014001400140014BE
:103A700000140014001400140014001400140014A6
:103A80000014209104062E7F2093040617C0209175
:103A9000040621602093040600140014001400148E
:103AA0000014209104062E7F2093040600140014B5
:103AB0000014001400140014001400140014001466
:103AC000001400140014FC01E757FC4C238121FF73
:103AD00018C02091040621602093040600140014ED
:103AE0000014001400140014001400140014001436
:103AF000001400140014209104062E7F2093040665
:103B000017C02091040621602093040600140014BD
:103B1000001400140014209104062E7F2093040644
:103B200000140014001400140014001400140014F5
:103B300000140014001400140014FC01E757FC4C9E
:103B4000238120FF18C020910406216020930406E1
:103B500000140014001400140014001400140014C5
:103B600000140014001400140014209104062E7F89
:103B70002093040617C020910406216020930406B8
:103B800000140014001400140014209104062E7F69
:103B900020930406001400140014001400140014F0
:103BA0000014001400140014001400140014FC018C
:103BB000E957F14D238127FF18C0209104062160A9
:103BC00020930406001400140014001400140014C0
:103BD00000140014001400140014001400142091A8
:103BE00004062E7F2093040617C02091040621604E
:103BF00020930406001400140014001400142091F3
:103C000004062E7F209304060014001400140014F0
:103C10000014001400140014001400140014001404
:103C20000014FC01E957F14D238126FF18C02091B3
:103C300004062160209304060014001400140014EC
:103C400000140014001400140014001400140014D4
:103C50000014209104062E7F2093040617C02091A3
:103C600004062160209304060014001400140014BC
:103C70000014209104062E7F2093040600140014E3
:103C80000014001400140014001400140014001494
:103C9000001400140014FC01E957F14D238125FFA5
:103CA00018C020910406216020930406001400141B
:103CB0000014001400140014001400140014001464
:103CC000001400140014209104062E7F2093040693
:103CD00017C02091040621602093040600140014EC
:103CE000001400140014209104062E7F2093040673
:103CF0000014001400140014001400140014001424
:103D000000140014001400140014FC01E957F14DD4
:103D1000238124FF18C0209104062160209304060B
:103D200000140014001400140014001400140014F3
:103D300000140014001400140014209104062E7FB7
:103D40002093040617C020910406216020930406E6
:103D500000140014001400140014209104062E7F97
:103D6000209304060014001400140014001400141E
:103D70000014001400140014001400140014FC01BA
:103D8000E957F14D238123FF18C0209104062160DB
:103D900020930406001400140014001400140014EE
:103DA00000140014001400140014001400142091D6
:103DB00004062E7F2093040617C02091040621607C
:103DC0002093040600140014001400140014209121
:103DD00004062E7F2093040600140014001400141F
:103DE0000014001400140014001400140014001433
:103DF0000014FC01E957F14D238122FF18C02091E6
:103E0000040621602093040600140014001400141A
:103E10000014001400140014001400140014001402
:103E20000014209104062E7F2093040617C02091D1
:103E300004062160209304060014001400140014EA
:103E40000014209104062E7F209304060014001411
:103E500000140014001400140014001400140014C2
:103E6000001400140014FC01E957F14D238121FFD7
:103E700018C0209104062160209304060014001449
:103E80000014001400140014001400140014001492
:103E9000001400140014209104062E7F20930406C1
:103EA00017C020910406216020930406001400141A
:103EB000001400140014209104062E7F20930406A1
:103EC0000014001400140014001400140014001452
:103ED00000140014001400140014FC01E957F14D03
:103EE000238120FF18C0209104062160209304063E
:103EF0000014001400140014001400140014001422
:103F000000140014001400140014209104062E7FE5
:103F10002093040617C02091040621602093040614
:103F200000140014001400140014209104062E7FC5
:103F3000209304060014001400140014001400144C
:103F40000014001400140014001400140014FC01E8
:103F5000EE5DFC4D238127FF18C0209104062160EF
:103F6000209304060014001400140014001400141C
:103F70000014001400140014001400140014209104
:103F800004062E7F2093040617C0209104062160AA
:103F9000209304060014001400140014001420914F
:103FA00004062E7F2093040600140014001400144D
:103FB0000014001400140014001400140014001461
:103FC0000014FC01EE5DFC4D238126FF18C02091FA
:103FD0000406216020930406001400140014001449
:103FE0000014001400140014001400140014001431
:103FF0000014209104062E7F2093040617C0209100
:104000000406216020930406001400140014001418
:104010000014209104062E7F20930406001400143F
:1040200000140014001400140014001400140014F0
:10403000001400140014FC01EE5DFC4D238125FFEB
:1040400018C0209104062160209304060014001477
:1040500000140014001400140014001400140014C0
:10406000001400140014209104062E7F20930406EF
:1040700017C0209104062160209304060014001448
:10408000001400140014209104062E7F20930406CF
:104090000014001400140014001400140014001480
:1040A00000140014001400140014FC01EE5DFC4D1B
:1040B000238124FF18C02091040621602093040668
:1040C0000014001400140014001400140014001450
:1040D00000140014001400140014209104062E7F14
:1040E0002093040617C02091040621602093040643
:1040F00000140014001400140014209104062E7FF4
:10410000209304060014001400140014001400147A
:104110000014001400140014001400140014FC0116
:10412000EE5DFC4D238123FF18C020910406216021
:10413000209304060014001400140014001400144A
:104140000014001400140014001400140014209132
:1041500004062E7F2093040617C0209104062160D8
:10416000209304060014001400140014001420917D
:1041700004062E7F2093040600140014001400147B
:10418000001400140014001400140014001400148F
:104190000014FC01EE5DFC4D238122FF18C020912C
:1041A0000406216020930406001400140014001477
:1041B000001400140014001400140014001400145F
:1041C0000014209104062E7F2093040617C020912E
:1041D0000406216020930406001400140014001447
:1041E0000014209104062E7F20930406001400146E
:1041F000001400140014001400140014001400141F
:10420000001400140014FC01EE5DFC4D238121FF1D
:1042100018C02091040621602093040600140014A5
:1042200000140014001400140014001400140014EE
:10423000001400140014209104062E7F209304061D
:1042400017C0209104062160209304060014001476
:10425000001400140014209104062E7F20930406FD
:1042600000140014001400140014001400140014AE
:1042700000140014001400140014FC01EE5DFC4D49
:10428000838180FF18C080910406816080930406BA
:10429000001400140014001400140014001400147E
:1042A00000140014001400140014809104068E7F82
:1042B0008093040617C080910406816080930406F1
:1042C00000140014001400140014809104068E7F62
:1042D0008093040600140014001400140014001449
:1042E00000140014001400140014001400144F5F94
:1042F000842F90E02091AB283091AC28821793074F
:1043000008F481CA8091040681608093040628968F
:10431000E2E00C94C252A2E0B0E0E1E9F1E20C94D8
:10432000A9529E012F5F3F4F3F932F932CEE36E013
:104330003F932F939F938F930E94AA4C0F900F90BF
:104340000F900F900F900F90892BA1F089819A8187
:10435000892B39F081E080937B2E8091A4068F7E9B
:1043600007C010927B2E0E9416168091A4068061D1
:104370008093A4062296E2E00C94C252A2E0B0E040
:10438000E4ECF1E20C94A9529E012F5F3F4F3F9362
:104390002F9322E836E03F932F939F938F930E94B1
:1043A000AA4C0F900F900F900F900F900F90892BA9
:1043B00019F089810E94203A2296E2E00C94C252C0
:1043C000A4E0B0E0E6EEF1E20C94A9529E012F5F6A
:1043D0003F4F3F932F939E012D5F3F4F3F932F936E
:1043E00026E736E03F932F939F938F930E94AA4C2A
:1043F000CDBFDEBF892B21F069818B810E94EE3910
:104400002496E2E00C94C252A2E0B0E0EAE0F2E2CC
:104410000C94A9529E012F5F3F4F3F932F9323EEA1
:1044200035E03F932F939F938F930E94AA4C0F9058
:104430000F900F900F900F900F90892B19F089819A
:104440000E9417392296E2E00C94C252A4E0B0E038
:10445000ECE2F2E20C94A9529E012F5F3F4F3F9392
:104460002F939E012D5F3F4F3F932F9327ED35E014
:104470003F932F939F938F930E94AA4CCDBFDEBF93
:10448000892B21F069818B810E94E5382496E2E036
:104490000C94C2528091BF3C877F8B7F8093BF3C3E
:1044A0008EEF8093C13C82E090E28093F73C909342
:1044B000F83C0895A0E0B0E0E0E6F2E20C94A252ED
:1044C0008C0168E170E20E94F94B7C01C3E2D2E00A
:1044D000B12CFE013496C590D490B601C7010E945C
:1044E000E74B892B31F02696B3948CE2B812F1CFCA
:1044F0001AC0FE01E590F4902296FE0185919491F8
:104500008130910539F4C6010E94F04B0196800F6D
:10451000911F04C0892B39F480E090E0F7011995D0
:1045200081E090E002C080E090E0CDB7DEB7E9E046
:104530000C94BB52CF93E091893880918A38E81768
:1045400009F4B3C0EF5FE0938938F0E0E757F74C28
:10455000C281CC2309F4A9C0CD3009F460C0809198
:10456000C03C823308F0A1C0CF3740F4C03250F4D1
:10457000C93001F1CB3109F04AC03DC0CF3709F055
:1045800046C022C08091BF3C82FF0CC01F92CF93D7
:1045900081EC9AE09F938F930E943A4C0F900F907A
:1045A0000F900F908091C03CE82FF0E0E357F34C60
:1045B000C08306C0E82FF0E0E357F34C90E290830D
:1045C0008F5F8093C03C23C0882309F18091BF3C5A
:1045D00082FF1DC084EC9AE09F938F930E943A4C17
:1045E0008091C03CE82FF0E0E357F34C10828150FB
:1045F0008093C03C0AC0882351F088EC9AE09F93D6
:104600008F930E943A4C1092C03C0F900F90809173
:10461000C03C833308F449C01092C03C46C080912E
:10462000BF3C982F937009F040C0E091C03CF0E08F
:10463000E357F34C10821092C03C82FF08C08CEC10
:104640009AE09F938F930E943A4C0F900F908DE8C1
:104650009CE330DF892B29F08091BF3C837029F5E2
:104660000CC080918D3C882341F08FEC9AE09F93A1
:104670008F930E943A4C0F900F908091BF3C82FF25
:1046800014C08091C13C863080F483ED9AE09F9302
:104690008F930E943A4C86ED9AE09F938F930E94ED
:1046A0003A4C0F900F900F900F90CF9108959091EA
:1046B000C13C891750F1833089F020F48130E9F052
:1046C00050F406C0853081F060F08F3F99F40FC040
:1046D00088ED9AE014C089EE9AE011C080EF9AE06C
:1046E0000EC087EF9AE00BC081E09BE008C089E034
:1046F0009BE005C08AE09BE002C081EE9AE09F93B8
:104700008F930E943A4C0F900F9008951F93CF9370
:10471000DF93182FEB01CBDF8091C13C181730F0ED
:10472000DF93CF930E943A4C0F900F90DF91CF917F
:104730001F910895A2E0B0E0E0EAF3E20C94A952E0
:104740009E012F5F3F4F3F932F9328EA39E03F931D
:104750002F939F938F930E94AA4C0F900F900F90CE
:104760000F900F900F90892B81F089819A81823070
:10477000910558F48093DA21892B19F06BEA79E0DE
:1047800002C06AEC79E083E0C1DF2296E2E00C949B
:10479000C252A2E0B0E0EFECF3E20C94A9529E0109
:1047A0002F5F3F4F3F932F932CEA36E03F932F9399
:1047B0009F938F930E94AA4C0F900F900F900F9091
:1047C0000F900F90892BA9F089819A81892B41F054
:1047D0008091A40680628093A4066FEA76E007C009
:1047E0008091A4068F7D8093A4066EEC76E083E032
:1047F0008DDF2296E2E00C94C252A2E0B0E0E3E04A
:10480000F4E20C94A9529E012F5F3F4F3F932F93E8
:1048100028E836E03F932F939F938F930E94AA4CF2
:104820000F900F900F900F900F900F90892BA9F081
:1048300089819A81892B41F08091A40680618093BF
:10484000A4066BE876E007C08091A4068F7E809373
:10485000A4066CE976E083E059DF2296E2E00C944E
:10486000C2526EE176E083E051DFE0E2F6E084815F
:104870008B7F84838FE39CE90197F1F700C00000F0
:104880008481846084830895A2E0B0E0EAE4F4E2E5
:104890000C94A9529E012F5F3F4F3F932F9328EF17
:1048A00035E03F932F939F938F930E94AA4C0F90D4
:1048B0000F900F900F900F900F90892B71F08981BE
:1048C0009A81019751F4809124068E7F809324066B
:1048D0006BEF75E083E01ADF09C06CE076E083E0FF
:1048E00015DF809124068160809324062296E2E001
:1048F0000C94C25269EE75E083E008DFE0E2F6E076
:1049000084818E7F848384818D7F84838FE39FE184
:104910000197F1F700C000008481826084830895CC
:104920000E942738882319F06AEE74E002C060E024
:1049300075E083E0EBCE69ED74E083E0E7DE0C9494
:104940002D381F93CF93DF93182FEB01B0DE8091AA
:10495000C13C181730F0DF93CF930E94234C0F9087
:104960000F90DF91CF911F9108956AE170E283E08B
:10497000E8DF0E9431470E946E4780FDFCCF60E374
:1049800070E28FEFDECFCF92DF92EF92FF92CF9364
:10499000DF9300D000D0CDB7DEB79E012F5F3F4F31
:1049A0003F932F939E012D5F3F4F3F932F939E0187
:1049B0002B5F3F4F3F932F9323EB3AE03F932F938F
:1049C0009F938F930E948D4CCDBFDEBF892BD1F07A
:1049D000CB80DC80DC2CCC2489819A81C80ED91E46
:1049E000E12CF12C6AE870E282E0ABDFC701B6018E
:1049F0000E9441470E946E4780FDFCCF62EA70E250
:104A00008FEF9FDF2696CDBFDEBFDF91CF91FF9066
:104A1000EF90DF90CF900895CF92DF92EF92FF92C8
:104A2000CF93DF9300D000D0CDB7DEB79E012F5FCC
:104A30003F4F3F932F939E012D5F3F4F3F932F9307
:104A40009E012B5F3F4F3F932F9325EA3AE03F9320
:104A50002F939F938F930E94AA4CCDBFDEBF892BCB
:104A6000D1F0CB80DC80DC2CCC2489819A81C80EEB
:104A7000D91EE12CF12C66E071E282E062DFC70111
:104A8000B6010E94BC470E946E4780FDFCCF62EADF
:104A900070E28FEF56DF2696CDBFDEBFDF91CF915C
:104AA000FF90EF90DF90CF900895A2E0B0E0EBE5AB
:104AB000F5E20C94A95219821A829E012F5F3F4F92
:104AC0003F932F9322EA3AE03F932F939F938F9344
:104AD0000E94AA4C0F900F900F900F900F900F9084
:104AE000892B71F089819A81892B19F467E271E22F
:104AF00002C062E471E283E024DF89810E94AA4758
:104B00002296E2E00C94C252A2E3B0E0EAE8F5E2B9
:104B10000C94A7520E946E479C0133273F932F931A
:104B2000892F99279F938F9388E79AE09F938F937C
:104B30008E010F5F1F4F1F930F930E94634CB801AC
:104B400083E0FFDECDBFDEBFE296E4E00C94C0520E
:104B5000A4E3B0E0EEEAF5E20C94A7529E012D5CCE
:104B60003F4F3F932F932FE03AE03F932F939F9334
:104B70008F930E94AA4C0F900F900F900F900F9060
:104B80000F90892B99F18BA99CA981309105A1F4F3
:104B90001F9281E08F9382E19AE09F938F938E0121
:104BA0000F5F1F4F1F930F930E94634CB80183E068
:104BB000C8DE0E944D4614C0892BC1F41F921F927B
:104BC00085E49AE09F938F938E010F5F1F4F1F9391
:104BD0000F930E94634CB80183E0B3DE0E945B46F2
:104BE0000F900F900F900F900F900F90E496E4E0CD
:104BF0000C94C052A2E3B0E0E0E0F6E20C94A752BD
:104C00000E946A461F928F931F927F931F926F9309
:104C10008AEE99E09F938F938E010F5F1F4F1F9332
:104C20000F930E94634CB80183E08BDECDBFDEBFE3
:104C3000E296E4E00C94C052A2E0B0E0E2E2F6E2D8
:104C40000C94A85219821A829E012F5F3F4F3F9306
:104C50002F9321E339E03F932F939F938F930E94EB
:104C6000AA4C0F900F900F900F900F900F90892BE0
:104C700009F443C089819A818F3F910549F564E326
:104C800079E080E043DD10E02FEF89E698E12150E4
:104C900080409040E1F700C000008091A406816050
:104CA0008093A4062FEF89E698E121508040904040
:104CB000E1F700C000008091A4068E7F8093A406D7
:104CC0006EE270E28FEF3DDE1F5F1233E9F615C032
:104CD00001978E3F910540F467E679E080E016DDAC
:104CE0008091A406816007C06CE779E080E00EDD6A
:104CF0008091A4068E7F8093A4062296E3E00C9414
:104D0000C152A4E5B0E0E7E8F6E20C94A3527E01BC
:104D100021E5E20EF11CFF92EF928E010D5A1F4F1A
:104D20001F930F932BEF38E03F932F939F938F9315
:104D30000E94AA4CCDBFDEBF892B09F44AC0F701FF
:104D400081818F9380818F93F80181818F938081FE
:104D50008F9387E099E09F938F93CC24C394D12CB9
:104D6000CC0EDD1EDF92CF920E94634CB60183E031
:104D7000E8DDF70140815181F80180819181982F10
:104D80008827840F951F80932628909327286FE00B
:104D900080E00E944A19F801408160E180E00E94B1
:104DA0004A19609126287091272880E090E00E949F
:104DB0008C4A20E03FEF4FE757E40E94F8496093A8
:104DC000822E7093832E8093842E9093852ECDBF58
:104DD000DEBFCC5ADF4FE8E00C94BC52A2E5B0E055
:104DE000E4EFF6E20C94A5528E010F5A1F4F1F9369
:104DF0000F9329ED38E03F932F939F938F930E9459
:104E0000AA4C0F900F900F900F900F900F90892B3E
:104E100009F43EC0F80181818F9380818F938FEDDB
:104E200098E09F938F93EE24E394F12CEC0EFD1EFB
:104E3000FF92EF920E94634CB70183E082DDF8019C
:104E400040814093862E69E080E00E944A1960917B
:104E5000862E70E080E090E00E948E4A20E030E0F4
:104E600040E850E40E94824B20E030E04FE753E4FA
:104E70000E94F8496093EE2D7093EF2D8093F02DF2
:104E80009093F12D0F900F900F900F900F900F9027
:104E9000CE5ADF4FE6E00C94BE52A6E5B0E0E3E563
:104EA000F7E20C94A1528E010F5A1F4F1F930F93DC
:104EB0007E0123E5E20EF11CFF92EF926E0135E5D3
:104EC000C30ED11CDF92CF9225E938E03F932F9398
:104ED0009F938F930E94AA4CCDBFDEBF892B09F40C
:104EE000FAC5F80181818F9380818F93F7018181C9
:104EF0008F9380818F93F60181818F9380818F932F
:104F000087EA98E09F938F93AA24A394B12CAC0EC8
:104F1000BD1EBF92AF920E94634CB50183E011DDCC
:104F2000F60140814093EC2DF70180818093252884
:104F3000F80180818093282863E080E00E944A196C
:104F4000F701408164E080E00E944A19F801408145
:104F500065E080E00E944A19CDBFDEBF80917B2EC4
:104F60008823F1F08091ED2D813009F0B4C518C08F
:104F7000880F991F880F991FFC01E957F14D209167
:104F8000EC2D2383FC01E757FC4C2091252823833B
:104F9000FC01EE5DFC4D2091282823834F5F01C06A
:104FA00040E0842F90E02091AB283091AC2882170C
:104FB0009307F0F2809104068E7F8093040687E9C0
:104FC00091E00197F1F700C0000040E075C5880F3F
:104FD000991F880F991FFC01E757FC4C238127FF7D
:104FE00018C02091040621602093040600140014C8
:104FF0000014001400140014001400140014001411
:10500000001400140014209104062E7F209304063F
:1050100017C0209104062160209304060014001498
:10502000001400140014209104062E7F209304061F
:1050300000140014001400140014001400140014D0
:1050400000140014001400140014FC01E757FC4C79
:10505000238126FF18C020910406216020930406B6
:1050600000140014001400140014001400140014A0
:1050700000140014001400140014209104062E7F64
:105080002093040617C02091040621602093040693
:1050900000140014001400140014209104062E7F44
:1050A00020930406001400140014001400140014CB
:1050B0000014001400140014001400140014FC0167
:1050C000E757FC4C238125FF18C02091040621607E
:1050D000209304060014001400140014001400149B
:1050E0000014001400140014001400140014209183
:1050F00004062E7F2093040617C020910406216029
:1051000020930406001400140014001400142091CD
:1051100004062E7F209304060014001400140014CB
:1051200000140014001400140014001400140014DF
:105130000014FC01E757FC4C238124FF18C0209188
:1051400004062160209304060014001400140014C7
:1051500000140014001400140014001400140014AF
:105160000014209104062E7F2093040617C020917E
:105170000406216020930406001400140014001497
:105180000014209104062E7F2093040600140014BE
:10519000001400140014001400140014001400146F
:1051A000001400140014FC01E757FC4C238123FF7A
:1051B00018C02091040621602093040600140014F6
:1051C000001400140014001400140014001400143F
:1051D000001400140014209104062E7F209304066E
:1051E00017C02091040621602093040600140014C7
:1051F000001400140014209104062E7F209304064E
:1052000000140014001400140014001400140014FE
:1052100000140014001400140014FC01E757FC4CA7
:10522000238122FF18C020910406216020930406E8
:1052300000140014001400140014001400140014CE
:1052400000140014001400140014209104062E7F92
:105250002093040617C020910406216020930406C1
:1052600000140014001400140014209104062E7F72
:1052700020930406001400140014001400140014F9
:105280000014001400140014001400140014FC0195
:10529000E757FC4C238121FF18C0209104062160B0
:1052A00020930406001400140014001400140014C9
:1052B00000140014001400140014001400142091B1
:1052C00004062E7F2093040617C020910406216057
:1052D00020930406001400140014001400142091FC
:1052E00004062E7F209304060014001400140014FA
:1052F000001400140014001400140014001400140E
:105300000014FC01E757FC4C238120FF18C02091BA
:1053100004062160209304060014001400140014F5
:1053200000140014001400140014001400140014DD
:105330000014209104062E7F2093040617C02091AC
:1053400004062160209304060014001400140014C5
:105350000014209104062E7F2093040600140014EC
:10536000001400140014001400140014001400149D
:10537000001400140014FC01E957F14D238127FFAC
:1053800018C0209104062160209304060014001424
:10539000001400140014001400140014001400146D
:1053A000001400140014209104062E7F209304069C
:1053B00017C02091040621602093040600140014F5
:1053C000001400140014209104062E7F209304067C
:1053D000001400140014001400140014001400142D
:1053E00000140014001400140014FC01E957F14DDE
:1053F000238126FF18C02091040621602093040613
:1054000000140014001400140014001400140014FC
:1054100000140014001400140014209104062E7FC0
:105420002093040617C020910406216020930406EF
:1054300000140014001400140014209104062E7FA0
:105440002093040600140014001400140014001427
:105450000014001400140014001400140014FC01C3
:10546000E957F14D238125FF18C0209104062160E2
:1054700020930406001400140014001400140014F7
:1054800000140014001400140014001400142091DF
:1054900004062E7F2093040617C020910406216085
:1054A000209304060014001400140014001420912A
:1054B00004062E7F20930406001400140014001428
:1054C000001400140014001400140014001400143C
:1054D0000014FC01E957F14D238124FF18C02091ED
:1054E0000406216020930406001400140014001424
:1054F000001400140014001400140014001400140C
:105500000014209104062E7F2093040617C02091DA
:1055100004062160209304060014001400140014F3
:105520000014209104062E7F20930406001400141A
:1055300000140014001400140014001400140014CB
:10554000001400140014FC01E957F14D238123FFDE
:1055500018C0209104062160209304060014001452
:10556000001400140014001400140014001400149B
:10557000001400140014209104062E7F20930406CA
:1055800017C0209104062160209304060014001423
:10559000001400140014209104062E7F20930406AA
:1055A000001400140014001400140014001400145B
:1055B00000140014001400140014FC01E957F14D0C
:1055C000238122FF18C02091040621602093040645
:1055D000001400140014001400140014001400142B
:1055E00000140014001400140014209104062E7FEF
:1055F0002093040617C0209104062160209304061E
:1056000000140014001400140014209104062E7FCE
:105610002093040600140014001400140014001455
:105620000014001400140014001400140014FC01F1
:10563000E957F14D238121FF18C020910406216014
:105640002093040600140014001400140014001425
:10565000001400140014001400140014001420910D
:1056600004062E7F2093040617C0209104062160B3
:105670002093040600140014001400140014209158
:1056800004062E7F20930406001400140014001456
:10569000001400140014001400140014001400146A
:1056A0000014FC01E957F14D238120FF18C020911F
:1056B0000406216020930406001400140014001452
:1056C000001400140014001400140014001400143A
:1056D0000014209104062E7F2093040617C0209109
:1056E0000406216020930406001400140014001422
:1056F0000014209104062E7F209304060014001449
:1057000000140014001400140014001400140014F9
:10571000001400140014FC01EE5DFC4D238127FFF2
:1057200018C0209104062160209304060014001480
:1057300000140014001400140014001400140014C9
:10574000001400140014209104062E7F20930406F8
:1057500017C0209104062160209304060014001451
:10576000001400140014209104062E7F20930406D8
:105770000014001400140014001400140014001489
:1057800000140014001400140014FC01EE5DFC4D24
:10579000238126FF18C0209104062160209304066F
:1057A0000014001400140014001400140014001459
:1057B00000140014001400140014209104062E7F1D
:1057C0002093040617C0209104062160209304064C
:1057D00000140014001400140014209104062E7FFD
:1057E0002093040600140014001400140014001484
:1057F0000014001400140014001400140014FC0120
:10580000EE5DFC4D238125FF18C020910406216028
:105810002093040600140014001400140014001453
:10582000001400140014001400140014001420913B
:1058300004062E7F2093040617C0209104062160E1
:105840002093040600140014001400140014209186
:1058500004062E7F20930406001400140014001484
:105860000014001400140014001400140014001498
:105870000014FC01EE5DFC4D238124FF18C0209133
:105880000406216020930406001400140014001480
:105890000014001400140014001400140014001468
:1058A0000014209104062E7F2093040617C0209137
:1058B0000406216020930406001400140014001450
:1058C0000014209104062E7F209304060014001477
:1058D0000014001400140014001400140014001428
:1058E000001400140014FC01EE5DFC4D238123FF25
:1058F00018C02091040621602093040600140014AF
:1059000000140014001400140014001400140014F7
:10591000001400140014209104062E7F2093040626
:1059200017C020910406216020930406001400147F
:10593000001400140014209104062E7F2093040606
:1059400000140014001400140014001400140014B7
:1059500000140014001400140014FC01EE5DFC4D52
:10596000238122FF18C020910406216020930406A1
:105970000014001400140014001400140014001487
:1059800000140014001400140014209104062E7F4B
:105990002093040617C0209104062160209304067A
:1059A00000140014001400140014209104062E7F2B
:1059B00020930406001400140014001400140014B2
:1059C0000014001400140014001400140014FC014E
:1059D000EE5DFC4D238121FF18C02091040621605B
:1059E0002093040600140014001400140014001482
:1059F000001400140014001400140014001420916A
:105A000004062E7F2093040617C02091040621600F
:105A100020930406001400140014001400142091B4
:105A200004062E7F209304060014001400140014B2
:105A300000140014001400140014001400140014C6
:105A40000014FC01EE5DFC4D838180FF18C0809145
:105A500004068160809304060014001400140014EE
:105A60000014001400140014001400140014001496
:105A70000014809104068E7F8093040617C08091E5
:105A800004068160809304060014001400140014BE
:105A90000014809104068E7F809304060014001485
:105AA0000014001400140014001400140014001456
:105AB0000014001400144F5F842F90E02091AB2855
:105AC0003091AC288217930708F481CA80910406AC
:105AD000816080930406CA5ADF4FEAE00C94BA5200
