:020000023000CC
:100000000D94F4800D940D810D940D810D940D814E
:100010000D940D810D940D810D940D810D940D8124
:100020000D940D810D940D810D940D810D940D8114
:100030000D940D810D940D810D940D810D940D8104
:100040000D940D810D940D810D940D810D940D81F4
:100050000D940D810D940D810D940D810D940D81E4
:100060000D940D810D940D810D940D810D940D81D4
:100070000D940D810D940D810D940D810D940D81C4
:100080000D940D810D940D810D940D810D940D81B4
:100090000D940D810D940D810D940D810D940D81A4
:1000A0000D940D810D940D810D940D810D940D8194
:1000B0000D940D810D940D810D940D810D940D8184
:1000C0000D940D810D940D810D940D810D940D8174
:1000D0000D940D810D940D810D940D810D940D8164
:1000E0000D940D810D940D810D940D810D940D8154
:1000F0000D940D810D940D810D940D810D940D8144
:100100000D940D810D940D810D940D810D940D8133
:100110000D940D810D940D810D940D810D940D8123
:100120000D940D810D940D810D940D810D940D8113
:100130000D940D810D940D810D940D810D940D8103
:100140000D940D810D940D810D940D810D940D81F3
:100150000D940D810D940D810D940D810D940D81E3
:100160000D940D810D940D810D940D810D940D81D3
:100170000D940D810D940D810D940D810D940D81C3
:100180000D940D810D940D810D940D810D940D81B3
:100190000D940D810D940D810D940D810D940D81A3
:1001A0000D940D810D940D810D940D810D940D8193
:1001B0000D940D810D940D810D940D810D940D8183
:1001C0000D940D810D940D810D940D810D940D8173
:1001D0000D940D810D940D810D940D810D940D8163
:1001E0000D940D810D940D8111241FBECFEFDFE51D
:1001F000DEBFCDBF01E00CBF10E2A0E0B0E2ECE357
:10020000FCE003E00BBF02C007900D92A030B107E5
:10021000D9F70F9457830D941C860D940080982F66
:10022000E0ECF1E08091CF0187FDFACF262F30E09E
:100230002F713070892F90E045E0880F991F4A9503
:10024000E1F7282B392B2093C001832F8F718183F5
:10025000128286E08287EF93FF930F932F93EBEC4C
:10026000F1E008ED21E004BF20832F910F91FF9171
:10027000EF918091C40108958091CF0187FDFCCF5B
:1002800008958091CF0187FDFCCF8091CF0181FF40
:1002900012C086E3E0ECF1E08287EF93FF930F93C7
:1002A0002F93EBECF1E008ED21E004BF20832F91C8
:1002B0000F91FF91EF910895DF92EF92FF920F93CC
:1002C0001F93E82E062FD42E0F944181E0ECF1E02D
:1002D00083E3828710E00F711070FF2455E0EE0C6D
:1002E000FF1C5A95E1F70E291F290083812F8F717A
:1002F00081831282D48285E38287EF93FF930F93E9
:100300002F93EBECF1E008ED21E004BF20832F9167
:100310000F91FF91EF911F910F91FF90EF90DF9060
:100320000895982FE0ECF1E08091CF0187FDFACF9E
:1003300083E382879093C0011182128264830895BF
:10034000DC01E0ECF1E08091CF0187FDFACF83E39F
:1003500082871182128290E09093C0018D918483F4
:100360009F5F9032C9F70895982FE0ECF1E08091FB
:10037000CF0187FDFACF892F90E065E0880F991FA4
:100380006A95E1F78093C001892F8F718183128272
:1003900085E38287EF93FF930F932F93EBECF1E0CC
:1003A00008ED21E004BF20832F910F91FF91EF9181
:1003B0000895982FE0ECF1E08091CF0187FDFACF0E
:1003C000892F90E075E0880F991F7A95E1F7809367
:1003D000C001892F8F718183128282E38287EF931C
:1003E000FF930F932F93EBECF1E008ED21E004BFB6
:1003F00020832F910F91FF91EF910895982FE0ECBA
:10040000F1E08091CF0187FDFACF892F90E0A5E040
:10041000880F991FAA95E1F78093C001892F8F71EA
:100420008183128284E38287EF93FF930F932F934C
:10043000EBECF1E008ED21E004BF20832F910F9158
:10044000FF91EF9108958091CF0187FDFCCF80E36C
:10045000E0ECF1E08287EF93FF930F932F93EBECA7
:10046000F1E008ED21E004BF20832F910F91FF916F
:10047000EF9108950F931F93CF93DF938C01EA01BF
:10048000653441F58091CC01877FE0ECF1E0848711
:100490000F94418188819981AA81BB81682F6F71F6
:1004A00045E0B695A795979587954A95D1F70F940E
:1004B0000F810F945B8588819981AA81BB81019608
:1004C000A11DB11D88839983AA83BB83015010406D
:1004D00009F738C06634B1F588819981AA81BB815A
:1004E000880F991FAA1FBB1F88839983AA83BB8388
:1004F000688179818A819B810F947C850F945B85CB
:10050000688179818A819B816F5F7F4F8F4F9F4F79
:100510000F947C850F945B8588819981AA81BB812A
:100520000296A11DB11D88839983AA83BB830250C3
:100530001040F1F6B695A79597958795888399838E
:10054000AA83BB83DF91CF911F910F9108956F9282
:100550007F928F929F92AF92BF92CF92DF92EF9253
:10056000FF920F931F93DF93CF93CDB7DEB7C050A9
:10057000D240CDBFDEBF3C014A016534E9F50F949E
:1005800041818091CC01877FE0ECF1E084877E019E
:100590000894E11CF11C67015701A60CB71C05C0AB
:1005A0000F947585F60181936F01CA14DB04C1F7BE
:1005B0001FC0F40180819181A281B381682F6F7186
:1005C00075E0B695A795979587957A95D1F7F70138
:1005D00041917F010F945C81F40180819181A2811E
:1005E000B3810196A11DB11D80839183A283B38342
:1005F000EC14FD04F1F647C0663411F08FE344C0FB
:10060000FA01C080D180E280F380CC0CDD1CEE1CAE
:10061000FF1CC082D182E282F3820F947585082F7D
:1006200010E00F947585B82EAA240A291B29F4011D
:1006300080819181B8010F94B185F401808191810D
:10064000A281B3810296A11DB11D80839183A283F3
:10065000B3838EEF9FEF680E791E61147104E9F683
:10066000C701B6010F94C7850F94F485F40180810A
:100670009181A281B381B695A7959795879580833F
:100680009183A283B3838DE0C050DE4FCDBFDEBF28
:10069000CF91DF911F910F91FF90EF90DF90CF905E
:1006A000BF90AF909F908F907F906F9008952F9202
:1006B0003F924F925F926F927F928F929F92AF92F2
:1006C000BF92CF92DF92EF92FF920F931F93DF932F
:1006D000CF9300D000D0CDB7DEB788E3E0EAF6E0F4
:1006E000818B81E061E00F940F818A3A49F481E0C7
:1006F00061E040E00F945C810F9441819FEF0AC05C
:1007000088E893E122E330E0F9013197F1F70197AE
:10071000D9F790E08091A80681FF03C0992309F4DE
:100720009DC18091CC0180FF02C00F9416861A8271
:100730001B821C821D8219820F9441818091CC0101
:10074000877FE0ECF1E0848780E2E0E8F6E08183F7
:100750000F944E85CC24DD2421E02E8382E0282EC8
:10076000312C2C0E3D1E8E81813039F488E893E1C6
:100770000F94628589831E8203C00F9475858983D7
:100780008981813611F489E566C1813479F40F9449
:100790007585182F0F947585B12EAA2490E08A29AB
:1007A0009B29AA2797FDA095BA2F9CC0853649F5AD
:1007B0001A821B821C821D8214C00F94F4856A81E8
:1007C0007B818C819D810F94AB858A819B81AC81DB
:1007D000BD8180509E4FAF4FBF4F8A839B83AC83B8
:1007E000BD838A819B81AC81BD8180509040A340B4
:1007F000B04018F3CE0101960F94A0810F9423828C
:10080000FDC0823629F489E50F945B8582E0E2C061
:100810008234A1F40F947585182F0F947585912E4D
:100820008824C82EDD24C828D9280F947585682F00
:100830008983C601A1010F94A7820DC18736A1F457
:100840000F947585182F0F947585712E6624C82E08
:10085000DD24C628D7280F947585682F8983C601A3
:10086000A1010F943A827FCF8235E9F40F94F48589
:100870006A817B818C819D81660F771F881F991FFC
:100880006F5F7F4F8F4F9F4F0F947C850F945B85D9
:100890006A817B818C819D81660F771F881F991FDC
:1008A0000F947C8564C0833629F40F947585C82E17
:1008B000DD24A4C08334D9F40F947585582E4424C4
:1008C000C428D5280F94F4858A819B81880F991FAD
:1008D000B6010F94B1858A819B81AC81BD8101965F
:1008E000A11DB11D8A839B83AC83BD8387C08D36D8
:1008F000B9F48A819B81AC81BD8180509048A14030
:10090000B04008F0A7C00F94F4856A817B818C8188
:100910009D81660F771F881F991F0F94C7856EC032
:100920008434A1F4EA80FB800C811D810F947585CD
:10093000482F6E2D6F71F5E016950795F794E794A3
:10094000FA95D1F78E2D0F945C8113C08436E9F4AB
:100950008A819B81AC81BD81682F6F71E5E0B6957E
:10096000A79597958795EA95D1F70F940F810F94E6
:100970005B858A819B81AC81BD810196A11DB11DE2
:100980008A839B83AC83BD83EECE8C3639F40F947F
:10099000F4850F9475850F94988530C0803571F17A
:1009A0008C3461F1853479F480E48093B10A8DE070
:1009B0000F945B858091B10A86FFFCCF0F94F4857C
:1009C0000F941686D0CE803711F483E544C0843767
:1009D00029F48AEF0F945B8580E03DC0883721F4CD
:1009E00020E2209386060AC0893721F480E28093B2
:1009F000850604C0843521F40F9475858DE02BC0E5
:100A00008335A1F488E50F945B858DE60F945B85B3
:100A100085E60F945B8587E60F945B8581E60F94EE
:100A20005B8582E40F945B858CE615C0863529F4DE
:100A300081E30F945B8581E30EC0833741F484E446
:100A40000F945B8587E90F945B858EE104C08B3141
:100A500009F489CE8FE30F945B8585CE0F94F485DE
:100A60000F94ED851CBEE0E0F0E0199580E090E089
:100A70002696CDBFDEBFCF91DF911F910F91FF90E2
:100A8000EF90DF90CF90BF90AF909F908F907F902E
:100A90006F905F904F903F902F90089580E8E0E82E
:100AA000F6E08183E0EBFAE08BE0868380E98783E0
:100AB00088E1848308958093B00A8091B10A85FF0C
:100AC000FCCF08959C0144EF51E008C0FA01319732
:100AD000F1F72150304011F485E408958091B10A76
:100AE00087FFF4CF8091B00A08958091B10A87FF03
:100AF000FCCF8091B00A08953BB78BBFFB01869174
:100B00003BBF08953BB78BBFFB01879196913BBFDD
:100B1000089542E081C041E07FC08093C0018827F2
:100B20008093C1018093C20147E066D0CB01089554
:100B30008093C40148E060C08091D00108953BB724
:100B400048E10D9431863BB74AE10D9431863BB7BD
:100B500040E20D9431863BB78BBFCB0142E20D944E
:100B600031863BB70B0143E20D9431863BB76BBF37
:100B7000FA0119BEDC0140E04093CA0150E08791C0
:100B800097918D939D935A95D1F73BBF08953BB7AD
:100B90008BBFCB0144E20D9431863BB78BBFCB01B9
:100BA00045E20D9431863BB746E20D9431863BB762
:100BB0008BBFCB014AE20D9431863BB78BBFCB0193
:100BC0004CE20D9431863BB78BBFCB014DE20D94C7
:100BD000318648E311C049E30FC028ED209334006B
:100BE00021E02093CC0108952091CF0127FDFCCF77
:100BF00022272093CA0108954093CA0128ED31E0CD
:100C0000209334003093CB016091C4017091C501F1
:100C10008091C60199270895FC014093CA018491EF
:100C2000089548ED44BF80934000089548ED44BFC7
:0C0C300041E0409379000895F894FFCF54
:100C3C00EE27FF2719BEDC0143E24093CA0150E0C6
:100C4C002DE90D901D9020933400E89532965A951D
:100C5C00C1F711240895FC014093CA012DE920939A
:0A0C6C003400E89511243BBF089501
:0400000330000000C9
:00000001FF
